:020000040800F2
:10000000F01600109D0100088F210008E51F000870
:100010008D210008810300086D2F000800000000FA
:10002000000000000000000000000000D12D0008CA
:10003000C90400080000000091210008FB2D000801
:10004000B7010008B7010008B7010008B7010008B0
:10005000B7010008B7010008B7010008B7010008A0
:10006000B7010008B7010008B7010008B701000890
:10007000B7010008B7010008B7010008B701000880
:10008000E9030008B7010008B7010008B70100083C
:10009000B7010008B7010008B7010008B701000860
:1000A000B7010008B7010008B7010008B701000850
:1000B000B7010008B7010008B7010008B701000840
:1000C000B7010008B7010008B7010008B701000830
:1000D000B7010008B7010008B7010008B701000820
:1000E000B7010008B7010008B7010008B701000810
:1000F000B7010008B7010008B7010008B701000800
:10010000B7010008B7010008B7010008B7010008EF
:10011000B7010008B7010008B7010008B7010008DF
:10012000F5030008B7010008B70100080104000842
:10013000B70100080000000000000000B70100083F
:10014000B7010008B7010008B7010008B7010008AF
:100150000D04000819040008B7010008B7010008E1
:10016000B7010008B7010008B7010008B70100088F
:10017000B7010008B70100080000000000000000FF
:10018000B7010008B7010008DFF80CD000F094F8C0
:100190000048004729760008F016001006488047FE
:1001A00006480047FEE7FEE7FEE7FEE7FEE7FEE75C
:1001B000FEE7FEE7FEE7FEE7892E0008890100085A
:1001C0002DE9F05F0546002092469B46884606468C
:1001D000814640241BE0284641464746224600F01F
:1001E0005AF853465A46C01A914110D31146184640
:1001F000224600F041F82D1A67EB01084F462246CF
:100200000120002100F038F817EB00094E41201EB4
:10021000A4F10104DFDC484631462A464346BDE8E6
:10022000F09F40EA01039B0703D009E008C9121FB1
:1002300008C0042AFAD203E011F8013B00F8013BA0
:10024000521EF9D27047D2B201E000F8012B491ECC
:10025000FBD270470022F6E710B513460A46044663
:100260001946FFF7F0FF204610BD421C10F8011B95
:100270000029FBD1801A7047202A04DB203A00FABB
:1002800002F1002070479140C2F1200320FA03F3ED
:10029000194390407047202A04DB203A21FA02F0EB
:1002A0000021704721FA02F3D040C2F120029140B0
:1002B0000843194670470000064C074D06E0E06809
:1002C00040F0010394E8070098471034AC42F6D39D
:1002D000FFF75EFF9C9D0008DC9D00080146014879
:1002E00001F034B9A4BD002010B5044801F040F974
:1002F000042801D0012010BD002010BDA4BD0020A5
:1003000010B500F015F8012801D0012010BD0748F4
:1003100001F044F9040006D14FF40061034800F0F5
:10032000CFFF00B10124204610BD0000A4BD002075
:1003300008B501208DF800009DF8000008BD000000
:1003400038B50024009313460A460146034801F0DD
:1003500005FA00B10124204638BD0000A4BD0020EC
:1003600038B50024009313460A460146034801F0BD
:10037000F1FA00B10124204638BD0000A4BD0020E0
:10038000FEE710B5846B204600F0E8F801202071EC
:1003900010BD10B5846B204600F0BCF80120207120
:1003A00010BD10B5846B206940F004002061204628
:1003B00000F0E0F80120207110BD10B5846B2069B9
:1003C00040F004002061204600F0A6F801202071D2
:1003D00010BD10B5806B00F0C7F810BD10B5806B74
:1003E00000F099F810BD0000014800F0DFB90000EE
:1003F000D0C00020014800F0D9B90000F0C10020B1
:10040000014800F0D3B9000030C10020014800F0DD
:10041000CDB9000050C20020014800F0C7B900006B
:1004200090C1002001681823CAB2103AB2FBF3F25F
:10043000054B6FF30901032A9B5CC36500D9091DB5
:100440008165084670470000D29C000810B501463F
:1004500000208B698A6A4FF0C07453B1B3F5005F16
:1004600015D072B1012A0CD0022A0AD0032A09D170
:1004700004E01AB1012A06D0022A03D1C96AC901CF
:1004800000D5012010BDC96AA142FAD010BD002AD2
:10049000F7D0012AF2D0022AF3D0032AF3D010BDFC
:1004A00030B50468256825F48025256004686360FC
:1004B0008368402B036803D099600068C26030BD38
:1004C0009A600068C16030BD70477047002200F03C
:1004D00001B8000030B50E4B054601205C7A002CB7
:1004E00014D1587A1C54587A03EB800045605D7A29
:1004F00003F108002A54587A421C5A7230300870AE
:100500003A2048702F208870CC70002030BD000049
:10051000E416012070477047704770B54379012B8E
:100520001AD0012646710223037105682C6840F633
:10053000FE7393409C43D1E900310B439340234326
:100540002B6001680B68C0249440A3430B600671C4
:1005500000214171084670BD022070BD8021014814
:1005600008F0C4BA9C0100208021014808F0BEBAFE
:100570009C000020704770B5040003D0207900254E
:1005800010B105E0012070BD6571204600F008F84B
:1005900002202071256101202071002070BD000023
:1005A00070B586B0054614216846FFF753FE1F4913
:1005B0002868884237D11E480026016841F0005162
:1005C0000160006800F0005005901948103801687B
:1005D00041F0010101600068694600F001000590EA
:1005E000102000900320CDE90106124800F062FAC5
:1005F000124C114820604FF0606060604020C4E9F8
:10060000020600012061400060618000A06140118D
:10061000C4E907062046666200F098F908B1FFF7C2
:1006200054FFAC60A56306B070BD000000740040CC
:10063000403802400000024088600240D0C00020E4
:1006400030B54279012A16D001224271022303718A
:1006500003681D6802FA01F425431D600029016842
:100660000B680AD00C6803F4802304F46014B3F51B
:10067000802F0FD015E0022030BD0C6803F004037A
:1006800004F03804042B0CD1382C0AD14B6843F009
:10069000010305E0B4F5601F03D14B6843F002038A
:1006A0004B60027100214171084630BD2DE9F041D7
:1006B00004460D461746617900220698012920D08C
:1006C0000126667102212171F5B1D4F80CC03149BF
:1006D000CCF83C10D4F80CC02F49CCF84010D4F81A
:1006E0000CC02E49CCF84C102168D1F800C04CF059
:1006F000805CC1F800C090B3042834D0082837D1FA
:1007000034E00220BDE8F081D4F808C02449CCF8D8
:100710003C10D4F808C02349CCF84010D4F808C0E5
:100720002149CCF84C102168D1F800C04CF4805C11
:10073000C1F800C020B1042805D0082808D105E080
:100740002268083204E022680C3201E0226810328C
:100750002068016841F400510160A0680EE0FFE7E5
:100760002268143204E02268183201E022681C3248
:100770002068016841F000510160E068394600F0EE
:100780004FF920680168AE4031430160002060717C
:10079000B8E7000093030008DD030008BB0300086E
:1007A00083030008D3030008A30300082DE9F843DE
:1007B00004464FF00009CDF8009063484FF41651FD
:1007C000A56D0068B0FBF1F72E6894F85C10082066
:1007D00000FA01F131420FD021680A6852070BD5A7
:1007E0000A6822F004020A6094F85C108840A8604D
:1007F000606D40F00100606594F85C104FF00108F6
:1008000008FA01F0304208D021684969090604D588
:10081000A860606D40F00200606594F85C100420F0
:100820008840304208D021680968890704D5A8604B
:10083000606D40F00400606594F85C101020884002
:10084000304218D021680968090714D5A8602068CB
:100850000168490304D50068000308D5A16C07E0CE
:100860000168C90503D4016821F008010160216C09
:1008700009B12046884794F85C1020208840304217
:1008800031D021680968C9062DD5A86094F83500D3
:1008900005282068016806D0490347D50068000391
:1008A0001DD4616C1CE021F01601016020684169D3
:1008B00021F080014161206C08B9A06C20B1206852
:1008C000016821F00801016094F85C103F20884025
:1008D000A86084F8349084F83580216D1FE0E16BC6
:1008E00009B120468847606D00282BD0606DC00795
:1008F00014D0052084F835002068016821F001013A
:1009000001600098401C0090B84203D8206800683D
:10091000C007F6D184F8349084F83580E16C002962
:1009200010D001B02046BDE8F04308470168C90572
:10093000D5D4016821F01001016084F8349084F866
:100940003580CCE7BDE8F883900000202DE9F04128
:10095000044600F09DF906465CB1002584F8345049
:10096000022084F835002068016821F0010101604F
:100970000DE00120BDE8F08100F08AF9801B052818
:1009800005D920206065032084F83500F2E720684F
:100990000068C007F0D12268116820480140D4E9FE
:1009A00001031843D4E903363343184363691843FA
:1009B000A3691843E3691843236A18430843616A2B
:1009C000042903D1D4E90B131943084310602068AC
:1009D0004069666A20F0070130460E43012704286B
:1009E0000CD1A06A0643E06A40B12046FFF72EFD15
:1009F00020B14020606584F83570BAE72068466110
:100A00002046FFF70FFD94F85C203F219140816064
:100A1000656584F835700020ACE700003F8010F079
:100A20002DE9F0410446866D90F834000025012838
:100A30000DD0012084F8340094F835700020012F87
:100A400007D084F8340002252846BDE8F081022052
:100A5000FBE7022784F8357060652046FFF720FD2C
:100A600094F85C103F208840B0602068016841F035
:100A700016010160206C20B12068016841F0080176
:100A800001602068016841F001010160DCE70000BD
:100A900070B5044600F0FCF80546601C02D004481E
:100AA0000078044400F0F4F8401BA042FAD370BD73
:100AB000840000202DE9F84F00224FF001080325A3
:100AC0004FF00F0E0B6808FA02F42340A3426ED1D8
:100AD0004E68012E05D0022E03D0112E01D0122E09
:100AE00012D186684FEA420C05FA0CF7BE43CF6874
:100AF00007FA0CF7374387604668A6430C79C4F3BE
:100B00000014944034434460C668570005FA07FC5B
:100B10008C6826EA0C06BC403443C4604C68022C46
:100B200001D0122C13D1D40800EB8404A346D4F8CE
:100B3000209054074FEAD46A0EFA0AF629EA060909
:100B40000E6906FA0AF646EA0906CBF8206006683E
:100B50000C7926EA0C0604F00304BC40344304601C
:100B60004C68E40065D5364C266846F4804626601D
:100B7000246822F0030604F480440094314C344489
:100B8000A446D4F808489607370F0EFA07F6B44380
:100B90002D4EB04201D1002624E02C4EB04201D1AE
:100BA00001261FE02A4EB04202D102261AE040E0A0
:100BB000284EB04201D1032614E0274EB04201D1A5
:100BC00004260FE0254EB04201D105260AE0244E4E
:100BD000B04201D1062605E0224EB04201D10726DF
:100BE00000E00826BE402643CCF808681E4E346854
:100BF0004F689C43FF0300D51C4334601A4C241DEE
:100C000026684F689E43BF0300D51E432660164EDC
:100C1000083634684F689C43FF0200D51C4334609B
:100C2000114E0C3634684F689C43BF0200D51C43FC
:100C30003460521C102AFFF445AFBDE8F88F000065
:100C400044380240003001400000024000040240ED
:100C500000080240000C0240001002400014024054
:100C600000180240001C0240003C0140006908409E
:100C700000D001207047426931EA020200D1090424
:100C8000816170470AB1816170470904FBE7000088
:100C90000148806870470000840000200248816895
:100CA0000278114481607047840000200B4810B521
:100CB000016841F400710160016841F480610160E4
:100CC000016841F480710160032000F06FF800209A
:100CD00000F006F800F024F8002010BD003C0240AF
:100CE00070B50D4D04464FF47A712878B1FBF0F0E1
:100CF0000A490968B1FBF0F001F0D6F848B9102CA8
:100D000007D200222146501E00F030F800206C600F
:100D100070BD012070BD0000840000209000002004
:100D20000A4808B5016841F480410160006800F498
:100D3000804000900548001F016841F0805101602B
:100D4000006800F08050009008BD00004438024068
:100D5000002809DB00F01F020121914040098000BA
:100D600000F1E020C0F8001170470000F0B40E4B15
:100D70001B680C46C3F30223C3F10705042D00D9F9
:100D80000425191D072901D2002300E0DB1E0126DE
:100D900006FA05F1491E214099409E40761E1640F4
:100DA0003143F0BC02F068B90CED00E0064900F0F8
:100DB000070208684FF6FF03184040EA0220034A82
:100DC00010430860704700000CED00E00000FA05D9
:100DD0002DE9F0470E46050065D0DFF81481D8F8FC
:100DE0000000F7B200F00F00B04207D288F80070A0
:100DF000D8F8000000F00F00B04254D128683D4CF4
:100E0000810712D5400703D5206840F4E0502060E8
:100E10002878000703D5206840F4604020602068EF
:100E2000A96820F0F000084320602878C0072DD082
:100E3000304968680839012812D0022813D00328E5
:100E400011D00968890700292DDA216821F00301F2
:100E500001432160FFF71CFF814641F2883A0EE012
:100E600009688903EFE709688901ECE7FFF710FFDC
:100E7000A0EB0901514502D90320BDE8F0872068A5
:100E8000696800F00C00B0EB810FEFD1D8F80010CA
:100E9000404601F00F01B14207D90770006800F029
:100EA0000F00B04201D00120E7E72878400705D5C0
:100EB0002068E96820F4E0500843206028780007A3
:100EC00006D52068296920F4604040EAC10020600E
:100ED00000F018F82168084AC1F30311515CC840BA
:100EE0000649086006480068FFF7FAFE0020C4E7DC
:100EF000003C024008380240DA9C000890000020C4
:100F000088000020154810B5006810F00C02144845
:100F100013D04110042A0FD0082A0ED10F4C241FE1
:100F20002268236802F03F025B0207D52068C0F305
:100F30008810A0FB010106E0084610BD2168C1F33E
:100F40008811A1FB00010023FFF73AF92168C1F3E2
:100F50000141491C4900B0FBF1F010BD08380240C6
:100F60000024F4002DE9F84F04006ED02078DFF85B
:100F70003C93C007A9F104054AD009F104000168B7
:100F8000C1F38101012908D00068C0F38100022863
:100F90000AD1D9F80000400206D52868800337D569
:100FA00060680028E1D033E06068B0F5803F10D081
:100FB000B0F5A02F286810D020F480302860286871
:100FC00020F4802028606068A8B1FFF761FE064623
:100FD0000DE0286840F48030F4E740F48020286079
:100FE000F7E700BFFFF754FE801B642873D828681A
:100FF0008003F7D50CE0FFF74BFE064605E000BF87
:10100000FFF746FE801B6428F0D828688003F7D4D9
:101010002078DFF89C8280074FF0000A3ED5A34875
:10102000001D016811F00C0F08D00068C0F38100AA
:1010300002280BD1D9F80000400207D428688007A5
:1010400016D5E068012800D112E02BE1E068B8B1C4
:101050000120C8F80000FFF71BFE064605E000BFB0
:10106000FFF716FE801B0228C0D828688007F7D536
:101070002868216920F0F80040EAC10028600DE0EE
:10108000C8F800A0FFF704FE064604E0FFF700FEE4
:10109000801B02281FD828688007F7D42078000713
:1010A00022D5824E83486169703671B10121016099
:1010B000FFF7EEFD074604E0FFF7EAFDC01B02283C
:1010C00009D830688007F7D50EE0C0F800A0FFF718
:1010D000DFFD074605E082E0FFF7DAFDC01B0228CE
:1010E0007DD830688007F7D42078400768D5DFF8CE
:1010F000BCB100270BF13C0BDBF80000C0000BD4A7
:10110000DBF8001041F08051CBF80010DBF8000054
:10111000012700F080500090674E3068C00510D461
:10112000306840F480703060FFF7B2FD009005E059
:10113000FFF7AEFD0099401A022850D83068C0056C
:10114000F6D55A4EA0686C3601280FD005283068B5
:1011500010D020F001003060306820F004003060D2
:10116000A068B8B1FFF794FD00900FE0306840F040
:101170000100F4E740F004003060F7E7FFF788FD76
:101180000099411A41F28830814266D83068800760
:10119000F4D50EE0FFF77CFD009007E0FFF778FD47
:1011A0000099411A41F28830814256D83068800750
:1011B000F4D42FB1DBF8001021F08051CBF80010EF
:1011C000A069C8B33949091D0968C1F38101022921
:1011D0004AD00228504607D0C8F8600000E03CE042
:1011E000FFF756FD04463BE04746C8F86000FFF7AE
:1011F0004FFD064605E000BFFFF74AFD801B0228B1
:101200002BD828688001F7D4D4E907010843A16AE4
:101210002A4A490802EB0141626A41EA8211084305
:1012200094F82C1040EA0161C9F8001001203866DA
:10123000FFF72EFD044606E036E000BFFFF728FD6D
:10124000001B022809D828688001F7D52CE000BFD0
:10125000FFF71EFD001B022802D90320BDE8F88F0E
:1012600028688001F4D41FE00128F7D0D9F80000E5
:10127000E26900F48001914214D1226A00F03F013A
:1012800091420FD147F6C071626A0140914209D183
:10129000A26A00F44031914204D1E16A00F070602A
:1012A000884201D00120D9E70020D7E70438024066
:1012B00000004742800E4742007000400000FFFFE0
:1012C0002DE9FE43044603200F4684F83400606C89
:1012D00003285AD0B7F5805F57D04FF40066002539
:1012E0004FF08068B7421CD100950195002120681D
:1012F00000F0DCFF800121D46946204601F00CFBA0
:1013000098BB0198400332D5B4F85000010420681E
:1013100001F001F848BB0221206822E0A06B2843BD
:1013200027E01FB1A06B40F0006022E0009501951E
:101330000021206800F0BAFF800101D53546EDE7B5
:101340006946204601F0E8FA78B90198C0030ED545
:10135000B4F850000104206800F0DDFF28B9002136
:10136000206801F024F80028D8D00546D6E7454685
:10137000D4E7A063A06B012558B121680C488863AD
:1013800084F834500120BDE8FE83A06B40F080500B
:10139000EFE7211DD4E905060EC90097CDE9010646
:1013A000206800F086FF84F834500020EBE700004E
:1013B000FF054000F0B5426E920F0A70426EC2F314
:1013C00083624A70426EC2F301628A70426E120CEE
:1013D000CA70B0F86420120A0A7190F864204A7149
:1013E000826E120DCA80826EC2F303420A72B0F896
:1013F0006820C2F3C0324A72B0F86820C2F380326B
:101400008A72B0F86820C2F34032CA72B0F868201D
:10141000C2F300320A7300264E73426C4FF400751B
:10142000012462B1012A3AD0026847499163816B75
:1014300041F08051816380F834400120F0BDB0F864
:101440006820C36E9205120D42EA93720A61C26E61
:10145000C2F3C2620A75C26EC2F302624A75C26EFC
:10146000C2F342528A75C26EC2F38242CA75C26E1C
:10147000C2F3C2320A760A69521C42650B7E03F03F
:1014800007039B1C9A4042650B7A03F00F0704FA8E
:1014900007F383655B0A5A43C0E917250EE090F80D
:1014A0006820C36E9206920A42EA13420A610A69F0
:1014B000521C92024265C0E91652056630F86C2F44
:1014C000C2F3803201F8192F0288C2F3C6124A70A3
:1014D000027802F07F028A704268D20FCA704268B6
:1014E000C2F341720A714268C2F382624A71426871
:1014F000C2F383528A714268C2F34052CA710E72BB
:101500004268C2F300424A728288C2F3C0328A72D1
:101510008288C2F38032CA728288C2F340320A7370
:101520008288C2F300324A738288C2F381228A73AE
:101530008288C2F30122CA730079C0F3460008749E
:101540004C740020F0BD0000FF054000426C0A60B2
:10155000826C4A60C26C8A60026DCA60426D0A6128
:10156000826D4A61C26D8A61006EC8610020704759
:1015700070B50446B0F8500000250104206801F061
:1015800020F818B1A16B0143A16304E00021206899
:1015900000F08CFE0546C5F3432070BD70B5040015
:1015A0000ED094F83400002518B92577204600F0B5
:1015B0003BF8032084F83400204600F00BF808B113
:1015C000012070BDA5632563012084F8340000204C
:1015D00070BD0000FEB50025044676200095CDE9DB
:1015E000015029460B460A46206800F062FE08B109
:1015F0000120FEBD0B4E46F8A05F206800F06BFE98
:1016000001253560204601F069FA20B9204601F035
:10161000EDF90028EDD084F83450A16B0143A163AB
:10162000E6E70000008025422DE9F04F87B005462F
:1016300014216846FEF70EFE4149286888427BD196
:10164000404800683F4940F400600860086800F4C2
:10165000006005903B48143800683A4940F00400A7
:1016600014390860086800F004000590086840F02C
:10167000080008600868022400F0080005904FF494
:10168000F850CDE9000402AA002003264FF00C0810
:1016900082E8410169462C48FFF70CFA02AA0020B3
:1016A00082E841010427CDE9007469462748FFF725
:1016B00001FA284C26484FF00068C4E900080020D1
:1016C0004FF48069A060C4E90309B8024FF4804B6D
:1016D000C4E9050BC4E909764FF0200A0020C4E9EB
:1016E00007A07E05B7102046C4E90B67FFF72EF967
:1016F00008B1FEF7EAFE2C64A563174C144804F108
:1017000028024830C4E900084020A0600020C4E955
:101710000309C4E907A004206062032082E8C10035
:101720004FF48051C4E9051B2046FFF70FF908B1BB
:10173000FEF7CBFEEC63A56307B0BDE8F08F0000B9
:10174000002C01404438024000080240000C0240D6
:101750005864024030C1002090C100202DE9F04FB4
:1017600087B09B4616460D460446FFF791FA009057
:101770003DB194F83400012807D0A06B40F0005030
:101780000DE0A06B40F0006009E00027A763E16D69
:1017900006EB0B00884204D9A06B40F00070A063F8
:1017A00095E0032084F834002068C762606C01284B
:1017B00000D076024FF40071206800F0DFFDDFF802
:1017C00090A1012140B12368C3F838A0A26B024365
:1017D000A26384F834107AE04FF0FF3001904FEAB2
:1017E0004B200290902003900220CDE9040706913F
:1017F0008846B94601A9206800F042FDBBF1010FFF
:1018000006D9022020633146206800F04BFE05E037
:10181000C4F830803146206800F05DFE30B12268A7
:10182000C2F838A0A16B0143A1634CE0029E1EE008
:10183000406B000413D596B10027206800F053FDDB
:1018400005F8010B010A05F8011B010C05F8021B44
:10185000000E361F7F1C05F8010C082FEDD3FFF793
:1018600017FA0099411A109881421DD2E0B1206800
:10187000426B40F22A310A42DAD0416BC90509D5E0
:10188000BBF1010F06D9616C032903D000F0CAFE39
:101890000028C4D12068416B09071AD5C0F838A0C8
:1018A000A06B40F0080051E02168C1F838A0A06B9F
:1018B00040F00040A06384F83480C4F830900320E6
:1018C00007B0BDE8F08F84F83480C4F83090012070
:1018D000F6E7416B890705D5C0F838A0A06B40F04A
:1018E000020033E0416B89061CD5C0F838A0A06B1C
:1018F00040F020002AE000BF00F0F5FC05F8010BE5
:10190000010A05F8011B010C05F8021B000E05F881
:10191000010C361FFFF7BCF90099411A109881425B
:101920000ED268B12068416B890201D5002EE3D147
:10193000216840F23A50886384F834800020BFE781
:101940002168C1F838A0A06B40F00040A063BAE75E
:10195000FF0540002DE9FF4F8DB016460D460446A9
:10196000FFF796F90B903DB194F83400012807D0A9
:10197000A06B40F000500DE0A06B40F0006009E06B
:101980000027A7631098E16D3044884204D9A06B0A
:1019900040F00070A0638BE0032084F834002068DE
:1019A000C762606C012800D076024FF40071206895
:1019B00000F0E4FCDFF864B1012140B12368C3F812
:1019C00038B0A26B0243A26384F8341070E04FF089
:1019D000FF30039010988946400204909020CDE992
:1019E0000507CDE90771BA4603A9206800F048FC55
:1019F0001098012806D9202020633146206800F085
:101A00002BFE05E0102020633146206800F03DFEEB
:101A10005FEA000806D02168C1F838B0A06B40EA40
:101A2000080071E0049E27E0406B40041CD5DEB145
:101A30005FF0000715F8010B009015F8011B361F29
:101A400040EA0120009015F8021B40EA0140009096
:101A500015F8011C40EA016000906946206800F01A
:101A600055FC7F1C082FE5D3FFF712F90B99411A9B
:101A70001A98814220D2F8B12068416B40F21A32A4
:101A80001142D1D0416BC90523D51099012920D924
:101A9000616C03291DD000F0C5FDD0B12268C2F8E9
:101AA00038B0A16B0143A16384F83490C4F830A02E
:101AB000012011B0BDE8F08F2168C1F838B0A06BEB
:101AC00040EA0800A06384F83490C4F830A00320F2
:101AD000EFE72068416B090705D5C0F838B0A06B67
:101AE00040F0080010E0416B890705D5C0F838B018
:101AF000A06B40F0020007E0416BC90606D5C0F8B4
:101B000038B0A06B40F01000A063CDE740F23A512E
:101B1000816384F834900020CBE70000FF0540008B
:101B2000704790F85100704770B5040005D000254B
:101B3000A56294F8510010B106E0012070BD84F850
:101B40005050204600F030F8022084F85100206800
:101B5000016821F040010160D4E901010843D4E9A2
:101B600003121143084361690843218B01F400719A
:101B70000843E1690843216A0843A16A08432168D0
:101B80000860A069042101EA1040616A08432168E5
:101B900048602068C16921F40061C1616565012068
:101BA00084F85100002070BD2DE9F04186B0064652
:101BB00014216846FEF74EFB2A49306888424ED110
:101BC00029480024016841F480510160006800F454
:101BD0008050059024481438016841F001010160EB
:101BE0000068694600F001000590E02000900220A6
:101BF000CDE9010403200390052004901B48FEF763
:101C000059FF1C4D1A484FF0C0672860C5E90174A0
:101C10004FF48068C5E903486C61AC61EC612C62EB
:101C200028466C62FEF792FE08B1FEF74EFCF564A2
:101C3000AE630F48104D7830E5E802074020A5E874
:101C400011010D4845F81449AC61EC612C626C62DD
:101C5000FEF77CFE08B1FEF738FCB564AE6306B053
:101C6000BDE8F081003001404438024000000240ED
:101C700010640240F0C1002050C200202DE9F84F4E
:101C8000044690F8500000271D4616468946012854
:101C90000DD04FF0010B84F850B0FEF7F9FF8046ED
:101CA00094F85100BA46012804D002278EE00220A1
:101CB000BDE8F88FB9F1000F7DD0002E7BD0032056
:101CC00084F85100C4F854A0C4F83090A686E68683
:101CD000C4F838A0A4F83CA0A4F83EA0C4F844A0DE
:101CE000C4F840A0A068B0F5004F04D12068016896
:101CF00041F48041016020680168490603D401680D
:101D000041F040010160E068B0F5006F606803D009
:101D100030B3012E24D040E008B1012E1CD1206B3D
:101D200021680088C86006E020688168890709D5B5
:101D3000216B0988C160206B801C2063E08E401EEF
:101D4000E08609E0FEF7A4FFA0EB0800A84202D35A
:101D5000681C01D031E07DB3E08E0028E4D11FE0A3
:101D6000206B21680078087306E020688168890785
:101D700009D5216B09780173206B401C2063E08E2C
:101D8000401EE08609E0FEF783FFA0EB0800A842B2
:101D900002D3681C01D010E075B1E08E0028E4D1B8
:101DA00042462946204600F09DFF08B1202060658C
:101DB000A06820B107E008E0FFE7032706E02068FD
:101DC000C16880680090606D00B1012784F851B04F
:101DD00084F850A038466BE72DE9F041044690F8AE
:101DE00050000026012809D0012784F8507094F88B
:101DF00051000025012804D0022649E00220BDE858
:101E0000F08189B182B1032084F8510065652163B6
:101E1000A286E286A56365642564A587E587A06838
:101E2000B0F5004F02D006E0012631E020680168DD
:101E300041F480410160A16C17480864A16C174807
:101E4000C863A16C1648C864A06C0565E38E22685F
:101E5000216B0C32A06CFEF7E3FD38B1606D40F0F1
:101E600010006065012684F8517011E02068016857
:101E7000490603D4016841F04001016020684168CF
:101E800041F0200141602068416841F00201416059
:101E900084F850503046B2E7752C00087F2C0008BB
:101EA000532C00087047704710B5401EB0F1807F7A
:101EB00001D3012010BD4FF0E02460610F216017B5
:101EC00001F0DAF80020A06107202061002010BD99
:101ED00070B590F83C20012A32D0012480F83C40B3
:101EE000022280F83D2003685A689D6822F070063F
:101EF0000A6832435A60134B02689A4214D0B2F116
:101F0000804F11D0104B9A420ED0104B9A420BD0FA
:101F10000F4B9A4208D00F4B9A4205D00E4B9A4273
:101F200002D00E4B9A4204D1496825F08003194330
:101F3000916080F83D40002180F83C10084670BD5B
:101F4000022070BD00000140000400400008004075
:101F5000000C004000040140004001400018004017
:101F600010B5040003D094F83D0010B107E0012043
:101F700010BD002084F83C00204600F00DF802203F
:101F800084F83D00211D206800F08CFF012084F8BA
:101F90003D00002010BD000008B5006806498842D9
:101FA00008D10648016841F010010160006800F0A6
:101FB0001000009008BD00000010004040380240B2
:101FC000022180F83D1001688A6802F00702062AA3
:101FD00003D00A6842F001020A60012180F83D1036
:101FE00000207047FEE700001D4808B5016841F475
:101FF00000110160016801F400110091016841F4D1
:10200000800101600068002200F480000090114609
:102010001020FEF7ABFE1020FEF79AFE00221146BC
:102020003820FEF7A3FE3820FEF792FE002211466C
:102030003B20FEF79BFE3B20FEF78AFE0022114666
:102040004420FEF793FE4420FEF782FE0022114654
:102050004520FEF78BFEBDE808404520FEF778BE20
:102060003038024010B504490448FEF72FFA0249FF
:10207000491E087010BD000065000010EC9C0008AF
:102080002DE9F04186B014216846FEF7E3F82E48AA
:102090000024016841F004010160016801F00401BD
:1020A0000591016841F080010160016801F0800143
:1020B0000591016841F001010160016801F0010131
:1020C0000591016841F008010160016801F0080113
:1020D0000591016841F00201016000681B4F00F0AA
:1020E0000200059001220E213846FEF7CBFDDFF8F5
:1020F000608000220E214046FEF7C4FD4FF40040F0
:1021000001258DE8310069463846FEF7D3FC0220F0
:102110000E26CDE90240CDE9006569463846FEF756
:10212000C9FC0096CDE90154694640460394FEF788
:10213000C1FC4FF4F8708DE8310069460548FEF7A0
:10214000B9FC06B0BDE8F08130380240000802401A
:1021500000000240000402400B480A494FF400729C
:1021600001604FF48271416000218160C1600161B2
:10217000C0E90512C1610162416281620A21C16246
:10218000FFF7D2BC0030014028BE0020FEE77047B8
:102190007047000A704700000249C0F30B00085C5A
:1021A00070470000E82C00200249C0F30A00085CD8
:1021B00070470000E8040020044A010B02EB810193
:1021C000C0F30B0051F8181C085C7047E8BC0020F5
:1021D0000249C0F30C00085C70470000E80C0020C6
:1021E000F0B5A0F58042204B204E214C214D00F04F
:1021F0000301182A32D2DFE802F00C0C0C0C0E0E90
:102200000E0E101010101212121231313131311520
:102210003127585CF0BD705CF0BD605CF0BD4819C2
:102220008078F0BDD9780020C90800D00120F1786D
:10223000C90800D0801CE178C90800D0001D697968
:10224000C908EED00830F0BD0B48017801B18021FB
:10225000407800B140200844C0B2F0BD074900F00A
:102260001F00085CF0BD00009C020020AC020020B2
:10227000BC02002038000010000000207800001090
:102280000A6842624A688262D1E902231A43D1E9AC
:1022900004310B43C16A1A4321F0F7011143C162B3
:1022A00000207047006800F0030070470844406950
:1022B000704770B50DF1100C11439CE8700023437A
:1022C000194329434268314347F6FF639A430A435F
:1022D0004260002070BD10B5032101600220FEF7AE
:1022E000D7FB002010BDD0F8800070470A688260DC
:1022F000D1E901231A43D1E903310B43C1681A43E1
:102300006FF30B011143C160002070470968C0F8EA
:1023100080100020704710B586B004463720CDE904
:10232000001040200290002003904FF48060049041
:1023300069462046FFF7DAFF41F28832372120460E
:1023400000F0BCF906B010BD10B504460A4886B0CE
:1023500001432920CDE90010402002900020039085
:102360004FF48060049069462046FFF7BFFF204687
:1023700000F05CFA06B010BD0000108010B586B009
:1023800004461020CDE90010402002900020039068
:102390004FF48060049069462046FFF7A7FF41F2A2
:1023A00088321021204600F089F906B010BD10B522
:1023B00086B004460620CDE900104020029000209F
:1023C00003904FF48060049069462046FFF78EFF2B
:1023D00041F288320621204600F070F906B010BDA7
:1023E00030B585B000240546009401944FF4806018
:1023F0000294CDE9034069462846FFF777FF0B4872
:102400004FF4FA510068B0FBF1F041F288314843D3
:10241000401E03D24FF0004005B030BD696B090685
:10242000F6D5C520A8632046F6E7000090000020FE
:1024300070B585B004464FF4D570009001A908200E
:102440004025002681E86100C001049069462046CD
:10245000FFF74CFF12484FF4FA510068B0FBF1F05F
:1024600041F288314843401E03D24FF0004005B08E
:1024700070BD616B11F0450FF5D00905F3D4606BA9
:10248000400701D5042003E0606BC00702D00120A3
:10249000A063ECE7606B400600D5A5633046E6E735
:1024A0009000002010B586B004461220CDE900103F
:1024B00040200290002003904FF480600490694611
:1024C0002046FFF713FF41F288321221204600F028
:1024D000F5F806B010BD10B586B004461120CDE960
:1024E000001040200290002003904FF48060049080
:1024F00069462046FFF7FAFE41F288321121204654
:1025000000F0DCF806B010BD10B586B00446072018
:10251000CDE9002040200290002003904FF480601D
:10252000049069462046FFF7E1FE41F28832072118
:10253000204600F0C3F806B010BD10B586B00446C2
:1025400000210220CDE90010C020CDE902014FF4A6
:102550008060049069462046FFF7C8FE204600F0E0
:102560003DF906B010BD10B586B004460920CDE98E
:102570000010C0200290002003904FF4806004906F
:1025800069462046FFF7B2FE204600F027F906B064
:1025900010BD10B586B0044600213320CDE90010EF
:1025A0004020CDE902010001049069462046FFF772
:1025B0009DFE41F288323321204600F07FF806B0BC
:1025C00010BD10B586B004460D20CDE900104020A6
:1025D0000290002003904FF48060049069462046EA
:1025E000FFF784FE41F288320D21204600F066F8A4
:1025F00006B010BD30B585B00C460546002103205D
:10260000CDE900104020CDE90201000104906946A7
:102610002846FFF76BFE22460321284600F028F9E2
:1026200005B030BD10B586B0044600210C20CDE9C0
:1026300000104020CDE902010001049069462046C7
:10264000FFF754FE034A0C21204600F037F806B08D
:1026500010BD000000E1F50510B586B00446192054
:10266000CDE9001040200290002003904FF48060DC
:10267000049069462046FFF739FE41F2883219215D
:10268000204600F01BF806B010BD10B586B0044619
:102690001820CDE9001040200290002003904FF454
:1026A0008060049069462046FFF720FE41F28832A0
:1026B0001821204600F002F806B010BD454B10B5B9
:1026C0001B684FF4FA54B3FBF4F353435B1E02D27E
:1026D0004FF0004010BD426B12F0450FF6D01205CE
:1026E000F4D4426B520703D504218163084610BD20
:1026F000426BD20702D00121816305E0C5228263CB
:102700000269D2B28A4201D0012010BD0021FFF738
:10271000CDFD3149084201D1002010BD002802DA68
:102720004FF0007010BD410001D5402010BD810068
:1027300001D5802010BDC10002D54FF4807010BDBE
:10274000010102D54FF4007010BD410102D54FF4D4
:10275000806010BDC10102D54FF4006010BD0102C0
:1027600002D54FF4805010BD410202D54FF4005005
:1027700010BD810202D54FF4804010BDC10202D5C8
:102780004FF4004010BD410302D54FF4003010BD9E
:10279000810302D54FF4802010BDC10302D54FF450
:1027A000002010BD010402D54FF4801010BD41047B
:1027B00002D54FF4001010BD810402D54FF4800003
:1027C00010BD000702D54FF4000010BD4FF480305B
:1027D00010BD00009000002008E0FFFD12494FF4FA
:1027E000FA520968B1FBF2F141F288325143491EB5
:1027F00002D24FF000407047426B12F0450FF6D006
:102800001205F4D4416B490703D5042181630846BE
:102810007047416BC90703D00121816308467047A7
:10282000C521816300207047900000200F494FF4BC
:10283000FA520968B1FBF2F141F288325143491E64
:1028400002D24FF000407047426B12F0450FF6D0B5
:102850001205F4D4416B490703D50421816308466E
:102860007047C52181630020704700009000002060
:1028700030B5204B4FF4FA541B68B3FBF4F341F22C
:10288000883463435B1E02D24FF0004030BD446B7E
:1028900014F0450FF6D02405F4D4436B5B0703D541
:1028A00004218163084630BD436BDB0702D0012160
:1028B000816303E00369DBB28B4201D0012030BDAC
:1028C000C52181630021FFF7F1FC10F4604F04D0B3
:1028D000410406D54FF4005030BD000C108000209C
:1028E00030BD000402D54FF4805030BD4FF480302D
:1028F00030BD00009000002010B5064C0120207073
:10290000FDF7F2FC18B9207820F001002070207843
:1029100010BD0000940000202DE9F04F89B00D4655
:102920000446FEF7B5F90026834600960196374621
:1029300008212068FFF722FD002834D1B4F85000A8
:1029400001042068FFF7E7FC00282CD1401E4FF05F
:102950000808CDE9020830204FF00209CDE904094A
:102960000120CDE9067002A92068FFF789FC2068E4
:10297000FFF70FFE002816D1EA4640F22A472068EA
:10298000416B394212D1416B890204D5FFF7ABFC90
:102990004AF82600761CFEF77BF9A0EB0B00401CE2
:1029A000EDD14FF0004009B0BDE8F08F416B090751
:1029B00003D5C0F838800820F5E7416B890703D5B7
:1029C000C0F838900220EEE7416B890603D520213C
:1029D00081630846E7E740F23A518163019800BA03
:1029E0002860009800BA68600020DCE710B590B05D
:1029F00004460120ADF838002068FFF753FC00289A
:102A000054D0606C032842D02068FFF796FD002860
:102A10004AD100212068FFF749FC60670421206843
:102A2000FFF744FCA06708212068FFF73FFCE06740
:102A30000C212068FFF73AFCC4F88000606C032882
:102A400025D00EA92068FFF7D5FD00282CD1606C99
:102A500003281CD0BDF83800206501042068FFF76A
:102A600082FD002820D100212068FFF71FFC60664E
:102A700004212068FFF71AFCA06608212068FFF7F0
:102A800015FCE0660C212068FFF710FC206704218C
:102A90002068FFF70BFC000DE06403A92046FEF759
:102AA00089FC30B14FF0805010B010BD4FF0806005
:102AB000FAE7B4F85000002302042068FFF724FD71
:102AC0000028F1D104F1100007C88DE8070094E850
:102AD0000F00FFF7EEFB0020E6E700002DE9F84FBE
:102AE0000026044600963546B0460068FFF778FC9D
:102AF000002827D12068FFF79BFC4FF0805B4FF048
:102B000001094FF6FF7748B1A6642068FFF768FC1B
:102B1000002817D1A06C012802D020E0C4F848900A
:102B200000212068FFF7F7FB58B918E00021206862
:102B3000FFF7F1FB002805D151462068FFF704FCA0
:102B400010B15846BDE8F88F00212068FFF7AEFBB2
:102B500005464FEAD0780098401C009002E0DFF86C
:102B60002CA00098B84202D2B8F1000FDED0009835
:102B7000B84202D34FF08070E4E7680002D5C4F891
:102B8000449000E066640020DCE70000000010C113
:102B900070B5064C054601202070FDF7B1FB18B951
:102BA0002846FFF7A9FE2070207870BD9400002011
:102BB00010B5124888B014460078C00702D0032030
:102BC00008B010BDC1B1012905D0022908D00329E0
:102BD0000CD00420F4E76846FDF780FB06980AE075
:102BE0006846FDF77BFB0798208005E06846FDF707
:102BF00075FB0798400A20600020E1E79400002060
:102C000070B51D46164608460124A31E2A463146C5
:102C1000FDF796FB28B900BFFDF766FB0028FBD146
:102C20000024204670BDFFF767BE000070B51D464A
:102C3000164608460124A31E2A463146FDF790FB9E
:102C400028B900BFFDF750FB0028FBD10024204627
:102C500070BD10B5806B01684A6822F003024A60BB
:102C6000416D41F010014165012180F85110FEF7DE
:102C700057FF10BD10B5806BFFF715F910BD38B5C3
:102C80000546846BFEF704F8024628680068C00514
:102C900023D42068416821F0200141602068416808
:102CA00021F0020141606421204600F01BF818B1B8
:102CB000606D40F020006065A068002118B92068B0
:102CC000C26880680090E186012084F85100606D40
:102CD00018B12046FEF724FF38BD2046FFF7E2F882
:102CE00038BD000038B504461248134B0068B0FBED
:102CF000F3F04FF47A73584300906068B0F5827F28
:102D00000DD10B46009200228021204600F016F8DB
:102D100070B1606D40F020006065032038BD009800
:102D200030B1401E009020688068C0430006F6D590
:102D3000002038BD9000002000366E012DE9F041E2
:102D40001D4617460E460446DDF8188008E0681C4C
:102D500006D0FDF79DFFA0EB0800A8420BD255B1AD
:102D60002068806836EA000030D00020B842EED1FA
:102D70000020BDE8F0812068416821F0E001416059
:102D80006068B0F5827F0BD1A068B0F5004F02D02B
:102D9000B0F5806F04D12068016821F04001016026
:102DA000A06AB0F5005F09D12068016821F40051E4
:102DB00001602068016841F400510160012084F83D
:102DC0005100002084F850000320D2E70120CDE715
:102DD000704700000749087800280AD048788A78A8
:102DE000401CB0FBF2F302FB1300C0B2487004F0C9
:102DF00077BB7047000000107047FDF74FBF000021
:102E000030B593B030216846FDF724FA14210CA8A0
:102E1000FDF720FA1A480025016841F08051016051
:102E2000006800F0805011901648016841F480411C
:102E300001600068022400F480401190012000909D
:102E4000000401908001CDE90640082008904FF46D
:102E5000A870CDE9090407200B906846FEF782F8B8
:102E60000CA90F2081E831004FF4A0500F90E00230
:102E7000109005210CA8FDF7ABFF13B030BD00008A
:102E800040380240007000400548016841F470017C
:102E9000016003494FF0006080390860704700000E
:102EA00088ED00E0F0B50268254C264D264E274FF0
:102EB000274B4FF0804CA04209D0604507D0A84274
:102EC00005D0B04203D0B84201D0984204D122F0DC
:102ED000700E4A6842EA0E02A0421BD0604519D02B
:102EE000A84217D0B04215D0B84213D0984211D0A2
:102EF000184DA8420ED0184DA8420BD0174DA8422D
:102F000008D0174DA84205D0164DA84202D0164D44
:102F1000A84203D122F44075CA682A434D6922F0C1
:102F200080022A4302608A68C2620A688262A04202
:102F300001D0984201D10969016301214161F0BDCD
:102F4000000001400004004000080040000C004068
:102F5000000401400040014000440140004801409D
:102F600000180040001C004000200040FEE77047B1
:102F7000024AC0F30B00115470470000E82C0020F7
:102F8000024AC0F30A00115470470000E804002010
:102F9000024AC0F30C00115470470000E80C0020F6
:102FA000F0B4A0F58047244B244C254D254E00F06D
:102FB0000302182F3BD2DFE807F00C0C0C0C1010AA
:102FC0001010161616161C1C1C1C3A3A3A3A3A23D4
:102FD0003A3199541146184802E0A1541748114655
:102FE000F0BC05F041BDA954F0BC1146144805F0F1
:102FF0005FBD90198170F0BC1146124805F016BDF6
:1030000001F001001871C1F340002071C1F380008C
:103010002871C1F3C000B071F0BC70470A48CA09FA
:10302000C1F380110270417000218170F4E7074AFA
:1030300000F01F001154EFE79C020020AC020020BA
:10304000BC020020380000100000002078000010B2
:103050000FB4084B10B504A902AA039800F02BF88E
:10306000044602A9002000F091F8204610BC5DF84B
:1030700014FB00008D3100080907090E002804DB4D
:1030800000F1E02080F80014704700F00F0000F11C
:10309000E02080F8141D704702E008C8121F08C124
:1030A000002AFAD170477047002001E001C1121FC9
:1030B000002AFBD170472DE9F84F99469246884681
:1030C0000546002706E025280AD051464A46904783
:1030D0006D1C7F1C28780028F5D13846BDE8F88F94
:1030E000002315F8011F18462E2915D115F8011FC8
:1030F00004232A290DD06FF02F022978A1F1300482
:10310000092C09D800EB800002EB400008446D1C3C
:10311000F3E758F8040B6D1C2A78002ADDD0632AE7
:1031200007D0732A0FD0104651464A4690477F1C5D
:103130002AE018F8042B8DF8002000218DF80110EA
:103140006E46012103E058F8046B4FF0FF315A0737
:103150004FF0000401D409E0641C84420BDA8C4275
:10316000FADB325D002AF7D105E0641C8C42FCDBFF
:10317000305D0028F9D1274404E016F8010B5146D0
:103180004A469047641EF8D26D1CA3E70A68531C98
:103190000B6010707047000010B504460020E0700E
:1031A000401E2063204604F02BFD08B1042010BD12
:1031B00004F2322004F020FAA0F52A41553901D05A
:1031C000032010BD94F83400E92805D0EB2814D171
:1031D00094F83600902810D104F16A0004F001FA46
:1031E0000749B1EB002F06D004F1860004F0F9F98D
:1031F0000449884201D1002010BD022010BD00000A
:103200000046415446415433F0B50022144D134654
:1032100005EB021426685EB10768BE4209D16668F4
:103220008768BE4205D1A4684669B44204D000E074
:103230000123521C022AEBD3022A01D069B904E00F
:103240004BB9022907D01220F0BD05EB021080898E
:10325000B0F5807F01D00020F0BD1020F0BD00004F
:10326000C416012030B50021054B0C4603EB0112BA
:103270001568854200D11460491C0229F6D330BD7F
:10328000C41601200268C06A938952895343B1FB76
:10329000F3F1001D04C81AB1914203D3891AF8E76B
:1032A00000207047006808447047000010B50F4CBC
:1032B0000F48A17800F03CF8A1780E4800F038F8EB
:1032C000A1780D4800F04CF8A1780C4800F018F8EF
:1032D000A0782178401C09B1052100E00421B0FB51
:1032E000F1F201FB1200A07010BD000000000020F0
:1032F0009C020020AC020020BC020020380000101C
:10330000094A0A4B127802EB820203EB4202114493
:103310004979002907D0817B002904D08278920660
:1033200001D4491E8173704700000020408C0008C2
:10333000094A0A4B127802EB820203EB4202114463
:103340004979002907D0817B002904D002789206B0
:1033500001D4491E8173704700000020408C000892
:10336000124A127802EB8203114A02EB4302535CC9
:1033700073B1037C1BB1037803F07F0302E0C37BCE
:103380000BB15B1EC37303781B0601D400230374C7
:1033900011444979002907D0817B002904D00278A3
:1033A000120601D4491E81737047000000000020FE
:1033B000408C00088269891E921E8A4201D8002032
:1033C0007047C26A408901FB002070472DE9F04137
:1033D00005680F00804606D003F0D4FE022809D20B
:1033E0000120BDE8F0812E6916B1A869B04207D866
:1033F000012605E0411CF4D0A9698142F1D83E467E
:103400003446A869641CA04202D80224022E0AD3C2
:103410002146404603F0B6FE38B10128E1D0411CF8
:10342000DFD0B442EDD10020DBE74FF0FF3632466B
:103430002146284604F0FEFC30B957B122463946F1
:10344000284604F0F7FC20B101280FD001242046C3
:10345000C7E72C61D5E90501891E884201D8401EC5
:103460006861287940F001002871F0E73446EEE702
:103470002DE9F0410E4624300D6804460B22202130
:1034800004F044FB0020014608272A5C401C202A47
:1034900012D92F2A0BD05C2A09D02E2A01D0B9428A
:1034A00014D30B2F22D02E2A20D10CE0401C2B5CF1
:1034B0002F2BFBD05C2BF9D028443060B1B12078A1
:1034C000E5281FD020E008210B27DEE7802A03D360
:1034D000114B1A4412F8802C10A300E05B1C93F8E7
:1034E00000C0BCF1000F04D09445F7D10620BDE820
:1034F000F081A2F16103192B01D8203AD2B26254B3
:10350000491CC2E705202070202A01D8042000E0D1
:103510000020E0720020EAE7009D0008222A2B2C00
:103520003A3B3C3D3E3F5B5D7C7F0000401E0228F5
:1035300012D20A4901EB00118889B0F5807F05D0CD
:1035400008B1401E80B2888110B103E00020FAE784
:10355000002008600020704702207047C416012038
:103560002DE9F04104460021056800F00FF900281C
:1035700026D12846E16904F043FB02001FD1206AEE
:10358000017899B1C17A01F03F01A171C17A0907AF
:103590000FD404F124010B2610F8013B11F8017B34
:1035A000DB1B761E04D0002BF6D002E0042206E0DE
:1035B0002BB10021204600F005F80200D9D01046BA
:1035C000BDE8F0812DE9F047054647690468C06908
:1035D0008946203710B1B7F5001F02D30420BDE89B
:1035E000F087A189B7FBF1F201FB127100295FD1CD
:1035F000401CE861A9694FF0000819B3A0896289ED
:10360000B7FBF0F0521E104252D1284603F0BAFD2B
:10361000064601281FD9701C36D0A069B04241D897
:10362000B9F1000F12D02846A969FFF7CFFE0600B6
:103630000FD0012E0FD0701C26D0204604F01CFEA7
:1036400010BB0AE02089B0EB571F31D8C5F81C80A9
:10365000C4E70720C3E70220C1E7A289002104F1E3
:10366000340004F053FA4FF0000831462046FFF7CB
:10367000A1FE4FF0010920630DE000BF84F8039024
:10368000204604F0F9FD08B10120A8E7206B08F1FD
:103690000108401C206361894145EFD8216BA1EBF3
:1036A0000800206331462046AE61FFF783FEE861E3
:1036B0006F61A089B7FBF0F100FB1170204434303A
:1036C000286200208BE770B504460E46042025686A
:1036D00021E0284604F094FA10BB226A1178B1B1B7
:1036E000D27AE52902F03F02A2710AD02E2908D031
:1036F0000F2A06D022F0200108290AD00021B14269
:1037000010D000212046FFF75DFF20B108E0042023
:1037100006E00121F3E7E1690029DAD1002801D0B0
:103720000021E16170BD70B504460021066800F01B
:103730002DF80DE03046E16904F062FA50B9206AD4
:103740000078E52809D040B101212046FFF73AFF73
:103750000028EFD0042807D007E03046E16904F0E4
:103760004FFA050003D00FE0072005460CE02022A9
:103770000021206A04F0CAF90B2204F12401206A16
:1037800004F0BAF90120F070284670BD2DE9F0412F
:1037900004680F460646B1F5001F3CD2F8063AD140
:1037A0007761B56825B92078032806D3A56A25B1C5
:1037B0006089A18900FB01F812E02089B0EB571F56
:1037C00029D9A06A12E0304603F0DCFC0546401C13
:1037D0001FD0022D1FD3A069A8421CD9A7EB080750
:1037E00047452946EFD22046FFF7E4FDC6E90650DB
:1037F00088B1A189B7FBF1F10844F061A089B7FB5A
:10380000F0F100FB11702044343030620020BDE83C
:10381000F0810120FBE70220F9E70000084910B51C
:103820000B5C002253B901220A540A1801EB8000F4
:10383000127A40680168104688470246104610BD5B
:10384000E416012030B4054C231804EB80001B7AE9
:10385000406804691846A44630BC6047E41601205D
:1038600030B4054D2C1805EB8000247A406885683B
:103870002046AC4630BC6047E4160120044A1118CB
:1038800002EB8000097A4068426808461047000051
:10389000E416012030B4054D2C1805EB8000247A85
:1038A0004068C5682046AC4630BC6047E41601203D
:1038B0002DE9F14F9C4E82B0F07A01280DD0357A77
:1038C00096F809B096F8058096F8069096F807A045
:1038D000748AF06A009002F0A2BF0020BDE8FE8F5B
:1038E000A0B2924F010B044657F8211088470146B9
:1038F000F0738F4A641CF36A525CA0B21A44044607
:10390000F262802902F05D8602DC8029E3D200E0C9
:1039100004E18A007A44526897440000C00A00001B
:10392000681400000C2D0000D61C0000A62C00001E
:103930008A14000074090000101D000040050000FA
:10394000A21400004C090000DC2E0000AE2C000088
:10395000B014000094090000461D00005604000049
:10396000E41400000C2D0000881D0000A62C0000AF
:103970001E150000DE090000EC1D00002004000000
:1039800030150000022F00002C1E0000B82C000093
:10399000601500000C0A0000881E00009210000054
:1039A000FC0700000C2D0000E21E0000600A000071
:1039B0001E080000D01500000C1F00004C05000080
:1039C00040080000B2150000DC2E00007C0A000058
:1039D0004E080000FC1500004A1F0000840400008F
:1039E000820800000C2D0000AE1F0000A62C000075
:1039F000BC0800004E1600000C2000002804000047
:103A0000D8080000022F000050200000B82C000051
:103A10000809000082160000B0200000E417000032
:103A2000D80D00000C2D000014210000A62C000071
:103A3000FA0D0000A21300003E2100005C0500000A
:103A4000120E00009C130000F62B00002410000052
:103A5000200E0000C0130000702100009C04000034
:103A6000560E00000C2D0000D0210000A62C0000F6
:103A7000900E0000FA130000202200003004000025
:103A8000A20E0000022F00005E220000B82C0000F1
:103A9000D20E0000261400008E220000081800003C
:103AA000B40500000C2D0000E6220000A62C00004A
:103AB000E2050000E4160000102300006C05000081
:103AC0001E060000C8160000102C00004C1000005C
:103AD0002E0600001017000074230000B804000038
:103AE0006A0600000C2D0000EE230000022F0000EB
:103AF000CE0600005A1700006A24000038040000B7
:103B000016070000022F0000D8240000B82C000087
:103B100086070000901700001425000081397F29D6
:103B200082F07D8606E000000000001010BD00203D
:103B3000748C00088A0000BF7A44526897440000E1
:103B4000E8180000822A000062230000501A0000DA
:103B50000A190000F019000098230000000B000073
:103B6000822A000058030000162A0000641A000090
:103B70001E190000081A0000C0230000B002000057
:103B800056190000E82A00000E2C0000901A0000D0
:103B90007C190000341A0000FE23000068030000B6
:103BA000981900006C030000FE2A0000542B00004E
:103BB000C2190000A82B00005C2C0000C8100000F7
:103BC000B20E00001810000026240000D2100000E1
:103BD000D40E0000221000005624000070030000E4
:103BE000EC0E00007E030000322A0000E810000006
:103BF000FA0E0000381000006C240000CA02000019
:103C00002C0F0000E82A0000A2240000161100007A
:103C1000740F000066100000F42400001C02000075
:103C2000860F000082030000062D0000281100000E
:103C3000D20F000078100000102500009E0A00003E
:103C4000F4080000822A00005E250000A80A000097
:103C500020090000060B0000982500000C0D000054
:103C600042090000F80A0000522A0000BC0A0000C5
:103C7000500900001A0B0000D6250000E6020000E3
:103C800084090000E82A000034260000822A00008F
:103C9000BE0900005C0B0000842600002402000026
:103CA000D0090000DE2C0000CC260000942A000081
:103CB000000A00007A0B00000E270000480A0000EE
:103CC00006160000822A000060270000520A000049
:103CD0006C160000200D000096270000F80C000074
:103CE000BC160000DE2C0000BC160000660A0000B6
:103CF000D4160000420D00000A2800000003000056
:103D00003A170000E82A00008A280000822A0000F2
:103D100088170000880D0000BE2800002C0200005B
:103D2000DA170000DE2C00002A290000942A000087
:103D300060180000B40D00005C29000025F00105AA
:103D4000C9E500BF45F00105C5E500BF25F0040544
:103D5000C1E500BF45F00405BDE500BF25F0400505
:103D6000B9E500BF25F00805B5E500BF45F0080539
:103D7000B1E5010B57F821108847B0730146601C6C
:103D800084B244FA81F080B2290620E0010A220AB6
:103D9000914261D00221F26A04461144F1629AE52F
:103DA000010B57F821108847641CB073A4B244FA81
:103DB00080F080B2290618E0010B57F821108847DF
:103DC000641CB073A4B244FA80F080B26906002982
:103DD000B6DBDBE7010B57F821108847641CB07392
:103DE000A4B244FA80F080B269060029A8DACDE7CF
:103DF000010B57F821108847641CB073A4B244FA31
:103E000080F080B2E9079BD1C0E7010B57F8211081
:103E10008847B0730146601C84B244FA81F080B2D6
:103E2000E9078DD0B2E7010B57F821108847B0732E
:103E30000146601C84B244FA81F080B2A907C6E74B
:103E4000010B57F821108847641CB073A4B244FAE0
:103E500080F080B2A907C8E701219CE7B26A45F06B
:103E6000300102F80B100AE00BF10100B16A00F01A
:103E7000FF0B11F80B502EE5B26A02F80B80ABF184
:103E8000010000F0FF0B26E50BF10100B16A00F024
:103E9000FF0B11F80B8000E0C846FA4925F08205B7
:103EA00011F8080002F0BABCD046F6E7CB4612E59E
:103EB000F449C24625F0820511F80A00F2E7C1462E
:103EC00000E0D946EF4925F0820511F80900E9E73D
:103ED000010B57F8211088474844EB49C0B2641CD5
:103EE0000A5CA4B2401C51FA80F0007842EA00203B
:103EF000010B57F821108847B0730246F6E0010B1A
:103F000057F82110884781B2DF4805F00102DD4BE8
:103F1000415CB17308EB01001044C0F30722C0B24A
:103F2000641C1B5C88EA01071A4380EA0803BB4350
:103F30004021A4B201EA530175E0010B57F82110AA
:103F40008847641CB073A4B23BE0D049020B51F81F
:103F5000221088470746601C82B2C0F30331CB4869
:103F600050F821101046884747EA0020C749020B45
:103F700051F822108847A41CB073A4B27DE000BFA2
:103F800005F00C03F4E3010B57F821108847BE49F4
:103F9000B0730A5C401C51FA80F00078641C42EA5D
:103FA000002101EB0A0080B2020A090AA4B28A4287
:103FB00002D0F16A491CF162010B57F821108847C1
:103FC000B07308EB000105F001021144C1F30722B0
:103FD000AC4BC9B288EA00075B5C1A4381EA08036C
:103FE000BB43402000EA5300CAE7010B57F82110F9
:103FF00088474844A449C0B205F00102095CA14BBE
:1040000008EB01001044C0F30722C0B2B1731B5C7F
:10401000641C1A4380EA080788EA01039F43402191
:10402000A4B201EA570105F00C0319430A431546EF
:10403000FEE39649020B51F8221088470746601CA0
:1040400082B2C0F30331914850F8211010468847DE
:1040500047EA002101EB0A0080B2A41CC1F307214A
:10406000020AA4B2914202D0F16A491CF162874966
:10407000020B51F822108847B07308EB000105F0DD
:1040800001021144C1F307227E4BC9B281EA08073D
:104090005B5C1A4388EA00039F43402000EA570014
:1040A0006EE77A49020B51F8221088470746601CD8
:1040B00082B2C0F30331754850F82110104688478A
:1040C00047EA002101EB090080B2A41CC1F30721DB
:1040D000020AA4B2914202D0F16A491CF1626B4912
:1040E000020B51F8221088470246B07308EB020019
:1040F00005F001010844C0F30723C1B2614881EA19
:104100000807405C034388EA02008743402000EA36
:10411000570005F00C02FDE3010B57F8211088470A
:1041200048445949C0B2641C0A5CA4B2401C51FA0C
:1041300080F0007842EA00204AE0010B57F8211095
:10414000884781B25048405C0CE000BF08EA00019B
:1041500002F00CBA25F0820502F05DBB010B57F8A6
:1041600021108847B073641C17E04849020B51F8CE
:10417000221088470746601C82B2C0F303314348CF
:1041800050F821101046884747EA00203F49020BAB
:1041900051F822108847B073A41CA4B2D6E7010BD3
:1041A00057F8211088473849B0730A5C401C51FA0F
:1041B00080F00078641C42EA002101EB0A0080B222
:1041C000020A090AA4B28A4202D0F16A491CF162C9
:1041D000010B57F8211044E0010B57F821108847D4
:1041E00048442949C0B2641C095CB173A4B208EA0E
:1041F0000108AFE72549020B51F82210884707460E
:10420000601C81B2C0F30332204850F822200846D7
:10421000904747EA002101EB0A0016E0F16A491CC9
:10422000F1621AE01949020B51F82210884707463B
:10423000601C82B2C0F30331144850F821101046BC
:10424000884747EA002101EB090080B2A41CC1F3B2
:104250000721020AA4B29142E0D10C49020B51F8A5
:1042600022108847B07371E74FEA4801C1F3072075
:10427000044AC9B2525C104325F0830240EA0205A9
:10428000F3E30000748D0008E804002010BD002056
:10429000010B57F821108847FD4B0246641C985CBF
:1042A000A4B24000070AC1B2FA48405C3843FAE3BE
:1042B000F949020B51F8221088470746601C82B268
:1042C000C0F30331F44850F821101046884747EAFC
:1042D0000020A41CF049020B074651F82210A4B29A
:1042E00088474100C1F30720EA4AC9B2525C104333
:1042F00025F0830240EA0205FEE3010B57F8211086
:10430000884700EB090161F30700E14982B2641CB0
:10431000885CE04F4000030AC0B225F083053F5C93
:10432000A4B23B431D43E8E3DB49020B51F82210E2
:1043300088470746601C82B2C0F30331D64850F864
:1043400021101046884747EA0020484487B2A41C41
:10435000D148390BA4B250F82110384688474000A4
:10436000C0F30722C1B2CB48405C01F05BBBCA4A34
:10437000030B403252F8232002F0E7B9010B57F843
:104380002110884781B2C248641C405CB0731BE0B6
:10439000002087E5022085E5BF49020B51F8221075
:1043A00088470746601C82B2C0F30331BA4850F810
:1043B00021101046884747EA0020B749020B51F800
:1043C00022108847B073A41C25F0C20500F0C0017C
:1043D0000D43A4B218EA000FDCD0D9E7317B0029E5
:1043E00042F01D82B26A601CABF10101030AC9B23E
:1043F00002F80B305054491EC8B245F03001115438
:10440000401E00F0FF0BF96B45F004054FF6FE70FF
:1044100088470446F96B4FF6FF70884744EA00204E
:10442000010B044657F8211088470028D8D10120F5
:1044300002F003B9010B57F8211088474844C1B274
:104440009348641CA4B2425C491C50FA81F0007885
:1044500042EA00204FE00D43C1B28E48405C21E5A6
:10446000010B57F82110884781B28948405C0CE065
:10447000A8EB000080B225F08305010A7ED0002160
:10448000E9E7010B57F821108847B073641C17E067
:104490008149020B51F8221088470746601C82B2FE
:1044A000C0F303317C4850F821101046884747EA92
:1044B00000207949020B51F822108847B073A41CE0
:1044C000A4B2D5E7010B57F8211088477049B073A3
:1044D0000A5C401C51FA80F00078641C42EA00211A
:1044E00001EB0A0080B2020A090AA4B28A4202D091
:1044F000F16A491CF162010B57F8211041E0010BF0
:1045000057F82110884748446149C0B2085CBCE7AD
:104510006149020B51F8221088470746601C82B29D
:10452000C0F303315C4850F821101046884747EA31
:10453000002101EB0A0016E0F16A491CF1621AE061
:104540005549020B51F8221088470746601C82B279
:10455000C0F30331504850F821101046884747EA0D
:10456000002101EB090080B2A41CC1F30721020A5B
:10457000A4B29142E0D1020B474900E05AE051F861
:1045800022108847B07373E7010B57F82110884752
:1045900006E0010B57F82110884781B23C48405C87
:1045A000B073641C17E03C49020B51F82210884795
:1045B0000746601C82B2C0F30331374850F821101F
:1045C0001046884747EA00203349020B51F8221071
:1045D0008847B073A41CA4B2A9EB00004AE7010B02
:1045E00057F82110884706E0010B57F8211088473B
:1045F00081B22748405CB073641C17E02649020B67
:1046000051F8221088470746601C82B2C0F303317C
:10461000214850F821101046884747EA00201E49DB
:10462000020B51F822108847B073A41CA4B2AAEB65
:1046300000001FE701210EE7A9F10100FEE000BF25
:10464000AAF1010004E1010B57F821108847104A34
:10465000641CA4B2115C491E0BE10F49020B51F816
:10466000221088470746601C82B2C0F303310A4813
:1046700050F821101046884747EA0027A41C064836
:10468000390BA4B250F8211038468847401E12E179
:10469000E8040020748D000810BD0020010B57F8BD
:1046A0002110884700EB090161F3070082B2FE4840
:1046B000641CA4B2815C491E14E1FC49020B51F850
:1046C000221088470746601C82B2C0F30331F748C6
:1046D00050F821101046884747EA0020484487B226
:1046E000A41CF248390BA4B250F821103846884770
:1046F000401E1DE1010B57F8211088474844EA4944
:10470000C0B2641C0A5CA4B2401C51FA80F000786C
:1047100042EA002046E0010B57F82110884781B299
:10472000E148405C07E000BF88EA000110E5010BAA
:1047300057F821108847B073641C17E0DB49020B5F
:1047400051F8221088470746601C82B2C0F303313B
:10475000D64850F821101046884747EA0020D34930
:10476000020B51F822108847B073A41CA4B2DBE7F7
:10477000FAE3010B57F821108847CB49B0730A5C64
:10478000401C51FA80F00078641C42EA002101EBE1
:104790000A0080B2020A090AA4B28A4202D0F16A6F
:1047A000491CF162010B57F821103FE0010B57F84B
:1047B000211088474844BC49C0B2085CBBE7BB49EC
:1047C000020B51F8221088470746601C82B2C0F3E2
:1047D0000331B64850F821101046884747EA0021B7
:1047E00001EB0A0016E0F16A491CF1621AE0AF49D8
:1047F000020B51F8221088470746601C82B2C0F3B2
:104800000331AA4850F821101046884747EA002192
:1048100001EB090080B2A41CC1F30721020AA4B273
:104820009142E0D1A149020B51F82210884700E0E3
:104830005BE3B07378E700BF09F1010000F0FF0906
:1048400025F082059A4810F80900A2E50AF1010056
:1048500000F0FF0A964825F0820510F80A0098E556
:10486000010B57F8211088478F4A641CA4B2115CD1
:10487000491C8F4BC9B2B1735B5C25F082051D43A7
:10488000D3E38A49020B51F8221088470746601C7F
:1048900082B2C0F30331854850F821101046884792
:1048A00047EA0027A41C8148390BA4B250F8211014
:1048B00038468847401CC1B27D48B17325F0820557
:1048C000405C054301F07DBD010B57F8211088477E
:1048D00000EB090161F3070082B27348641CA4B2C3
:1048E000815C491C724BC9B2B1735B5C25F08205D7
:1048F0001D43FCE36D49020B51F82210884707461F
:10490000601C82B2C0F30331684850F82110104691
:10491000884700E0ECE347EA0020484487B2A41C43
:104920006248390BA4B250F8211038468847401C21
:10493000C1B25F48B17325F08205405C05431EE2B9
:104940005A49020B51F822108847641C5749C4F396
:104950000332074651F82210A0B2884747EA0020E8
:1049600084B2002001F05EBE5049020B51F82210C3
:1049700088470746601C82B2C0F303314B4850F8A9
:1049800021101046884747EA00274848390B50F85D
:1049900021103846884760F30704781C60F3070746
:1049A000B8B24249020B51F822108847B7E3002100
:1049B000B1733E49020B51F8221088470746601C2C
:1049C00082B2C0F30331394850F8211010468847AD
:1049D00047EA0021B26A641CABF10100230AC0B2AD
:1049E00002F80B301454401E00F0FF0B0C4601F08F
:1049F00016BF010B57F82110884748442A49C0B216
:104A0000641C0A5CA4B2401C51FA80F0007842EAAF
:104A1000002044E0010B57F82110884781B222485A
:104A2000405C07E08046F0E3085CB2E4010B57F815
:104A300021108847B073641C15E0020BB84657F884
:104A4000221088470746601CC0F3033182B258F831
:104A500021101046884747EA0020020B58F8221020
:104A60008847B073A41CA4B2DCE7D2E3010B57F86B
:104A7000211088470C49B0730A5C401C51FA80F041
:104A80000078641C42EA002101EB0A0080B2020AAD
:104A9000090AA4B28A4202D0F16A491CF162010BF0
:104AA00057F8211055E033E2E804002010BD002043
:104AB000748D0008010B57F8211088474844FF49BE
:104AC000C0B2085CB6E7020BB84657F82210884718
:104AD0000746601CC0F3033182B258F8211010461B
:104AE000884747EA002000EB0A01A41C89B2A4B25F
:104AF000C0F307200A0A01E00BE1D5E2904202D0A0
:104B0000F06A401CF0620A0B084658F822209047D1
:104B100020E0020BB84657F8221088470746601C71
:104B2000C0F3033182B258F821101046884747EA93
:104B3000002101EB090080B2A41CC1F30721020A85
:104B4000A4B2914202D0F16A491CF162020B58F8FA
:104B500022108847B07365E7010B57F8211088478A
:104B600006E0010B57F82110884781B2D348405C1A
:104B7000B073641CA4B242E0020BB94657F822108D
:104B800088470746601CC0F3033281B259F82220DF
:104B90000846904747EA0020020B59F82210884740
:104BA000B073A41CE6E7010B57F821108847504466
:104BB000C249C0B2085CDBE7020BB94657F82210C5
:104BC00088470746601CC0F3033182B259F82110B0
:104BD0001046884747EA002000EB0A0189B2A41C6E
:104BE000C0F307200A0AA4B2904202D0F06A401C27
:104BF000F0620A0B084659F822209047B0738146AC
:104C000025F08205AE490FE7010B57F821108847C0
:104C100006E0010B57F82110884781B2A748405C95
:104C2000B073641CA4B241E0020BBA4657F82210DC
:104C300088470746601CC0F3033281B25AF822202D
:104C40000846904747EA0020020B5AF8221088478E
:104C5000B073A41CE6E7010B57F8211088474844BD
:104C60009649C0B2085CDBE7020BBA4657F822103F
:104C700088470746601CC0F3033182B25AF82110FE
:104C80001046884747EA002101EB090080B2A41CC6
:104C9000C1F30721020AA4B2914202D0F16A491C71
:104CA000F162020B5AF822108847B073824625F051
:104CB00082058349B8E600BF4FEA580096E1010B30
:104CC00057F8211088477D4A641C25F08305135C42
:104CD000A4B2590803F001031D43A2E17949020B74
:104CE00051F8221088470746601C82B2C0F3033196
:104CF000744850F821101046884747EA0020A41C49
:104D00007049020B074651F82210A4B288474108A7
:104D1000A8E1B173D6E5010B57F82110884700EBE5
:104D2000090161F30700654983B2641CCA5C25F080
:104D30008305500802F001021543614AA4B2125CD7
:104D4000F5E36049020B51F8221088470746601CC2
:104D500082B2C0F303315B4850F8211010468847F7
:104D600047EA0020484487B2A41C5648390BA4B235
:104D700050F82110384688474108B5E1B1733846EC
:104D8000FFF7F5BA010B57F82110884748444B4903
:104D9000C0B2641C0A5CA4B2401C51FA80F00078D6
:104DA00042EA002045E0010B57F82110884781B204
:104DB0004248405C07E000BF48EA0001B6E4010B4E
:104DC00057F821108847B073641C17E03D49020B67
:104DD00051F8221088470746601C82B2C0F30331A5
:104DE000384850F821101046884747EA00203549D6
:104DF000020B51F822108847B073A41CA4B2DBE761
:104E0000010B57F8211088472C49B0730A5C401CED
:104E100051FA80F00078641C42EA002101EB0A009C
:104E200080B2020A090AA4B28A4202D0F16A491C7D
:104E3000F162010B57F821103FE0010B57F82110E8
:104E4000884748441D49C0B2085CBCE71D49020BB5
:104E500051F8221088470746601C82B2C0F3033124
:104E6000184850F821101046884747EA002101EB06
:104E70000A0016E0F16A491CF1621AE01149020BBE
:104E800051F8221088470746601C82B2C0F30331F4
:104E90000C4850F821101046884747EA002101EBE2
:104EA000090080B2A41CC1F30721020AA4B29142F6
:104EB000E0D10449020B51F8221005E0E80400207B
:104EC000748D000810BD00208847B07374E7284631
:104ED00068F35F000146F84AC0B2C1F30721125CD3
:104EE0000A4325F0830142EA010599E2010B57F8D4
:104EF00021108847F14B02462846995C641C61F3F7
:104F00005F000746C1B2EC48A4B2405C40EA1720FB
:104F100025F083050543F6E3E949020B51F8221019
:104F200088470746601C82B2C0F30331E44850F85A
:104F300021101046884747EA0020A41CE049020BD4
:104F4000074651F82210A4B28847294660F35F0152
:104F50000846D94AC9B2C0F30720525C024325F083
:104F6000830042EA0005D4E613E2010B57F8211052
:104F7000884700EB090161F30700D04A83B2284655
:104F8000D15CCD4F61F35F00C1B2641C7F5CA4B201
:104F900047EA102725F0830047EA00055EE3C84989
:104FA000020B51F8221088470746601C82B2C0F3FA
:104FB0000331C34850F821101046884747EA0020C3
:104FC000484487B2A41CBE48390BA4B250F8211043
:104FD00038468847294660F35F010846B64AC9B299
:104FE000525CD6E34FEA580040EAC51025F083052D
:104FF00008F001010D43B049C0B2095C0D430FE256
:10500000010B57F821108847AC4A641CA4B2115C0C
:105010004B0843EAC51325F0830501F001010D4358
:10502000D9B2A54B5B5C1D43B1738BE2A449020B63
:1050300051F8221088470746601C82B2C0F3033142
:105040009F4850F821101046884747EA0020A41CCA
:105050009B49020B074651F82210A4B28847410829
:1050600041EAC51125F0830500F00100054392488F
:10507000C9B2405CF6E3010B57F82110884700EBFA
:10508000090161F307008D4982B2641C885CA4B2F7
:10509000430843EAC51325F0830500F001000543EA
:1050A000D8B2854B1B5C1D43B073FDE38449020BF2
:1050B00051F8221088470746601C82B2C0F30331C2
:1050C0007F4850F821101046884747EA002048449E
:1050D00087B2A41C7A48390BA4B250F82110384684
:1050E0008847410841EAC51125F0830501E07EE2C9
:1050F0008CE000F0010005436F48C9B2405CFCE35E
:105100000BF10100C1B2B06A455C491CC9B2425CF6
:10511000491C01F0FF0B62F3070410F80B0060F369
:105120000F2464E40BF10100B16AC0B20A5C401CB8
:1051300000F0FF0B62F3070411F80B0060F30F247B
:10514000641CA4B253E4010B57F82110884748446B
:10515000C1B25A48641CA4B2425C491C50FA81F0A6
:10516000007842EA0020010B57F8211088470246D8
:10517000B073A8EB020045F30001401A401E81B253
:105180004D4BC8B205F00C051B5C2B4388EA0205A9
:1051900080EA08021540402202EA5502090A03D0BB
:1051A00000210A4313433AE10121FAE7010B57F8C2
:1051B0002110884781B2414845F30002641C415CDC
:1051C000B173A8EB0100801A401E83B23A4AD8B2EC
:1051D000A4B2175C05F00C02174388EA010280EACA
:1051E00008010A40402101EA52011A0A04D00022B3
:1051F000114347EA010513E10122F9E7010B57F8D2
:1052000021108847B073641C1CE0FDE3104343EA9F
:105210000005C1E02A49020B51F8221088470746D1
:10522000601C82B2C0F30331254850F821101046AB
:10523000884747EA00202249020B51F8221088478C
:10524000B073A41C1FFA84F4A8EB000145F300021C
:10525000891A491E8AB2184BD1B205F00C055B5C65
:105260002B4388EA000581EA08000540402000EA57
:105270005500120A26D00022C8E7010B57F821106A
:1052800088470E49B0730A5C401C51FA80F00078E0
:10529000641C42EA002101EB0A0080B2020A090AFA
:1052A000A4B28A4202D0F16A491CF162010B57F89C
:1052B00021108847B073C7E7748D0008E804002008
:1052C00010BD00200122A1E7010B57F821108847EB
:1052D0004844FF49C0B2641C0B5C45F30001A8EBD5
:1052E0000300401A401E81B2FA4AC8B2B373125C7E
:1052F00005F00C052A4388EA030580EA08031D40EF
:105300004023A4B203EA5503090A04D000210B4349
:105310001A43FEF78CBE0121F9E7EF49020B51F861
:10532000221088470746601C82B2C0F30331EA4866
:1053300050F821101046884747EA002101EB0A0087
:1053400080B2A41CC1F30721020AA4B2914202D088
:10535000F16A491CF162E049020B51F822108847BA
:10536000A8EB000145F30002891A491E8BB2D94A05
:10537000D9B2B073525C05F00C052A4388EA0005E7
:1053800081EA08000540402000EA55001B0A05D0CC
:105390000023184342EA00058846C2E60123F8E7E5
:1053A000CD49020B51F8221088470746601C82B293
:1053B000C0F30331C84850F821101046884747EA27
:1053C000002101EB090080B2A41CC1F30721020AED
:1053D000A4B2914202D0F16A491CF162BE49020BAB
:1053E00051F8221088470146B073A8EB010045F33D
:1053F0000002801A401E82B2B64BD0B205F00C05F6
:105400001B5C2B4388EA010580EA08010D4040211E
:1054100001EA5501120A05D0002211430B431D4633
:1054200080467EE60122F8E7010B57F821108847F5
:105430004844A749C0B2641C0A5CA4B2401C51FA9B
:1054400080F0007842EA00201CE0010B57F82110A0
:105450008847641CA4B286F80E80414671E09E49DC
:10546000020B51F8221088470746601C81B2C0F336
:105470000332994850F822200846904747EA002016
:10548000A41C19E09449020B403186F80E8051F8B3
:1054900022204146FBE3010B57F8211088478C4935
:1054A00082B2401C8A5C51FA80F00078641C42EAA7
:1054B000002101EB0A0080B2A4B2E3E7010B57F828
:1054C0002110884700EB090161F30700641CA4B2B6
:1054D00086F80E80414688E07F49020B51F8221081
:1054E00088470746601C81B2C0F303327A4850F8FF
:1054F00022200846904747EA0020A41CA4B250444A
:1055000013E07549020B51F8221088470746601CCA
:1055100082B2C0F30331704850F82110104688471A
:1055200047EA0020A41CA4B2484480B2AAE720E3C2
:10553000010B57F821108847641CA4B286F80E901E
:105540004946634A1154ECE56349020B51F82210B5
:1055500088470746601C82B2C0F303315E4850F8AA
:10556000211010468847A41C47EA0020A4B286F800
:105570000E90FDE3010B57F82110884700EB0A015C
:1055800061F30700641CA4B286F80E9049462CE033
:10559000010B57F821108847641CA4B286F80EA0AE
:1055A0005146CEE74C49020B51F822108847074676
:1055B000601C82B2C0F30331474850F821101046F6
:1055C0008847A41C47EA0020A4B286F80EA0FCE39A
:1055D000010B57F82110884700EB090161F3070020
:1055E000641CA4B286F80EA0514682B23848815499
:1055F00097E5717B0029A6D1010B57F82110884748
:105600004844C1B23248641CA4B2425C491C50FAFE
:1056100081F0007842EA0020010B019057F8211038
:1056200088474000C1B241EA080271E1717B00295C
:1056300089D1010B57F821108847254A0346641C7D
:10564000D05C25F083054700F9B2224841EA0808FA
:10565000A4B210F8080040EA17200543B173D154F2
:105660005FE5717B0029C3D11B49020B51F8221061
:1056700088470746601C82B2C0F30331164850F8D1
:1056800021101046884747EA0020A41C1249020B4B
:10569000074651F82210A4B288474000C1B241EA3F
:1056A000080205E1717B0029A2D1010B57F82110F6
:1056B0008847074982B2401C8A5C51FA80F0007822
:1056C000641C42EA002101EB0A0080B2A4B205E0AA
:1056D000E8040020748D000810BD0020010B01902B
:1056E00057F8211088474200D1B2FD4841EA080826
:1056F000C2F3072210F80800104325F0830240EAA5
:105700000205B1733EE3AAE0717B0029A8D1010B29
:1057100057F82110884700EB090161F30700F149B0
:1057200087B2641CC85DEE4B4200D0B240EA080864
:10573000A4B213F80830B07343EA122325F08302B1
:1057400043EA0205C855ECE4717B002988D1E6499B
:10575000020B51F8221088470746601C82B2C0F342
:105760000331E14850F821101046884747EA0020ED
:105770005044A41C80B2DC49020BA4B251F82210A0
:10578000074688474000C1B2D54A41EA080812F8E6
:105790000820C0F30720024325F0830042EA0005F9
:1057A000FFF7ECBA717B0029CDD1CF49020B51F83C
:1057B000221088470746601C82B2C0F30331CA48F2
:1057C00050F821101046884747EA00204844A41C9E
:1057D00080B2C549020BA4B251F82210074688478F
:1057E0004200D1B2BE4841EA0808C2F3072210F8CD
:1057F0000800104325F0830240EA0205D0E7717BE0
:105800000029A0D1010B57F8211088474844B54919
:10581000C0B2641C0A5CA4B2401C51FA80F000784B
:1058200042EA0020019066E0717B00298BD1010BD8
:1058300057F821108847AB4B02462846995CA84F81
:1058400061F35F00C1B201EA0808641C17F8087030
:10585000A4B247EA102725F0830047EA0005B17398
:1058600099545EE43AE1717B0029FAD19E49020B1A
:1058700051F8221088470746601C82B2C0F30331FA
:10588000994850F821101046884747EA0027A41C81
:105890009548390BA4B250F8211038468847014684
:1058A000284661F35F0000E0F8E3C1B201EA0802B4
:1058B00090468B4AC0F3072012F80820024325F0D7
:1058C000830042EA0005FFF724BA717B0029C8D1A2
:1058D000010B57F821108847824982B2401C8A5C2C
:1058E00051FA80F00078641C42EA002101EB0A00C2
:1058F00080B2A4B20190010B00E080E157F82110C2
:105900008847294660F35F010846C9B201EA0802E8
:105910009046734AC0F3072012F80820024325F08E
:10592000830042EA0005ECE6717B002999D1010B66
:1059300057F82110884700EB090161F30700694A15
:1059400083B22946D05C664F60F35F01C8B200EABB
:105950000808641C17F80870B07347EA112725F08F
:105960008301A4B247EA0105D05416E5717B0029F2
:10597000FBD15D49020B51F8221088470746601C95
:1059800081B2C0F30332584850F8222008469047AD
:1059900047EA00205044A41C80B25349020BA4B231
:1059A00051F8221007468847294660F35F010A46EE
:1059B000C9B24B4801EA0808C2F3072210F80800F0
:1059C000104325F0830240EA0205E9E6717B0029D5
:1059D000CBD14549020B51F8221088470746601C7D
:1059E00082B2C0F30331404850F821101046884776
:1059F00047EA00204844A41C80B23B49020BA4B2F1
:105A0000074651F8221000E00EE38847294660F36C
:105A10005F010846C9B2324A01EA0808C0F307200C
:105A200012F80820024325F0830042EA0005B7E699
:105A3000717B002999D1010B57F821108847484400
:105A40002849C0B2641C0A5CA4B2401C51FA80F020
:105A5000007842EA002001905EE0717B002984D149
:105A6000010B57F8211088471E4A0146641C535CFD
:105A700025F08305580803F001031D43184B80EA05
:105A80000808A4B213F808301D4369E2717B0029AD
:105A90009ED11549020B51F8221088470746601C19
:105AA00082B2C0F30331104850F8211010468847E5
:105AB00047EA0027A41C0C48390BA4B250F8211067
:105AC00038468847C0F3470125F0830500F0010000
:105AD0000543034881EA080810F808000543F2E688
