:020000040800F2
:1000000048C200209D01000847130008891200081B
:1000100045130008A9020008AD1500080000000003
:10002000000000000000000000000000391400087B
:10003000C103000800000000491300083B14000839
:10004000B7010008B7010008B7010008B7010008B0
:10005000B7010008B7010008B7010008B7010008A0
:10006000B7010008B7010008B7010008B701000890
:10007000B7010008B7010008B7010008B701000880
:1000800011030008B7010008B7010008B701000814
:10009000B7010008B7010008B7010008B701000860
:1000A000B7010008B7010008B7010008B701000850
:1000B000B7010008B7010008B7010008B701000840
:1000C000B7010008B7010008B7010008B701000830
:1000D000B7010008B7010008B7010008B701000820
:1000E000B7010008B7010008B7010008B701000810
:1000F000B7010008B7010008B7010008B701000800
:10010000B7010008B7010008B7010008B7010008EF
:10011000B7010008B7010008B7010008B7010008DF
:10012000B7010008B7010008B7010008B7010008CF
:10013000B70100080000000000000000B70100083F
:10014000B7010008B7010008B7010008B7010008AF
:10015000B7010008B7010008B7010008B70100089F
:10016000B7010008B7010008B7010008B70100088F
:10017000B7010008B70100080000000000000000FF
:10018000B7010008B7010008DFF80CD000F07AF8DA
:1001900000480047D949000848C200200648804767
:1001A00006480047FEE7FEE7FEE7FEE7FEE7FEE75C
:1001B000FEE7FEE7FEE7FEE7C91400088901000834
:1001C0002DE9F05F0546002092469B46884606468C
:1001D000814640241BE0284641464746224600F01F
:1001E00041F853465A46C01A914110D31146184659
:1001F000224600F028F82D1A67EB01084F462246E8
:100200000120002100F01FF817EB00094E41201ECD
:10021000A4F10104DFDC484631462A464346BDE8E6
:10022000F09FD2B201E000F8012B491EFBD27047CB
:100230000022F6E710B513460A4604461946FFF7B2
:10024000F0FF204610BD202A04DB203A00FA02F11C
:10025000002070479140C2F1200320FA03F31943B4
:1002600090407047202A04DB203A21FA02F0002156
:10027000704721FA02F3D040C2F1200291400843B6
:1002800019467047064C074D06E0E06840F0010350
:1002900094E8070098471034AC42F6D3FFF778FF94
:1002A0004C9400086C940008FEE710B5846B20465F
:1002B00000F0ACF80120207110BD10B5846B204611
:1002C00000F080F80120207110BD10B5846B20690A
:1002D00040F004002061204600F0A4F801202071C5
:1002E00010BD10B5846B206940F0040020612046E9
:1002F00000F06AF80120207110BD10B5806B00F08D
:100300008BF810BD10B5806B00F05DF810BD0000DB
:10031000014800F0A3B90000E8BD002001681823DF
:10032000CAB2103AB2FBF3F2054B6FF30901032A8C
:100330009B5CC36500D9091D8165084670470000B4
:100340003194000810B5014600208B698A6A4FF08D
:10035000C07453B1B3F5005F15D072B1012A0CD04F
:10036000022A0AD0032A09D104E01AB1012A06D0D0
:10037000022A03D1C96AC90100D5012010BDC96A8A
:10038000A142FAD010BD002AF7D0012AF2D0022AE9
:10039000F3D0032AF3D010BD30B50468256825F4E6
:1003A00080252560046863608368402B036803D060
:1003B00099600068C26030BD9A600068C16030BD5D
:1003C0007047704770477047704770B54379012B8D
:1003D0001AD0012646710223037105682C6840F685
:1003E000FE7393409C43D1E900310B439340234378
:1003F0002B6001680B68C0249440A3430B60067116
:1004000000214171084670BD022070BD8021014865
:1004100004F098BDB80100208021014804F092BD8D
:10042000B8000020704770B5040003D02079002583
:1004300010B105E0012070BD6571204600F008F89C
:1004400002202071256101202071002070BD000074
:1004500070B586B0054614216846FFF7E9FE1F49CE
:100460002868884237D11E480026016841F00051B3
:100470000160006800F000500590194810380168CC
:1004800041F0010101600068694600F0010005903B
:10049000102000900320CDE90106124800F050FA28
:1004A000124C114820604FF0606060604020C4E949
:1004B000020600012061400060618000A0614011DF
:1004C000C4E907062046666200F098F908B1FFF714
:1004D00078FFAC60A56306B070BD000000740040FA
:1004E000403802400000024088600240E8BD002021
:1004F00030B54279012A16D00122427102230371DC
:1005000003681D6802FA01F425431D600029016893
:100510000B680AD00C6803F4802304F46014B3F56C
:10052000802F0FD015E0022030BD0C6803F00403CB
:1005300004F03804042B0CD1382C0AD14B6843F05A
:10054000010305E0B4F5601F03D14B6843F00203DB
:100550004B60027100214171084630BD2DE9F04128
:1005600004460D461746617900220698012920D0DD
:100570000126667102212171F5B1D4F80CC0314910
:10058000CCF83C10D4F80CC02F49CCF84010D4F86B
:100590000CC02E49CCF84C102168D1F800C04CF0AA
:1005A000805CC1F800C090B3042834D0082837D14B
:1005B00034E00220BDE8F081D4F808C02449CCF82A
:1005C0003C10D4F808C02349CCF84010D4F808C037
:1005D0002149CCF84C102168D1F800C04CF4805C63
:1005E000C1F800C020B1042805D0082808D105E0D2
:1005F0002268083204E022680C3201E022681032DE
:100600002068016841F400510160A0680EE0FFE736
:100610002268143204E02268183201E022681C3299
:100620002068016841F000510160E068394600F03F
:100630004FF920680168AE403143016000206071CD
:10064000B8E70000BB02000805030008E302000849
:10065000AB020008FB020008CB0200082DE9F843BA
:1006600004464FF00009CDF8009063484FF416514E
:10067000A56D0068B0FBF1F72E6894F85C100820B7
:1006800000FA01F131420FD021680A6852070BD5F8
:100690000A6822F004020A6094F85C108840A8609E
:1006A000606D40F00100606594F85C104FF0010847
:1006B00008FA01F0304208D021684969090604D5DA
:1006C000A860606D40F00200606594F85C10042042
:1006D0008840304208D021680968890704D5A8609D
:1006E000606D40F00400606594F85C101020884054
:1006F000304218D021680968090714D5A86020681D
:100700000168490304D50068000308D5A16C07E01F
:100710000168C90503D4016821F008010160216C5A
:1007200009B12046884794F85C1020208840304268
:1007300031D021680968C9062DD5A86094F8350024
:1007400005282068016806D0490347D500680003E2
:100750001DD4616C1CE021F0160101602068416924
:1007600021F080014161206C08B9A06C20B12068A3
:10077000016821F00801016094F85C103F20884076
:10078000A86084F8349084F83580216D1FE0E16B17
:1007900009B120468847606D00282BD0606DC007E6
:1007A00014D0052084F835002068016821F001018B
:1007B00001600098401C0090B84203D8206800688F
:1007C000C007F6D184F8349084F83580E16C0029B4
:1007D00010D001B02046BDE8F04308470168C905C4
:1007E000D5D4016821F01001016084F8349084F8B8
:1007F0003580CCE7BDE8F883740000202DE9F04196
:10080000044600F08BF906465CB1002584F83450AC
:10081000022084F835002068016821F001010160A0
:100820000DE00120BDE8F08100F078F9801B05287B
:1008300005D920206065032084F83500F2E72068A0
:100840000068C007F0D12268116820480140D4E94F
:1008500001031843D4E9033633431843636918434B
:10086000A3691843E3691843236A18430843616A7C
:10087000042903D1D4E90B131943084310602068FD
:100880004069666A20F0070130460E4301270428BC
:100890000CD1A06A0643E06A40B12046FFF752FD42
:1008A00020B14020606584F83570BAE72068466161
:1008B0002046FFF733FD94F85C203F219140816092
:1008C000656584F835700020ACE700003F8010F0CB
:1008D0002DE9F0410446866D90F83400002501288A
:1008E0000DD0012084F8340094F835700020012FD9
:1008F00007D084F8340002252846BDE8F0810220A4
:10090000FBE7022784F8357060652046FFF744FD59
:1009100094F85C103F208840B0602068016841F086
:1009200016010160206C20B12068016841F00801C7
:1009300001602068016841F001010160DCE700000E
:100940002DE9F84F00224FF0010803254FF00F0E5C
:100950000B6808FA02F42340A3426ED14E68012EC0
:1009600005D0022E03D0112E01D0122E12D186688E
:100970004FEA420C05FA0CF7BE43CF6807FA0CF7B2
:10098000374387604668A6430C79C4F3001494404B
:1009900034434460C668570005FA07FC8C6826EAB1
:1009A0000C06BC403443C4604C68022C01D0122CAD
:1009B00013D1D40800EB8404A346D4F82090540744
:1009C0004FEAD46A0EFA0AF629EA06090E6906FA0F
:1009D0000AF646EA0906CBF8206006680C7926EA92
:1009E0000C0604F00304BC40344304604C68E4008B
:1009F00065D5364C266846F480462660246822F089
:100A0000030604F480440094314C3444A446D4F8E2
:100A100008489607370F0EFA07F6B4432D4EB0423A
:100A200001D1002624E02C4EB04201D101261FE066
:100A30002A4EB04202D102261AE040E0284EB042CF
:100A400001D1032614E0274EB04201D104260FE065
:100A5000254EB04201D105260AE0244EB04201D114
:100A6000062605E0224EB04201D1072600E0082606
:100A7000BE402643CCF808681E4E34684F689C433D
:100A8000FF0300D51C4334601A4C241D26684F68B0
:100A90009E43BF0300D51E432660164E08363468B9
:100AA0004F689C43FF0200D51C433460114E0C3646
:100AB00034684F689C43BF0200D51C433460521C0D
:100AC000102AFFF445AFBDE8F88F0000443802401B
:100AD00000300140000002400004024000080240D3
:100AE000000C0240001002400014024000180240B6
:100AF000001C0240003C01400069084000D0012079
:100B00007047426931EA020200D1090481617047ED
:100B10000AB1816170470904FBE700000148806861
:100B20007047000068000020024881680278114484
:100B300081607047680000200B4810B5016841F4DF
:100B400000710160016841F480610160016841F455
:100B500080710160032000F06FF8002000F006F8BB
:100B600000F024F8002010BD003C024070B50D4D8F
:100B700004464FF47A712878B1FBF0F00A4909680D
:100B8000B1FBF0F000F0E2FA48B9102C07D20022D5
:100B90002146501E00F030F800206C6070BD01202E
:100BA00070BD000068000020740000200A4808B5ED
:100BB000016841F480410160006800F480400090C9
:100BC0000548001F016841F080510160006800F095
:100BD0008050009008BD000044380240002809DB26
:100BE00000F01F02012191404009800000F1E02047
:100BF000C0F8001170470000F0B40E4B1B680C46A3
:100C0000C3F30223C3F10705042D00D90425191DE0
:100C1000072901D2002300E0DB1E012606FA05F1B8
:100C2000491E214099409E40761E16403143F0BC3B
:100C300000F02EBD0CED00E0064900F00702086848
:100C40004FF6FF03184040EA0220034A10430860B1
:100C5000704700000CED00E00000FA052DE9F047B8
:100C60000E46050065D0DFF81481D8F80000F7B211
:100C700000F00F00B04207D288F80070D8F80000EA
:100C800000F00F00B04254D128683D4C810712D5C6
:100C9000400703D5206840F4E05020602878000722
:100CA00003D5206840F4604020602068A96820F0E7
:100CB000F000084320602878C0072DD030496868CC
:100CC0000839012812D0022813D0032811D009684E
:100CD000890700292DDA216821F0030101432160F1
:100CE000FFF71CFF814641F2883A0EE0096889034C
:100CF000EFE709688901ECE7FFF710FFA0EB0901B6
:100D0000514502D90320BDE8F0872068696800F0EA
:100D10000C00B0EB810FEFD1D8F80010404601F085
:100D20000F01B14207D90770006800F00F00B04210
:100D300001D00120E7E72878400705D52068E96859
:100D400020F4E050084320602878000706D520688A
:100D5000296920F4604040EAC100206000F018F8E2
:100D60002168084AC1F30311515CC8400649086074
:100D700006480068FFF7FAFE0020C4E7003C024086
:100D80000838024039940008740000206C000020EC
:100D9000154810B5006810F00C02144813D041102B
:100DA000042A0FD0082A0ED10F4C241F2268236872
:100DB00002F03F025B0207D52068C0F38810A0FB59
:100DC000010106E0084610BD2168C1F38811A1FBAE
:100DD00000010023FFF7F4F92168C1F30141491C28
:100DE0004900B0FBF1F010BD083802400024F400C7
:100DF0002DE9F84F04006ED02078DFF83C93C0074F
:100E0000A9F104054AD009F104000168C1F3810188
:100E1000012908D00068C0F3810002280AD1D9F85E
:100E20000000400206D52868800337D56068002896
:100E3000E1D033E06068B0F5803F10D0B0F5A02F6E
:100E4000286810D020F480302860286820F48020A2
:100E500028606068A8B1FFF761FE06460DE02868CB
:100E600040F48030F4E740F480202860F7E700BFCA
:100E7000FFF754FE801B642873D828688003F7D5D9
:100E80000CE0FFF74BFE064605E000BFFFF746FE0D
:100E9000801B6428F0D828688003F7D42078DFF816
:100EA0009C8280074FF0000A3ED5A348001D0168D0
:100EB00011F00C0F08D00068C0F3810002280BD19C
:100EC000D9F80000400207D42868800716D5E068EA
:100ED000012800D112E02BE1E068B8B10120C8F888
:100EE0000000FFF71BFE064605E000BFFFF716FEF9
:100EF000801B0228C0D828688007F7D52868216998
:100F000020F0F80040EAC10028600DE0C8F800A019
:100F1000FFF704FE064604E0FFF700FE801B0228F0
:100F20001FD828688007F7D42078000722D5824E82
:100F300083486169703671B101210160FFF7EEFDF0
:100F4000074604E0FFF7EAFDC01B022809D8306815
:100F50008007F7D50EE0C0F800A0FFF7DFFD0746D9
:100F600005E082E0FFF7DAFDC01B02287DD830687B
:100F70008007F7D42078400768D5DFF8BCB1002798
:100F80000BF13C0BDBF80000C0000BD4DBF80010C9
:100F900041F08051CBF80010DBF80000012700F091
:100FA00080500090674E3068C00510D4306840F41F
:100FB00080703060FFF7B2FD009005E0FFF7AEFDF6
:100FC0000099401A022850D83068C005F6D55A4E0C
:100FD000A0686C3601280FD00528306810D020F0AA
:100FE00001003060306820F004003060A068B8B1C3
:100FF000FFF794FD00900FE0306840F00100F4E747
:1010000040F004003060F7E7FFF788FD0099411ACF
:1010100041F28830814266D830688007F4D50EE00E
:10102000FFF77CFD009007E0FFF778FD0099411A7B
:1010300041F28830814256D830688007F4D42FB10D
:10104000DBF8001021F08051CBF80010A069C8B384
:101050003949091D0968C1F3810102294AD00228D2
:10106000504607D0C8F8600000E03CE0FFF756FDAE
:1010700004463BE04746C8F86000FFF74FFD0646D0
:1010800005E000BFFFF74AFD801B02282BD8286827
:101090008001F7D4D4E907010843A16A2A4A490824
:1010A00002EB0141626A41EA8211084394F82C1074
:1010B00040EA0161C9F8001001203866FFF72EFDF3
:1010C000044606E036E000BFFFF728FD001B0228BB
:1010D00009D828688001F7D52CE000BFFFF71EFD76
:1010E000001B022802D90320BDE8F88F2868800180
:1010F000F4D41FE00128F7D0D9F80000E26900F429
:101100008001914214D1226A00F03F0191420FD137
:1011100047F6C071626A0140914209D1A26A00F4A7
:101120004031914204D1E16A00F07060884201D000
:101130000120D9E70020D7E70438024000004742E9
:10114000800E4742007000400000FFFF10B5401EB7
:10115000B0F1807F01D3012010BD4FF0E024606129
:101160000F21601700F094FA0020A0610720206191
:10117000002010BD70B590F83C20012A32D0012427
:1011800080F83C40022280F83D2003685A689D6840
:1011900022F070060A6832435A60134B02689A4282
:1011A00014D0B2F1804F11D0104B9A420ED0104B98
:1011B0009A420BD00F4B9A4208D00F4B9A4205D05F
:1011C0000E4B9A4202D00E4B9A4204D1496825F048
:1011D00080031943916080F83D40002180F83C1065
:1011E000084670BD022070BD0000014000040040B0
:1011F00000080040000C0040000401400040014095
:101200000018004010B5040003D094F83D0010B160
:1012100007E0012010BD002084F83C00204600F0CB
:101220000DF8022084F83D00211D206800F05AF9D5
:10123000012084F83D00002010BD000008B50068C2
:101240000649884208D10648016841F01001016052
:10125000006800F01000009008BD00000010004081
:1012600040380240022180F83D1001688A6802F08F
:101270000702062A03D00A6842F001020A6001212F
:1012800080F83D1000207047FEE700002DE9F04196
:1012900086B014216846FEF7CBFF2748002401687A
:1012A00041F004010160016801F004010591016849
:1012B00041F080010160016801F080010591016841
:1012C00041F001010160016801F00101059101682F
:1012D00041F0020101600068184F00F00200059023
:1012E000012230213846FFF713FCDFF85480012239
:1012F00003214046FFF70CFC4FF4004001258DE828
:10130000310069463846FFF71BFB30200226CDE945
:101310000005CDE9024669463846FFF711FB032078
:10132000CDE90005CDE9024669464046FFF708FBD6
:1013300006B0BDE8F08100003038024000080240ED
:1013400000040240FEE770477047000A7047000043
:101350000249C0F30B00085C70470000EA2C002033
:101360000249C0F30A00085C70470000EA0400204C
:10137000044A010B02EB8101C0F30B0051F8181C69
:10138000085C7047ECBC00200249C0F30C00085C0C
:1013900070470000EA0C0020F0B5A0F58042204B19
:1013A000204E214C214D00F00301182A32D2DFE8F3
:1013B00002F00C0C0C0C0E0E0E0E1010101012126F
:1013C00012123131313131153127585CF0BD705C6A
:1013D000F0BD605CF0BD48198078F0BDD978002080
:1013E000C90800D00120F178C90800D0801CE1783C
:1013F000C90800D0001D6979C908EED00830F0BDD9
:101400000B48017801B18021407800B140200844A8
:10141000C0B2F0BD074900F01F00085CF0BD00003D
:10142000B8020020C8020020D80200205800002086
:1014300000000020780000207047FFF775BB000017
:1014400030B593B030216846FEF7F2FE14210CA8A7
:10145000FEF7EEFE1A480025016841F08051016058
:10146000006800F0805011901648016841F48041F6
:1014700001600068022400F4804011900120009077
:10148000000401908001CDE90640082008904FF447
:10149000A870CDE9090404200B906846FFF7A8FC6A
:1014A0000CA90F2081E831004FF4A0500F90E0020A
:1014B000109005210CA8FFF7D1FB13B030BD000040
:1014C00040380240007000400548016841F4700156
:1014D000016003494FF000608039086070470000E8
:1014E00088ED00E0F0B50268254C264D264E274FCA
:1014F000274B4FF0804CA04209D0604507D0A8424E
:1015000005D0B04203D0B84201D0984204D122F0B5
:10151000700E4A6842EA0E02A0421BD0604519D004
:10152000A84217D0B04215D0B84213D0984211D07B
:10153000184DA8420ED0184DA8420BD0174DA84206
:1015400008D0174DA84205D0164DA84202D0164D1E
:10155000A84203D122F44075CA682A434D6922F09B
:1015600080022A4302608A68C2620A688262A042DC
:1015700001D0984201D10969016301214161F0BDA7
:10158000000001400004004000080040000C004042
:101590000004014000400140004401400048014077
:1015A00000180040001C004000200040FEE770478B
:1015B000024AC0F30B00115470470000EA2C0020CF
:1015C000024AC0F30A00115470470000EA040020E8
:1015D000024AC0F30C00115470470000EA0C0020CE
:1015E000F0B4A0F58047244B244C254D254E00F047
:1015F0000302182F3BD2DFE807F00C0C0C0C101084
:101600001010161616161C1C1C1C3A3A3A3A3A23AD
:101610003A3199541146184802E0A154174811462E
:10162000F0BC03F04DBCA954F0BC1146144803F0C3
:101630006BBC90198170F0BC1146124803F022BCBB
:1016400001F001001871C1F340002071C1F3800066
:101650002871C1F3C000B071F0BC70470A48CA09D4
:10166000C1F380110270417000218170F4E7074AD4
:1016700000F01F001154EFE7B8020020C80200205C
:10168000D802002058000020000000207800002030
:101690000907090E002804DB00F1E02080F800149F
:1016A000704700F00F0000F1E02080F8141D704733
:1016B00002E008C8121F08C1002AFAD1704770471B
:1016C000002001E001C1121F002AFBD17047000079
:1016D00010B50F4C0F48A17800F03CF8A1780E48E7
:1016E00000F038F8A1780D4800F04CF8A1780C48CB
:1016F00000F018F8A0782178401C09B1052100E01D
:101700000421B0FBF1F201FB1200A07010BD00003B
:1017100000000020B8020020C8020020D8020020EB
:1017200058000020094A0A4B127802EB820203EBB0
:10173000420211444979002907D0817B002904D055
:101740008278920601D4491E817370470000002000
:10175000C04F0008094A0A4B127802EB820203EBE1
:10176000420211444979002907D0817B002904D025
:101770000278920601D4491E817370470000002050
:10178000C04F0008124A127802EB8203114A02EBA2
:101790004302535C73B1037C1BB1037803F07F03F6
:1017A00002E0C37B0BB15B1EC37303781B0601D43D
:1017B0000023037411444979002907D0817B002953
:1017C00004D00278120601D4491E817370470000CC
:1017D00000000020C04F00082DE9F14F9C4E82B060
:1017E000707A01280DD0B57996F807B096F8038085
:1017F00096F8049096F805A0348AF06A009002F0FA
:10180000A2BF0020BDE8FE8FA0B2924F010B04469C
:1018100057F821108847014670738F4A641CF36A99
:10182000525CA0B21A440446F262802902F05D863E
:1018300002DC8029E3D200E004E18A007A445268A5
:1018400097440000C00A0000681400000C2D00003E
:10185000D61C0000A62C00008A14000074090000A9
:10186000101D000040050000A21400004C090000FB
:10187000DC2E0000AE2C0000B01400009409000023
:10188000461D000056040000E41400000C2D00006A
:10189000881D0000A62C00001E150000DE090000B7
:1018A000EC1D00002004000030150000022F000095
:1018B0002C1E0000B82C0000601500000C0A00006F
:1018C000881E000092100000FC0700000C2D000094
:1018D000E21E0000600A00001E080000D015000093
:1018E0000C1F00004C05000040080000B21500006D
:1018F000DC2E00007C0A00004E080000FC150000F1
:101900004A1F000084040000820800000C2D000023
:10191000AE1F0000A62C0000BC0800004E16000000
:101920000C20000028040000D8080000022F00004E
:1019300050200000B82C00000809000082160000AA
:10194000B0200000E4170000D80D00000C2D0000AE
:1019500014210000A62C0000FA0D0000A2130000C4
:101960003E2100005C050000120E00009C130000E8
:10197000F62B000024100000200E0000C013000011
:10198000702100009C040000560E00000C2D000089
:10199000D0210000A62C0000900E0000FA130000D9
:1019A0002022000030040000A20E0000022F0000E0
:1019B0005E220000B82C0000D20E000026140000A9
:1019C0008E22000008180000B40500000C2D000055
:1019D000E6220000A62C0000E2050000E41600004C
:1019E000102300006C0500001E060000C816000051
:1019F000102C00004C1000002E06000010170000F4
:101A000074230000B80400006A0600000C2D0000DA
:101A1000EE230000022F0000CE0600005A1700003F
:101A20006A2400003804000016070000022F00009E
:101A3000D8240000B82C0000860700009017000092
:101A40001425000081397F2982F07D8606E00000A0
:101A50002400002014BD0020F44F00088A0000BFBD
:101A60007A44526897440000E8180000822A000077
:101A700062230000501A00000A190000F01900004B
:101A800098230000000B0000822A00005803000089
:101A9000162A0000641A00001E190000081A00002F
:101AA000C0230000B002000056190000E82A000020
:101AB0000E2C0000901A00007C190000341A00005F
:101AC000FE23000068030000981900006C0300006A
:101AD000FE2A0000542B0000C2190000A82B0000B1
:101AE0005C2C0000C8100000B20E000018100000AE
:101AF00026240000D2100000D40E000022100000A6
:101B00005624000070030000EC0E00007E0300006D
:101B1000322A0000E8100000FA0E00003810000021
:101B20006C240000CA0200002C0F0000E82A00000C
:101B3000A224000016110000740F000066100000BF
:101B4000F42400001C020000860F00008203000045
:101B5000062D000028110000D20F000078100000B0
:101B6000102500009E0A0000F4080000822A0000F0
:101B70005E250000A80A000020090000060B0000F6
:101B8000982500000C0D000042090000F80A000032
:101B9000522A0000BC0A0000500900001A0B000085
:101BA000D6250000E602000084090000E82A0000B3
:101BB00034260000822A0000BE0900005C0B0000F1
:101BC0008426000024020000D0090000DE2C000062
:101BD000CC260000942A0000000A00007A0B0000C6
:101BE0000E270000480A000006160000822A0000A6
:101BF00060270000520A00006C160000200D000053
:101C000096270000F80C0000BC160000DE2C000037
:101C1000BC160000660A0000D4160000420D000049
:101C20000A280000000300003A170000E82A00001C
:101C30008A280000822A000088170000880D000012
:101C4000BE2800002C020000DA170000DE2C000085
:101C50002A290000942A000060180000B40D00003A
:101C60005C29000025F00105C9E500BF45F001052C
:101C7000C5E500BF25F00405C1E500BF45F004053A
:101C8000BDE500BF25F04005B9E500BF25F008051A
:101C9000B5E500BF45F00805B1E5010B57F8211087
:101CA000884730730146601C84B244FA81F080B2E8
:101CB000290620E0010A220A914261D00221F26A3B
:101CC00004461144F1629AE5010B57F82110884748
:101CD000641C3073A4B244FA80F080B2290618E084
:101CE000010B57F821108847641C3073A4B244FAE2
:101CF00080F080B269060029B6DBDBE7010B57F8FC
:101D000021108847641C3073A4B244FA80F080B27A
:101D100069060029A8DACDE7010B57F8211088479A
:101D2000641C3073A4B244FA80F080B2E9079BD1FE
:101D3000C0E7010B57F82110884730730146601C3B
:101D400084B244FA81F080B2E9078DD0B2E7010B8A
:101D500057F82110884730730146601C84B244FA5A
:101D600081F080B2A907C6E7010B57F82110884718
:101D7000641C3073A4B244FA80F080B2A907C8E7AB
:101D800001219CE7B26A45F0300102F80B100AE02D
:101D90000BF10100B16A00F0FF0B11F80B502EE5BA
:101DA000B26A02F80B80ABF1010000F0FF0B26E5F0
:101DB0000BF10100B16A00F0FF0B11F80B8000E09D
:101DC000C846FA4925F0820511F8080002F0BABCAD
:101DD000D046F6E7CB4612E5F449C24625F0820527
:101DE00011F80A00F2E7C14600E0D946EF4925F0B4
:101DF000820511F80900E9E7010B57F8211088471F
:101E00004844EB49C0B2641C0A5CA4B2401C51FABD
:101E100080F0007842EA0020010B57F82110884733
:101E200030730246F6E0010B57F82110884781B263
:101E3000DF4805F00102DD4B415C317308EB010026
:101E40001044C0F30722C0B2641C1B5C88EA01077F
:101E50001A4380EA0803BB434021A4B201EA5301BC
:101E600075E0010B57F821108847641C3073A4B249
:101E70003BE0D049020B51F8221088470746601C0E
:101E800082B2C0F30331CB4850F821101046884786
:101E900047EA0020C749020B51F822108847A41CCA
:101EA0003073A4B27DE000BF05F00C03F4E3010B36
:101EB00057F821108847BE4930730A5C401C51FA1C
:101EC00080F00078641C42EA002101EB0A0080B235
:101ED000020A090AA4B28A4202D0F16A491CF162DC
:101EE000010B57F821108847307308EB000105F00B
:101EF00001021144C1F30722AC4BC9B288EA0007C2
:101F00005B5C1A4381EA0803BB43402000EA5300AC
:101F1000CAE7010B57F8211088474844A449C0B2CA
:101F200005F00102095CA14B08EB01001044C0F36D
:101F30000722C0B231731B5C641C1A4380EA080795
:101F400088EA01039F434021A4B201EA570105F04A
:101F50000C0319430A431546FEE39649020B51F858
:101F6000221088470746601C82B2C0F303319148B3
:101F700050F821101046884747EA002101EB0A007B
:101F800080B2A41CC1F30721020AA4B2914202D07C
:101F9000F16A491CF1628749020B51F82210884707
:101FA000307308EB000105F001021144C1F3072270
:101FB0007E4BC9B281EA08075B5C1A4388EA0003DA
:101FC0009F43402000EA57006EE77A49020B51F820
:101FD000221088470746601C82B2C0F3033175485F
:101FE00050F821101046884747EA002101EB09000C
:101FF00080B2A41CC1F30721020AA4B2914202D00C
:10200000F16A491CF1626B49020B51F822108847B2
:102010000246307308EB020005F001010844C0F3EA
:102020000723C1B2614881EA0807405C034388EA9C
:1020300002008743402000EA570005F00C02FDE350
:10204000010B57F82110884748445949C0B2641C15
:102050000A5CA4B2401C51FA80F0007842EA0020E9
:102060004AE0010B57F82110884781B25048405C84
:102070000CE000BF08EA000102F00CBA25F082056E
:1020800002F05DBB010B57F8211088473073641CC8
:1020900017E04849020B51F8221088470746601C98
:1020A00082B2C0F30331434850F8211010468847EC
:1020B00047EA00203F49020B51F82210884730734D
:1020C000A41CA4B2D6E7010B57F821108847384961
:1020D00030730A5C401C51FA80F00078641C42EABC
:1020E000002101EB0A0080B2020A090AA4B28A4266
:1020F00002D0F16A491CF162010B57F8211044E04B
:10210000010B57F82110884748442949C0B2641C84
:10211000095C3173A4B208EA0108AFE72549020B54
:1021200051F8221088470746601C81B2C0F3033281
:10213000204850F822200846904747EA002101EB4A
:102140000A0016E0F16A491CF1621AE01949020B13
:1021500051F8221088470746601C82B2C0F3033151
:10216000144850F821101046884747EA002101EB37
:10217000090080B2A41CC1F30721020AA4B2914253
:10218000E0D10C49020B51F822108847307371E7F7
:102190004FEA4801C1F30720044AC9B2525C104318
:1021A00025F0830240EA0205F3E30000F450000842
:1021B000EA04002014BD0020010B57F821108847C5
:1021C000FD4B0246641C985CA4B24000070AC1B2F1
:1021D000FA48405C3843FAE3F949020B51F82210FF
:1021E00088470746601C82B2C0F30331F44850F8B8
:1021F00021101046884747EA0020A41CF049020B32
:10220000074651F82210A4B288474100C1F30720C5
:10221000EA4AC9B2525C104325F0830240EA020543
:10222000FEE3010B57F82110884700EB090161F329
:102230000700E14982B2641C885CE04F4000030A59
:10224000C0B225F083053F5CA4B23B431D43E8E3E5
:10225000DB49020B51F8221088470746601C82B206
:10226000C0F30331D64850F821101046884747EA9A
:102270000020484487B2A41CD148390BA4B250F8BE
:102280002110384688474000C0F30722C1B2CB482E
:10229000405C01F05BBBCA4A030B403252F823207A
:1022A00002F0E7B9010B57F82110884781B2C24804
:1022B000641C405C30731BE0002087E5022085E54C
:1022C000BF49020B51F8221088470746601C82B2B2
:1022D000C0F30331BA4850F821101046884747EA46
:1022E0000020B749020B51F8221088473073A41C14
:1022F00025F0C20500F0C0010D43A4B218EA000F9A
:10230000DCD0D9E7B17A002942F01D82B26A601CA4
:10231000ABF10101030AC9B202F80B305054491E57
:10232000C8B245F030011154401E00F0FF0BF96BAC
:1023300045F004054FF6FE7088470446F96B4FF6EA
:10234000FF70884744EA0020010B044657F821102B
:1023500088470028D8D1012002F003B9010B57F8B3
:10236000211088474844C1B29348641CA4B2425C1F
:10237000491C50FA81F0007842EA00204FE00D43FA
:10238000C1B28E48405C21E5010B57F82110884707
:1023900081B28948405C0CE0A8EB000080B225F0D7
:1023A0008305010A7ED00021E9E7010B57F82110CF
:1023B00088473073641C17E08149020B51F82210E2
:1023C00088470746601C82B2C0F303317C4850F84E
:1023D00021101046884747EA00207949020B51F83E
:1023E000221088473073A41CA4B2D5E7010B57F81C
:1023F00021108847704930730A5C401C51FA80F004
:102400000078641C42EA002101EB0A0080B2020A53
:10241000090AA4B28A4202D0F16A491CF162010B96
:1024200057F8211041E0010B57F821108847484424
:102430006149C0B2085CBCE76149020B51F8221047
:1024400088470746601C82B2C0F303315C4850F8ED
:1024500021101046884747EA002101EB0A0016E0E8
:10246000F16A491CF1621AE05549020B51F8221039
:1024700088470746601C82B2C0F30331504850F8C9
:1024800021101046884747EA002101EB090080B27D
:10249000A41CC1F30721020AA4B29142E0D1020BAD
:1024A000474900E05AE051F822108847307373E73B
:1024B000010B57F82110884706E0010B57F821104F
:1024C000884781B23C48405C3073641C17E03C494B
:1024D000020B51F8221088470746601C82B2C0F3F5
:1024E0000331374850F821101046884747EA00204A
:1024F0003349020B51F8221088473073A41CA4B250
:10250000A9EB00004AE7010B57F82110884706E0C5
:10251000010B57F82110884781B22748405C30737F
:10252000641C17E02649020B51F822108847074621
:10253000601C82B2C0F30331214850F821101046CC
:10254000884747EA00201E49020B51F822108847AD
:102550003073A41CA4B2AAEB00001FE701210EE710
:10256000A9F10100FEE000BFAAF1010004E1010BA6
:1025700057F821108847104A641CA4B2115C491E08
:102580000BE10F49020B51F8221088470746601CE7
:1025900082B2C0F303310A4850F821101046884730
:1025A00047EA0027A41C0648390BA4B250F82110B2
:1025B00038468847401E12E1EA040020F450000823
:1025C00014BD0020010B57F82110884700EB0901CA
:1025D00061F3070082B2FE48641CA4B2815C491E0C
:1025E00014E1FC49020B51F8221088470746601C91
:1025F00082B2C0F30331F74850F8211010468847E3
:1026000047EA0020484487B2A41CF248390BA4B220
:1026100050F8211038468847401E1DE1010B57F83D
:10262000211088474844EA49C0B2641C0A5CA4B23D
:10263000401C51FA80F0007842EA002046E0010B8D
:1026400057F82110884781B2E148405C07E000BF9D
:1026500088EA000110E5010B57F821108847307314
:10266000641C17E0DB49020B51F82210884707462B
:10267000601C82B2C0F30331D64850F821101046D6
:10268000884747EA0020D349020B51F822108847B7
:102690003073A41CA4B2DBE7FAE3010B57F8211056
:1026A0008847CB4930730A5C401C51FA80F00078AF
:1026B000641C42EA002101EB0A0080B2020A090A06
:1026C000A4B28A4202D0F16A491CF162010B57F8A8
:1026D00021103FE0010B57F8211088474844BC49BE
:1026E000C0B2085CBBE7BB49020B51F82210884717
:1026F0000746601C82B2C0F30331B64850F821107F
:102700001046884747EA002101EB0A0016E0F16A0B
:10271000491CF1621AE0AF49020B51F822108847B8
:102720000746601C82B2C0F30331AA4850F821105A
:102730001046884747EA002101EB090080B2A41C3B
:10274000C1F30721020AA4B29142E0D1A149020BD0
:1027500051F82210884700E05BE3307378E700BF50
:1027600009F1010000F0FF0925F082059A4810F8F0
:102770000900A2E50AF1010000F0FF0A964825F0E1
:10278000820510F80A0098E5010B57F821108847D8
:102790008F4A641CA4B2115C491C8F4BC9B23173BF
:1027A0005B5C25F082051D43D3E38A49020B51F897
:1027B000221088470746601C82B2C0F30331854867
:1027C00050F821101046884747EA0027A41C81488A
:1027D000390BA4B250F8211038468847401CC1B2CA
:1027E0007D48317325F08205405C054301F07DBDD5
:1027F000010B57F82110884700EB090161F307002E
:1028000082B27348641CA4B2815C491C724BC9B289
:1028100031735B5C25F082051D43FCE36D49020BBF
:1028200051F8221088470746601C82B2C0F303317A
:10283000684850F821101046884700E0ECE347EA6A
:102840000020484487B2A41C6248390BA4B250F857
:10285000211038468847401CC1B25F48317325F0CB
:102860008205405C05431EE25A49020B51F82210D2
:102870008847641C5749C4F30332074651F82210B5
:10288000A0B2884747EA002084B2002001F05EBE73
:102890005049020B51F8221088470746601C82B24B
:1028A000C0F303314B4850F821101046884747EADF
:1028B00000274848390B50F821103846884760F304
:1028C0000704781C60F30707B8B24249020B51F8BD
:1028D00022108847B7E3002131733E49020B51F8BB
:1028E000221088470746601C82B2C0F30331394882
:1028F00050F821101046884747EA0021B26A641C4C
:10290000ABF10100230AC0B202F80B301454401E90
:1029100000F0FF0B0C4601F016BF010B57F8211019
:10292000884748442A49C0B2641C0A5CA4B2401CCF
:1029300051FA80F0007842EA002044E0010B57F899
:102940002110884781B22248405C07E08046F0E3CE
:10295000085CB2E4010B57F8211088473073641CFF
:1029600015E0020BB84657F8221088470746601C4E
:10297000C0F3033182B258F821101046884747EA65
:102980000020020B58F8221088473073A41CA4B210
:10299000DCE7D2E3010B57F8211088470C4930736C
:1029A0000A5C401C51FA80F00078641C42EA002165
:1029B00001EB0A0080B2020A090AA4B28A4202D0DC
:1029C000F16A491CF162010B57F8211055E033E21E
:1029D000EA04002014BD0020F4500008010B57F851
:1029E000211088474844FF49C0B2085CB6E7020B93
:1029F000B84657F8221088470746601CC0F30331D9
:102A000082B258F821101046884747EA002000EBB0
:102A10000A01A41C89B2A4B2C0F307200A0A01E08B
:102A20000BE1D5E2904202D0F06A401CF0620A0B42
:102A3000084658F82220904720E0020BB84657F885
:102A4000221088470746601CC0F3033182B258F851
:102A500021101046884747EA002101EB090080B2A7
:102A6000A41CC1F30721020AA4B2914202D0F16A68
:102A7000491CF162020B58F822108847307365E751
:102A8000010B57F82110884706E0010B57F8211079
:102A9000884781B2D348405C3073641CA4B242E0E2
:102AA000020BB94657F8221088470746601CC0F34E
:102AB000033281B259F822200846904747EA0020A5
:102AC000020B59F8221088473073A41CE6E7010B6B
:102AD00057F8211088475044C249C0B2085CDBE770
:102AE000020BB94657F8221088470746601CC0F30E
:102AF000033182B259F821101046884747EA002076
:102B000000EB0A0189B2A41CC0F307200A0AA4B290
:102B1000904202D0F06A401CF0620A0B084659F855
:102B2000222090473073814625F08205AE490FE799
:102B3000010B57F82110884706E0010B57F82110C8
:102B4000884781B2A748405C3073641CA4B241E05E
:102B5000020BBA4657F8221088470746601CC0F39C
:102B6000033281B25AF822200846904747EA0020F3
:102B7000020B5AF8221088473073A41CE6E7010BB9
:102B800057F82110884748449649C0B2085CDBE7F3
:102B9000020BBA4657F8221088470746601CC0F35C
:102BA000033182B25AF821101046884747EA0021C3
:102BB00001EB090080B2A41CC1F30721020AA4B2F0
:102BC000914202D0F16A491CF162020B5AF82210BC
:102BD00088473073824625F082058349B8E600BFF6
:102BE0004FEA580096E1010B57F8211088477D4ABB
:102BF000641C25F08305135CA4B2590803F001039B
:102C00001D43A2E17949020B51F82210884707467B
:102C1000601C82B2C0F30331744850F82110104692
:102C2000884747EA0020A41C7049020B074651F868
:102C30002210A4B288474108A8E13173D6E5010B00
:102C400057F82110884700EB090161F30700654937
:102C500083B2641CCA5C25F08305500802F00102AF
:102C60001543614AA4B2125CF5E36049020B51F8C6
:102C7000221088470746601C82B2C0F303315B48CC
:102C800050F821101046884747EA0020484487B290
:102C9000A41C5648390BA4B250F821103846884776
:102CA0004108B5E131733846FFF7F5BA010B57F823
:102CB0002110884748444B49C0B2641C0A5CA4B246
:102CC000401C51FA80F0007842EA002045E0010BF8
:102CD00057F82110884781B24248405C07E000BFA6
:102CE00048EA0001B6E4010B57F821108847307319
:102CF000641C17E03D49020B51F822108847074633
:102D0000601C82B2C0F30331384850F821101046DD
:102D1000884747EA00203549020B51F822108847BE
:102D20003073A41CA4B2DBE7010B57F821108847CD
:102D30002C4930730A5C401C51FA80F00078641C06
:102D400042EA002101EB0A0080B2020A090AA4B299
:102D50008A4202D0F16A491CF162010B57F8211036
:102D60003FE0010B57F82110884748441D49C0B285
:102D7000085CBCE71D49020B51F822108847074642
:102D8000601C82B2C0F30331184850F8211010467D
:102D9000884747EA002101EB0A0016E0F16A491C66
:102DA000F1621AE01149020B51F8221088470746D8
:102DB000601C82B2C0F303310C4850F82110104659
:102DC000884747EA002101EB090080B2A41CC1F347
:102DD0000721020AA4B29142E0D10449020B51F842
:102DE000221005E0EA040020F450000814BD002081
:102DF0008847307374E7284668F35F000146F84A55
:102E0000C0B2C1F30721125C0A4325F0830142EAF4
:102E1000010599E2010B57F821108847F14B024652
:102E20002846995C641C61F35F000746C1B2EC4818
:102E3000A4B2405C40EA172025F083050543F6E381
:102E4000E949020B51F8221088470746601C82B2FC
:102E5000C0F30331E44850F821101046884747EA90
:102E60000020A41CE049020B074651F82210A4B22E
:102E70008847294660F35F010846D94AC9B2C0F3C2
:102E80000720525C024325F0830042EA0005D4E6A5
:102E900013E2010B57F82110884700EB090161F399
:102EA0000700D04A83B22846D15CCD4F61F35F0062
:102EB000C1B2641C7F5CA4B247EA102725F08300EE
:102EC00047EA00055EE3C849020B51F82210884723
:102ED0000746601C82B2C0F30331C34850F821108A
:102EE0001046884747EA0020484487B2A41CBE48E1
:102EF000390BA4B250F8211038468847294660F3B0
:102F00005F010846B64AC9B2525CD6E34FEA5800A0
:102F100040EAC51025F0830508F001010D43B049D2
:102F2000C0B2095C0D430FE2010B57F8211088472E
:102F3000AC4A641CA4B2115C4B0843EAC51325F0EB
:102F4000830501F001010D43D9B2A54B5B5C1D4324
:102F500031738BE2A449020B51F8221088470746CF
:102F6000601C82B2C0F303319F4850F82110104614
:102F7000884747EA0020A41C9B49020B074651F8EA
:102F80002210A4B28847410841EAC51125F0830503
:102F900000F0010005439248C9B2405CF6E3010B22
:102FA00057F82110884700EB090161F307008D49AC
:102FB00082B2641C885CA4B2430843EAC51325F0BE
:102FC000830500F001000543D8B2854B1B5C1D430F
:102FD0003073FDE38449020B51F8221088470746FD
:102FE000601C82B2C0F303317F4850F821101046B4
:102FF000884747EA0020484487B2A41C7A48390B26
:10300000A4B250F8211038468847410841EAC5115A
:1030100025F0830501E07EE28CE000F0010005432D
:103020006F48C9B2405CFCE30BF10100C1B2B06A69
:10303000455C491CC9B2425C491C01F0FF0B62F3BC
:10304000070410F80B0060F30F2464E40BF1010097
:10305000B16AC0B20A5C401C00F0FF0B62F30704C7
:1030600011F80B0060F30F24641CA4B253E4010BAD
:1030700057F8211088474844C1B25A48641CA4B28A
:10308000425C491C50FA81F0007842EA0020010BB2
:1030900057F82110884702463073A8EB020045F329
:1030A0000001401A401E81B24D4BC8B205F00C051C
:1030B0001B5C2B4388EA020580EA08021540402287
:1030C00002EA5502090A03D000210A4313433AE1F8
:1030D0000121FAE7010B57F82110884781B24148D6
:1030E00045F30002641C415C3173A8EB0100801AB7
:1030F000401E83B23A4AD8B2A4B2175C05F00C0263
:10310000174388EA010280EA08010A40402101EAE7
:1031100052011A0A04D00022114347EA010513E1C3
:103120000122F9E7010B57F8211088473073641C1E
:103130001CE0FDE3104343EA0005C1E02A49020B0D
:1031400051F8221088470746601C82B2C0F3033151
:10315000254850F821101046884747EA00202249A8
:10316000020B51F8221088473073A41C1FFA84F414
:10317000A8EB000145F30002891A491E8AB2184BD8
:10318000D1B205F00C055B5C2B4388EA000581EAAF
:1031900008000540402000EA5500120A26D000220F
:1031A000C8E7010B57F8211088470E4930730A5CB5
:1031B000401C51FA80F00078641C42EA002101EBC7
:1031C0000A0080B2020A090AA4B28A4202D0F16A55
:1031D000491CF162010B57F8211088473073C7E78B
:1031E000F4500008EA04002014BD00200122A1E7E9
:1031F000010B57F8211088474844FF49C0B2641CAE
:103200000B5C45F30001A8EB0300401A401E81B29D
:10321000FA4AC8B23373125C05F00C052A4388EAF7
:10322000030580EA08031D404023A4B203EA5503C6
:10323000090A04D000210B431A43FEF78CBE01217A
:10324000F9E7EF49020B51F8221088470746601C46
:1032500082B2C0F30331EA4850F821101046884783
:1032600047EA002101EB0A0080B2A41CC1F3072148
:10327000020AA4B2914202D0F16A491CF162E0490B
:10328000020B51F822108847A8EB000145F3000219
:10329000891A491E8BB2D94AD9B23073525C05F0F3
:1032A0000C052A4388EA000581EA08000540402011
:1032B00000EA55001B0A05D00023184342EA000526
:1032C0008846C2E60123F8E7CD49020B51F82210E7
:1032D00088470746601C82B2C0F30331C84850F8E3
:1032E00021101046884747EA002101EB090080B20F
:1032F000A41CC1F30721020AA4B2914202D0F16AD0
:10330000491CF162BE49020B51F822108847014660
:103310003073A8EB010045F30002801A401E82B210
:10332000B64BD0B205F00C051B5C2B4388EA0105B7
:1033300080EA08010D40402101EA5501120A05D03A
:10334000002211430B431D4680467EE60122F8E72A
:10335000010B57F8211088474844A749C0B2641CA4
:103360000A5CA4B2401C51FA80F0007842EA0020C6
:103370001CE0010B57F821108847641CA4B286F8A2
:103380000C80414671E09E49020B51F8221088479B
:103390000746601C81B2C0F30332994850F82220DE
:1033A0000846904747EA0020A41C19E09449020B04
:1033B000403186F80C8051F822204146FBE3010B96
:1033C00057F8211088478C4982B2401C8A5C51FA18
:1033D00080F00078641C42EA002101EB0A0080B210
:1033E000A4B2E3E7010B57F82110884700EB09016D
:1033F00061F30700641CA4B286F80C80414688E0A3
:103400007F49020B51F8221088470746601C81B2A1
:10341000C0F303327A4850F822200846904747EA22
:103420000020A41CA4B2504413E07549020B51F8CB
:10343000221088470746601C82B2C0F303317048EF
:1034400050F821101046884747EA0020A41CA4B277
:10345000484480B2AAE720E3010B57F821108847BF
:10346000641CA4B286F80C904946634A1154ECE5FA
:103470006349020B51F8221088470746601C82B24C
:10348000C0F303315E4850F8211010468847A41C51
:1034900047EA0020A4B286F80C90FDE3010B57F830
:1034A0002110884700EB0A0161F30700641CA4B2F5
:1034B00086F80C9049462CE0010B57F821108847FC
:1034C000641CA4B286F80CA05146CEE74C49020B0E
:1034D00051F8221088470746601C82B2C0F30331BE
:1034E000474850F8211010468847A41C47EA00209E
:1034F000A4B286F80CA0FCE3010B57F82110884712
:1035000000EB090161F30700641CA4B286F80CA06B
:10351000514682B23848815497E5F17A0029A6D104
:10352000010B57F8211088474844C1B23248641C47
:10353000A4B2425C491C50FA81F0007842EA0020B3
:10354000010B019057F8211088474000C1B241EAB1
:10355000080271E1F17A002989D1010B57F8211095
:103560008847254A0346641CD05C25F08305470044
:10357000F9B2224841EA0808A4B210F8080040EA6B
:10358000172005433173D1545FE5F17A0029C3D187
:103590001B49020B51F8221088470746601C82B273
:1035A000C0F30331164850F821101046884747EA07
:1035B0000020A41C1249020B074651F82210A4B2A5
:1035C00088474000C1B241EA080205E1F17A0029CA
:1035D000A2D1010B57F821108847074982B2401C3D
:1035E0008A5C51FA80F00078641C42EA002101EB09
:1035F0000A0080B2A4B205E0EA040020F4500008FA
:1036000014BD0020010B019057F82110884742009B
:10361000D1B2FD4841EA0808C2F3072210F80800B9
:10362000104325F0830240EA020531733EE3AAE02D
:10363000F17A0029A8D1010B57F82110884700EB37
:10364000090161F30700F14987B2641CC85DEE4BC4
:103650004200D0B240EA0808A4B213F80830307330
:1036600043EA122325F0830243EA0205C855ECE43D
:10367000F17A002988D1E649020B51F822108847D7
:103680000746601C82B2C0F30331E14850F82110B4
:103690001046884747EA00205044A41C80B2DC4909
:1036A000020BA4B251F82210074688474000C1B26D
:1036B000D54A41EA080812F80820C0F3072002435F
:1036C00025F0830042EA0005FFF7ECBAF17A002901
:1036D000CDD1CF49020B51F8221088470746601C14
:1036E00082B2C0F30331CA4850F82110104688470F
:1036F00047EA00204844A41C80B2C549020BA4B28A
:1037000051F82210074688474200D1B2BE4841EA2C
:103710000808C2F3072210F80800104325F08302BE
:1037200040EA0205D0E7F17A0029A0D1010B57F851
:10373000211088474844B549C0B2641C0A5CA4B251
:10374000401C51FA80F0007842EA0020019066E0C7
:10375000F17A00298BD1010B57F821108847AB4B28
:1037600002462846995CA84F61F35F00C1B201EAA6
:103770000808641C17F80870A4B247EA102725F05F
:10378000830047EA0005317399545EE43AE1F17A27
:103790000029FAD19E49020B51F8221088470746AA
:1037A000601C82B2C0F30331994850F821101046D2
:1037B000884747EA0027A41C9548390BA4B250F863
:1037C0002110384688470146284661F35F0000E033
:1037D000F8E3C1B201EA080290468B4AC0F3072021
:1037E00012F80820024325F0830042EA0005FFF7A3
:1037F00024BAF17A0029C8D1010B57F82110884763
:10380000824982B2401C8A5C51FA80F00078641CC4
:1038100042EA002101EB0A0080B2A4B20190010B40
:1038200000E080E157F821108847294660F35F01E6
:103830000846C9B201EA08029046734AC0F307205D
:1038400012F80820024325F0830042EA0005ECE666
:10385000F17A002999D1010B57F82110884700EB24
:10386000090161F30700694A83B22946D05C664FBB
:1038700060F35F01C8B200EA0808641C17F808701A
:10388000307347EA112725F08301A4B247EA010506
:10389000D05416E5F17A0029FBD15D49020B51F8AD
:1038A000221088470746601C81B2C0F30332584893
:1038B00050F822200846904747EA00205044A41CB4
:1038C00080B25349020BA4B251F822100746884730
:1038D000294660F35F010A46C9B24B4801EA08086D
:1038E000C2F3072210F80800104325F0830240EAD3
:1038F0000205E9E6F17A0029CBD14549020B51F8DE
:10390000221088470746601C82B2C0F3033140484A
:1039100050F821101046884747EA00204844A41C6C
:1039200080B23B49020BA4B2074651F8221000E0D6
:103930000EE38847294660F35F010846C9B2324A60
:1039400001EA0808C0F3072012F80820024325F016
:10395000830042EA0005B7E6F17A002999D1010B0C
:1039600057F82110884748442849C0B2641C0A5CB3
:10397000A4B2401C51FA80F0007842EA0020019085
:103980005EE0F17A002984D1010B57F821108847B5
:103990001E4A0146641C535C25F08305580803F059
:1039A00001031D43184B80EA0808A4B213F808303D
:1039B0001D4369E2F17A00299ED11549020B51F8A5
:1039C000221088470746601C82B2C0F303311048BA
:1039D00050F821101046884747EA0027A41C0C48DD
:1039E000390BA4B250F8211038468847C0F347017C
:1039F00025F0830500F001000543034881EA08082B
:103A000010F808000543F2E6F4500008EA0400202C
:103A100014BD0020F17A0029A0D1010B57F8211024
:103A20008847FE4982B2401C8A5C51FA80F00078D7
:103A3000641C42EA002101EB0A0080B2A4B20190AA
:103A4000010B57F821108847C0F3470125F0830583
:103A500000F001000543F24881EA080810F8080068
:103A60000543E2E5F17A00298DD1010B57F82110C9
:103A7000884700EB090161F30700E84983B2641C41
:103A8000CA5C25F08305500802F001021543E44AA0
:103A900080EA0808A4B212F8082030731543C8540D
:103AA000CAE2F17A0029FBD1DE49020B51F822105B
:103AB00088470746601C82B2C0F30331D94850F8EA
:103AC00021101046884747EA0020A41CA4B25044A5
:103AD00016E0F17A0029E3D1D249020B51F8221005
:103AE00088470746601C81B2C0F30332CD4850F8C6
:103AF00022200846904747EA0020A41CA4B248446C
:103B000080B2C849020B074651F822108847C0F31B
:103B1000470125F0830500F001000543C04881EA14
:103B2000080810F808000543CEE5F17A0029B7D15E
:103B3000010B57F8211088474844B849C0B2641CAB
:103B40000A5CA4B2401C51FA80F0007842EA0020DE
:103B5000019084E0F17A0029A2D1010B57F82110DD
:103B60008847AE4B0246641C985CA4B2410841EA07
:103B7000C51160F30005CFB208EB070005F00101A5
:103B80000844C0F3072CC1B2A548377305F00C05F3
:103B9000405C9F544CEA000C81EA080088EA070860
:103BA00020EA08004FF0400808EA500028434CEA99
:103BB0000005884640E2FDE3F17A0029FAD19949EF
:103BC000020B51F8221088470746601C82B2C0F3EE
:103BD0000331944850F821101046884747EA0027DF
:103BE000A41C9048390BA4B250F8211038468847DD
:103BF000410841EAC51160F30005C9B208EB0100B4
:103C000005F001021044C0F30722854BC0B23173A6
:103C10001B5C80EA080C1A4388EA01032CEA030CB7
:103C2000402303EA5C0305F00C052B4342EA03053D
:103C30005AE3F17A0029BDD1010B57F821108847CA
:103C4000764982B2401C8A5C51FA80F00078641C8C
:103C500042EA002101EB0A0080B2A4B20190010BFC
:103C600057F821108847410841EAC51160F3000563
:103C7000C9B208EB010005F001021044C0F30722AD
:103C8000674BC0B231731B5C80EA08071A4388EAAD
:103C900001039F43402300E0F0E303EA570300BF22
:103CA00005F00C052B4342EA03058046A5E1F17AB5
:103CB0000029C0D1010B57F82110884700EB0901FA
:103CC00061F30700554B87B2641CD85DA4B241086C
:103CD00041EAC51160F30005CAB208EB020005F025
:103CE00001010844C0F3072CC1B24D483273405C57
:103CF00000E0F9E34CEA000C81EA080088EA0208D7
:103D000020EA08004FF0400808EA500005F00C05D2
:103D100028434CEA00058846DA558DE1F17A0029FE
:103D2000FBD14049020B51F8221088470746601C1E
:103D300081B2C0F303323B4850F822200846904736
:103D400047EA00205044A41C80B23649020B01907F
:103D5000A4B251F8221085E7F17A0029DDD131496A
:103D6000020B51F8221088470746601C81B2C0F34D
:103D700003322C4850F822200846904747EA00209A
:103D80004844A41C80B22749020B019051F822102C
:103D9000A4B28847410841EAC51160F30005C9B2E1
:103DA00008EB010005F001021044C0F307221C4B90
:103DB000C0B231731B5C88EA01071A4380EA08032A
:103DC000BB43402707EA53036AE7F17A0029A4D1ED
:103DD000010B57F8211088474844C1B20F48641CB2
:103DE000A4B2425C491C50FA81F0007842EA0020FB
:103DF000010B019057F82110884708EA090114E4E3
:103E0000F17A002989D1010B57F821108847641CE9
:103E1000A4B2024A08EA0901FFF79AB8EA040020AE
:103E2000F450000814BD0020F17A002996D1FF4912
:103E3000020B51F8221088470746601C82B2C0F37B
:103E40000331FA4850F821101046884747EA002706
:103E5000A41CF648390BA4B250F821103846884704
:103E600008EA0901C3E4F17A0029B0D1010B57F83F
:103E70002110884700EB0A0161F30700641C81B23E
:103E8000EB4AA4B208EA090030735054D4E0F17A46
:103E90000029FBD1010B57F8211088474844E44919
:103EA000C0B2641C0A5CA4B2401C51FA80F00078D5
:103EB00042EA0020010B57F82110884745E0F17ACB
:103EC0000029E3D1010B57F82110884781B2D84867
:103ED000405C4EE0F17A0029D8D1020BB84657F881
:103EE000221088470746601CC0F3033182B258F89D
:103EF00021101046884747EA0020020B58F822108C
:103F000088473073A41CA4B220E0F17A0029BDD107
:103F1000010B57F821108847C54930730A5C401CD3
:103F200051FA80F00078641C42EA002000EB0A019C
:103F300089B20A0A000AA4B2824202D0F06A401C86
:103F4000F062080B57F8202039E030738046814634
:103F500025F08205B7494046FEF7FABCF17A002900
:103F600094D1010B57F8211088475044B049C0B292
:103F7000085C3073641CC6E7F17A002986D1020B15
:103F8000B84657F8221088470746601CC0F3033133
:103F900082B258F821101046884747EA002000EB0B
:103FA0000A0189B2A41CC0F307200A0AA4B29042F5
:103FB00002D0F06A401CF0620A0B58F82220084632
:103FC0009047C2E7B2E0F17A002985D1010B57F89A
:103FD0002110884748449649C0B2641C0A5CA4B2C8
:103FE000401C51FA80F0007842EA002001906BE01A
:103FF0001543C2B28F48805C05430198FEF74BB968
:10400000F17A0029ACD1010B57F821108847884B71
:10401000641CA4B2195C25F08305491ECAB2A8EB42
:10402000020189B232730F0A07D000273D43CFB295
:104030008049C95D1A540D4385E30127F6E7F17AFB
:104040000029F9D17949020B51F822108847074617
:10405000601C82B2C0F30331744850F8211010463E
:10406000884747EA0020A41C7049020B074651F814
:104070002210A4B28847401EC1B2A8EB010080B252
:10408000317325F08305020A06D000221543C2B21F
:104090006848805CFEF7A9BB0122F7E7F17A0029A6
:1040A000CAD1010B57F821108847614982B2401CE0
:1040B0008A5C51FA80F00078641C42EA002101EB2E
:1040C0000A0080B2A4B20190010B57F82110884772
:1040D000401EC1B2A8EB010080B2317325F0830508
:1040E000020A01D0002283E7012281E7F17A002948
:1040F000A2D1010B57F82110884700EB090161F3A9
:1041000007004B4982B2641C885CA4B2401EC0B256
:10411000A8EB00039BB2307325F083051F0A07D07C
:1041200000273D43DFB2434BDB5D1D4388540AE368
:104130000127F6E7F17A0029F9D13C49020B51F841
:10414000221088470746601C82B2C0F3033137480B
:1041500050F821101046884747EA0020A41CA4B25A
:1041600050441FE0012200E000221543C2B2314852
:10417000805CFEF777BBF17A0029D8D12B49020B7E
:1041800051F8221088470746601C82B2C0F3033101
:10419000264850F821101046884747EA0020A41C02
:1041A000A4B2484480B22149020B074651F82210BC
:1041B0008847401EC1B2A8EB010080B2317325F0E0
:1041C0008305020AD0D1CDE7F17A0029AFD1010BE6
:1041D00057F82110884748441549C0B2641C0A5C4E
:1041E000A4B2401C51FA80F0007842EA002001900D
:1041F00095E0012200E0002215431D4355E5F17AC8
:10420000002994D1010B57F821108847DFF820C00E
:104210000146641C1CF8010045F30003401CC2B2B7
:10422000A8EB0200A4B23273C01A05E014BD00204E
:10423000EA040020F4500008401E83B2FD4FD8B2BB
:1042400005F00C053F5C3D4388EA020780EA080858
:1042500007EA08074FF0400808EA57071B0A06D08C
:1042600000231F433D4380460CF801206BE20123ED
:10427000F7E7F17A0029F9D1EF49020B51F8221042
:1042800088470746601C82B2C0F30331EA4850F801
:1042900021101046884747EA0020A41CE649020B7B
:1042A000074651F82210A4B28847401CC1B2A8EBBF
:1042B000010045F30002801A401E82B2DD4BD0B2ED
:1042C00031731B5C05F00C052B4388EA010580EA7D
:1042D000080C05EA0C054FF0400C0CEA5505120AD3
:1042E00005D0002215431D438046B8B286E6012260
:1042F000F8E7F17A002949D1010B57F821108847D6
:10430000CE4982B2401C8A5C51FA80F00078641C6D
:1043100042EA002101EB0A0080B2A4B20190010B35
:1043200057F821106AE0F17A81BB010B57F8211090
:10433000884700EB090161F30700DFF800C383B28F
:1043400045F300021CF80300641C401CC1B2A8EB3A
:104350000100801A401E82B2B64FD0B231733F5C6A
:1043600005F00C053D4388EA010780EA080807EAE2
:1043700008074FF04008A4B208EA5707120A06D00F
:10438000002217433D4380460CF80310DBE1012275
:10439000F7E7F17AF1BBA849020B51F822108847E0
:1043A0000746601C81B2C0F30332A34850F82220B4
:1043B000084600E05DE1904747EA0020A41CA4B253
:1043C000504415E0F17A29BB9B49020B51F82210A9
:1043D00088470746601C82B2C0F30331964850F804
:1043E00021101046884747EA0020A41CA4B2484484
:1043F00080B29149020B019051F822108847401C6D
:10440000C1B2A8EB010045F30002801A401E3173CF
:1044100082B200E050E0874BD0B205F00C051B5C87
:1044200080EA08072B4388EA01053D40402707EA58
:104430005505120A7FF4DFAEDBE6F17AE1BB010B32
:1044400057F821108847641C307308EA0001A4B2B1
:1044500048080DE0F17A79BB010B57F82110884725
:10446000641C307308EA00014808A4B240EAC51091
:1044700025F0830501F00101FEF750BDF3E0F17A6C
:10448000D1B9010B57F821108847641C3073A4B2CE
:1044900009EA00018846FDF7F1BDF17A61B9010B27
:1044A00057F8211088473073641C40F0EE00A4B226
:1044B00000EA0808FDF797BC40E0F17AF1BB010B78
:1044C00057F821108847641C307309EA0801081A5C
:1044D00080B200F0FF09A4B225F08305000A00D0E5
:1044E00001200543FEF742B98BE0F17A31BB601C35
:1044F00002E0F17A11BBA01C84B224E1F17AE9B99F
:104500004D49020B51F8221088470746601C82B2C1
:10451000C0F30331484850F821101046884747EA55
:10452000002000EB090189B2A41CC0F307200A0A8D
:10453000A4B2904204D0F06A401C00E03DE0F0627A
:104540003D480A0B50F82220084690473073FAE0A5
:10455000A4F5A041043903D0F07A70BBFDF7FBBE8F
:1045600002207072F4E0F17A39BB020BBB4657F8B7
:10457000221088470746601CC0F3033182B25BF803
:10458000211010468847A41C47EA0020A4B25044DA
:10459000611E87B2C1F3033288B25BF822108847EC
:1045A00008EA0901401C00EA010B23493A0B40319B
:1045B000384651F8222059465BE041E0F17AF9BBD8
:1045C0001D49020B51F8221088470746601C82B231
:1045D000C0F30331184850F8211010468847A41C36
:1045E00047EA0020A4B24844611E87B288B2C1F3F2
:1045F0000332114951F822108847401C00EA0A0A88
:1046000038460D49020B403151F82220514630E026
:10461000F17AA9B90849020B51F8221088470746D8
:10462000601C82B2C0F30331034850F821101046D9
:10463000884706E0F450000814BD0020EA0400207A
:104640005AE0A41C47EA0020A4B25044611E87B27D
:1046500088B2C1F303325B4951F822108847401CED
:1046600000EA090938465749020B403151F8222027
:104670004946904767E0F17AF1BB010B57F82110EA
:104680008847514982B2401C8A5C51FA80F0007818
:10469000641C42EA002101EB0A0080B2010B019088
:1046A00057F82110A4B288473073611E88B2C1F355
:1046B000033157F82110884708EA0901401C0140DE
:1046C000FEF7B3BFF17AB9B93E49020B51F8221097
:1046D00088470746601C82B2C0F30331394850F85E
:1046E00021101046884747EA00205044A41C87B296
:1046F000A4B2390B334800E025E050F821103846C9
:104700008847611E307388B2C1F303322D4951F8D6
:1047100022108847411C08EA09000140FEF7C2BA8E
:10472000F17A81B9010B57F821108847641C08EA17
:10473000000825F083013073A4B241EAD81523485C
:1047400010F808000543F16A02988142FDF45CA864
:10475000348286F8038086F8049086F805A086F8EF
:1047600007B0B571F16A0098081ABDE8FE8FF17ABA
:104770000029E8D1020BB84657F8221088470746AF
:10478000601CC0F3033182B258F8211010468847EC
:1047900047EA002101EB0A0080B2A41CC1F3072103
:1047A000020AA4B2914202D0F16A491CF162020BE2
:1047B00058F8221088470BEA000BD8463073C146E0
:1047C00069E6000014BD0020EA040020F45000084F
:1047D000F8B54FF400613748FBF72AFD4FF400515C
:1047E0003548FBF725FD4FF480513448FBF720FD99
:1047F0004FF400413248FBF71BFD33483149304B41
:104800008162324C4BF6C452002144F23C255618CA
:10481000675C1E44A6F50046491C3770A942F6D3D2
:10482000264920224BF634630A70ADF80030A1F11E
:104830003203BDF8004023F8334FF224CC700A71E4
:104840004FF2D022ADF800209A804C22CA71032288
:104850000A7250224A72002141710171C170042113
:104860008171FF21C1711B4819491F4A41600160D4
:104870001949C160816019490161194941611949AA
:10488000C161816100F14001184B4A60CB608B60CF
:104890000A60174A0A61174A4A61174ACA618A615F
:1048A000164C082240F8224041F82230521C102AAF
:1048B000F8DBF8BDEA040020EA0C0020EA2C002016
:1048C000EA3C0020EA05002024000020F451000802
:1048D0006113000814BD00204B1300089913000851
:1048E0005113000889130008C1150008AF1500080E
:1048F000E1150008B1150008D11500087113000872
:1049000070B529494FF4A0420A8200B90120401E27
:10491000C870087A087100204871FF22CA71487275
:1049200008634FF4804444F20F05C862A0B200212E
:10493000FCF756FE641CAC42F8DB002144F2100088
:10494000FCF74EFE002144F21200FCF749FE002164
:1049500044F21300FCF744FE002144F21400FCF77B
:104960003FFE44F2150400212046FCF739FE0F21DA
:104970002046FCF735FE0021A01CFCF731FE0C4A56
:1049800000200A49A2F5405306E0022804DB02EBAE
:104990000034A4F5005401E003EB003441F820405A
:1049A000401C0A28F1DB70BD24000020ECBC002074
:1049B000EA3C00200020074A01E0102802D2C0F1A2
:1049C0000F0101E0A0F110011154401CC0B22028D9
:1049D000F3D37047980000201CB5FCF7ADF8FCF746
:1049E0002FFDFCF753FC90480025016841F40011AD
:1049F000016000682A4600F400100090294610204B
:104A0000FCF7FAF81020FCF7E9F889490095874887
:104A1000019508600846FBF706FD0420CDE9000576
:104A2000002269468248FBF7D0FC8148009514308B
:104A300080490195C0E9001540F2DF51C0E90251FB
:104A40008561FCF7DFFB2020CDE900057848694649
:104A50001430FCF78FFBFFF7BBFE0020FFF750FF81
:104A6000FFF7A8FF72481430FCF7FCFB00217048E8
:104A7000FBF73EFD4FF480736F4A00216C480095B0
:104A8000FBF76CFD45F203074FF4A04A42F6F67BB4
:104A90004FF00109694E4FF40048694C0EE0E06A9E
:104AA000401CFCF799FE208A504504D3A0F5A04095
:104AB0000A38584502D284F8019002E0208AB842B0
:104AC000EDD1FCF72BF86169401A04283CD3FCF7C0
:104AD00025F86061FCF7FCFDA07880BBE08970B32D
:104AE000607801282BD04FF4C047208AB84210D2FA
:104AF000E06A401CFCF770FE208A504507D3A0F501
:104B0000A0400A38584502D3607A0128EDD184F8D4
:104B1000019045F20707208AB84210D0E06A401C95
:104B2000FCF75AFE208A504507D3A0F5A0400A386A
:104B3000584502D3607A0128EDD184F80190A0781D
:104B4000401C00F00300A070FBF7E8FFA169401AC9
:104B5000322802D3FBF7E2FFA061B4F90E70FBF735
:104B6000DDFFE169401AF91707EB917121F00301AC
:104B7000791AC1F1040101EBC10202EB0111B0EBA2
:104B8000810F06D3FBF7CAFFE06102212D48FBF736
:104B9000B8FFFBF7C3FF216A401A0A2817D36078D1
:104BA000012140F300022748521CFBF7B1FF607857
:104BB000202140F340023046521CFBF7A9FF6078E9
:104BC000102140F380023046521CFBF7A1FFFBF797
:104BD000A5FF616A401A3228FFF46FAFFBF79EFF12
:104BE0006062474641463046FBF786FF08B92078A9
:104BF00058B139463046FBF77FFF00283FF45DAFE0
:104C000020780028FAD025705BE784F80090E089CE
:104C1000401C02B2122092FBF0F100FB1120E28155
:104C2000C0B2FFF76DFE4CE7303802400074004020
:104C300094BD002000100040B80000200008024091
:104C40002400002000040240F0B50023DFED2F1AFD
:104C50009FED2F1A02EB420652E0D518CC5C4D5D59
:104C6000641950D000EE104A9FED2A2AF8EE400A4F
:104C700082EE200A9FED282A70EE010A82EE200AB9
:104C800003EB42040D5DF4180C5DE54202D1F0EE39
:104C9000610A1BE000EE905ADFED202AF8EE600A70
:104CA00080EEA22A00EE904ADFED1D2AF8EE600A9F
:104CB00080EEA23AF7EE002A32EE032AC2EE820A12
:104CC000DFED182A30EE812AC2EE820A30EE200A89
:104CD000DFED150A20EE200AF5EE000A20EE200A8C
:104CE000BCEEC00A10EE104AA4B220F81340B4F58E
:104CF000805F03D340F6FF7420F813405B1C9BB227
:104D00009342AAD3F0BDB0EE610AB9E700000000FB
:104D10000000C8420000FE458FC2BF42008C004622
:104D200000443F463DCA1F4300F07F4570B553899C
:104D3000002B3FD0937993B1937B83B19378F6EEB8
:104D4000000A03F00F0300EE103AB8EE400A20EE1E
:104D5000200ABCEEC00A10EE103ADBB200E00023DD
:104D60001381002324E01478E40703D0C45C157A8F
:104D70002C44C454948955891034B4FBF5F605FBD2
:104D80001644A4B29481102C10D2157914882D06E3
:104D900001D5062500E0012524FA05F5654005F05A
:104DA0000105C4F34D0444EA853414805B1C9BB2B6
:104DB0008B42D8D370BD0000F0B51389002B2BD0E7
:104DC00013792BB1937B1BB1137803F00F0300E031
:104DD0000023D3800023114D1CE016789489B60976
:104DE00005EBC606A45D1CB1C45C96793444C4547A
:104DF000548916891034B4FBF6F706FB1744A4B2A5
:104E00005481102C04D2147B641C04F00704948198
:104E10005B1C9BB28B42E0D3F0BD0000030000207E
:104E2000F0B51389002B29D0012B27D013792BB192
:104E3000937B1BB1D37B0BB1012300E00023D38014
:104E400000230F4D18E0948996792C5D7443C65C5D
:104E50003444C454548916892034B4FBF6F706FB55
:104E60001744A4B25481202C04D2147B641C04F097
:104E70001F0494815B1C9BB28B42E4D3F0BD000005
:104E800098000020032907D1817921B141790B4A8B
:104E900002EBD101097881730179084A01F00F0111
:104EA000343232F81110418182898A4204D3B2FB34
:104EB000F1F301FB1321818170470000A04F00082E
:104EC00010B5C2780023032908D1017929B10D4911
:104ED00001EBD2010978817300E08373817802F0DD
:104EE0000702012404EB022211440181092900D2A6
:104EF000C38042898A4204D3B2FBF1F301FB132140
:104F0000418110BDA04F0008C2780123032907D1B9
:104F1000017919B10A4901EBD2010978817303744F
:104F2000817802F0070203EB0222114401814289D9
:104F30008A4204D3B2FBF1F301FB13214181704794
:104F4000A04F000870B50C46064689001248FBF7D2
:104F50006FF9114A2146323A0F48FFF72DFF0E4DE7
:104F600021462819A5F12202FFF726FF05EB440090
:104F7000A5F112022146FFF753FF04EB4400284439
:104F8000064A2146FFF7D2FE224629463046BDE8B2
:104F90007040FFF759BE0000EA02002058000020D0
:104FA0000AFE140228045006A0083C0A0E0C1A0E31
:104FB0000C10181230146016C018481A101C201E4D
:104FC00001010101010001000100010101000100D6
:104FD00001000001040008001000200040006000F3
:104FE0008000A000CA00FE007C01FC01FA02F80368
:104FF000F207E40F07060008030305050302020297
:10500000040406060205000804040606020402075A
:10501000040407070606000803030505040202024C
:10502000040406060205000804040606020402073A
:10503000040407070606000803030505030202022D
:10504000030406060205000804040606020402071B
:10505000040407070606000803030505040202020C
:1050600005040606020500080404060602040207F9
:1050700004040707020602060303030302020202F6
:1050800004040404020600060404040402050205E4
:1050900005050505020602060303030302020202D8
:1050A00004040404020500050404040402040204C8
:1050B00004040404020602080303050502020202B6
:1050C000040406060205000804040606020402079A
:1050D0000404070702060208030305050202020290
:1050E000040406060205000804040606020402077A
:1050F0000404070702000000000000000000000098
:10510000000000000000000000000000000000009F
:10511000000000000000000000000000000000008F
:10512000000000000000000000000000000000007F
:10513000000000000000000000000000000000006F
:10514000000000000000000000000000000000005F
:10515000000000000000000000000000000000004F
:10516000000000000000000000000000000000003F
:10517000000000008080808080808080808080802F
:10518000808080808080808080808080808080801F
:10519000808080808080808080808080808080800F
:1051A00080808080808080808080808080808080FF
:1051B00080808080808080808080808080808080EF
:1051C00080808080808080808080808080808080DF
:1051D00080808080808080808080808080808080CF
:1051E00080808080808080808080808080808080BF
:1051F0008080808048A200BD00BE9500E8D0F8BD48
:1052000000BF9D0007E8D0F768A007C90D900938D6
:10521000E90DA000A24086FCC9079004C838E90740
:10522000AAA901E000F0050ACA4CF3BD99F4006098
:10523000004FD0010028200005EB0000000008000E
:10524000000000000000000000000000000000005E
:10525000000000000000000000000000000000004E
:1052600000000001AABD44BEA2004CC4BD00000065
:105270000000000000020103040C0A07080B0509E6
:105280000D0F0E101112131400000000000000009A
:10529000000000000000000000000000000001010C
:1052A00001010100000000000000000000000000FB
:1052B00000000000000028606060606000000000E6
:1052C00000000000000000000000000000000000DE
:1052D00000000000000000000000000000000000CE
:1052E00000000000000101000000000000000000BC
:1052F0000000000000000000000000000000B0E01E
:10530000000000000000000000000000000000009D
:105310000000000000000090A6019F1300000000A4
:10532000180000000801FA11273E000000000000EC
:10533000000130000000000000002800070000000D
:1053400002000000000100000000000000FFFF005C
:105350002490010000010801000001000A00080279
:10536000FFFF000000000000000301000C0000002F
:1053700000000200000000000000008000000105A5
:10538000C20000000128000000000200000100002F
:10539000000200000100000000000000000000000A
:1053A0000100030000000000101E00000000000AC1
:1053B00000000000000000090018000000000000CC
:1053C00000000000000000000000000000000000DD
:1053D00000000000000000A1185A6ADE0BB70000B0
:1053E000BD01000905030E0309050E0000000000C1
:1053F00030B80000000000120000000000000000B3
:10540000000000000000000000000000000000009C
:10541000000000000000000000000000000000008C
:10542000000000000000000003080700000000A5C5
:105430006900959FC5023010BD3304C9809009A54D
:1054400002959FA9009D330468F02BA50249FFA88F
:10545000C88407BD330438E5019D3304B59FE900D6
:10546000959FC5071010BD3304C980B009A50795E5
:105470009FA9FF9D330460B50F480AB01268F0037E
:105480004C82C8AD1F072907C907F00E4CCCC06875
:10549000290FA8B90F00D002950F60030306060676
:1054A000060606070707050904050608090A060B8C
:1054B0001040B0B08040408040F0F0F0A56D38E979
:1054C00004856DAD250738E9048D2507AD1A073829
:1054D000E9048D1A07AD1B0738E9048D1B07AD2AB7
:1054E0000738E9048D2A07A9008D3B078D2B078D0E
:1054F00039078D3A07B9F89B8D2C0760AD4507F049
:105500005EAD2607D059A00B883054AD5F07D96B2C
:10551000C0D0F5AD2507D976C0D0EDA5CED981C0D4
:10552000D023A51DC900D01DAD5F07C906D023EE4D
:10553000D906EEDA06ADDA06C903D01EADD906C922
:1055400003F00FD007AD5F07C906F0E6208CC0203E
:1055500071D0A9008DDA068DD906A9008D4507AD59
:10556000CD06F0109516A901950FA900951E8DCDB9
:10557000064C26C2AC3907B1E9C9FFD0034C16C2AC
:10558000290FC90EF00EE005900AC8B1E9293FC9FC
:105590002EF00160AD1D0718693029F08507AD1B9D
:1055A0000769008506AC3907C8B1E90A900BAD3B25
:1055B00007D006EE3B07EE3A0788B1E9290FC90F7D
:1055C000D019AD3B07D014C8B1E9293F8D3A07EE99
:1055D0003907EE3907EE3B074CCCC0AD3A07956E64
:1055E000B1E929F09587CD1D07B56EED1B07B00B0E
:1055F000B1E9290FC90EF0694C50C2A507D587A59E
:1056000006F56E9041A90195B6B1E90A0A0A0A9514
:10561000CFC9E0F04CC8B1E92940F005ADCC06F0A7
:105620006DB1E9293FC9379004C93F9031C906D00F
:1056300007AC6A07F002A9029516A901950F20266A
:10564000C2B50FD04960ADCB06D009AD9803C901F2
:10565000D00BA92F9516A900951E206CC2604C1B7B
:10566000C7C8C8B1E94A4A4A4A4ACD5F07D00E883E
:10567000B1E98D5007C8B1E9291F8D51074C5BC2B4
:10568000AC3907B1E9290FC90ED003EE3907EE395D
:1056900007EE3907A9008D3B07A60860B516C915A6
:1056A000B00DA8B5CF690895CFA9019DD803982062
:1056B000048E0EC30EC30EC31EC3F0C228C3F1C2B4
:1056C00042C36BC3F0C275C375C3F7C287C7D1C7E6
:1056D0004AC33DC385C3A0C7F0C2A0C7A0C7A0C727
:1056E000A0C7B8C7F0C2F0C25CC45CC45CC45CC4F0
:1056F00059C4F0C2F0C2F0C2F0C2DFC712C83FC83E
:1057000045C80BC803C80BC84BC857C849C560BCBF
:105710001EB9F0C2F0C2F0C2F0C2F0C207C381C825
:1057200060200EC34C46C3A90295B695CF4A9D96FC
:10573000074A951E4C46C3A9B895CF60F8F4A0015E
:10574000AD6A07D00188B90CC395584C5AC3200ED6
:10575000C3A901951E608050A9009DA2039558AC75
:10576000CC06B926C39D9607A90B4C5CC3A9004C77
:1057700019C3A9009558A909D012A030B5CF9D0131
:10578000041002A0E09875CF9558A9039D9A04A92A
:10579000029546A90095A09D340460A9029546A9EA
:1057A000099D9A04602046C3BDA70729109558B5E6
:1057B000CF9D340460ADCB06D00BA9008DD106205F
:1057C0003DC34CD9C74C98C9262C323820222426F8
:1057D00013141516AD8F07D03CE005B038A9808DA5
:1057E0008F07A004B91600C911F02B8810F6EED16E
:1057F00006ADD106C907901DA204B50FF005CA1069
:10580000F93010A900951EA9119516208AC3A92068
:1058100020D8C5A60860A5CEC92C90F9B91E00D025
:10582000F4B96E00956EB987009587A90195B6B950
:10583000CF0038E90895CFBDA7072903A8A202B970
:1058400098C39501C8C8C8C8CA10F4A608206CCF70
:10585000A457C008B00EA8BDA8072903F0059849B1
:10586000FFA8C8982046C3A0029558C900300188F7
:105870009446A9FD95A0A901950FA905951E60283C
:105880003828382800001010002075C5A900955848
:10589000B51638E91BA8B94FC49D8803B954C495FF
:1058A00034B5CF18690495CFB5871869049587B5C5
:1058B0006E6900956E4CD9C7803040803050507072
:1058C000204080A0704090680E05060E1C20100C31
:1058D0001E22181410602048AD8F07D0A12046C3A7
:1058E000BDA8072903A8B9A4C48D8F07A003ADCC18
:1058F00006F001C88400E400B084BDA70729038531
:10590000008501A9FB95A0A900A457F007A904C030
:105910001990010A481865008500BDA8072903F001
:1059200007BDA907290F850068186501A8B998C4A3
:105930009558A9019546A557D012A400982902F0C0
:105940000BB55849FF1869019558F646982902F099
:105950000FA586187988C49587A56D69004C3CC54C
:10596000A58638F988C49587A56DE900956EA901CB
:10597000950F95B6A9F895CF602075C58E6803A9D7
:10598000008D63038D6903B5878D6603A9DF8D9054
:10599000079546A9208D64039D8A07A9058D830478
:1059A0004A8D650360A0FFC8B90F00D0FA8CCF06FE
:1059B0008A0980990F00B56E996E00B587998700A6
:1059C000A901950F99B600B5CF99CF00609080706E
:1059D00090FF01AD8F07D0F49D3404A5FD09028529
:1059E000FDAC6803B91600C92DF03120D9D1186972
:1059F00020ACCC06F00338E9108D8F07BDA707292E
:105A0000039D1704A8B99DC595CFAD1D0718692042
:105A10009587AD1B076900956E4C1FC6B987003886
:105A2000E90E9587B96E00956EB9CF001869089593
:105A3000CFBDA70729039D1704A8B99DC5A000D510
:105A4000CF9001C8B9A1C59D3404A9008DCB06A98A
:105A5000089D9A04A90195B6950F4A9D0104951ECB
:105A600060003060600020604070406030AD8F07A3
:105A7000D047A9208D8F07CED706A00688B916007B
:105A8000C931D0F8B9870038E93048B96E00E9006B
:105A90008500ADD70618791E00A868187931C6951B
:105AA00087A5006900956EB937C695CFA90195B64F
:105AB000950F4A9558A90895A06001020408102086
:105AC0004080403090502060A0700A0BAD8F07D00E
:105AD0006FAD4E07D057E003B066A000BDA707C961
