:020000040800F2
:1000000048C000209D010008331500087514000841
:1000100031150008950400080917000800000000C9
:10002000000000000000000000000000951500081E
:10003000AD05000800000000351500089715000800
:10004000B7010008B7010008B7010008B7010008B0
:10005000B7010008B7010008B7010008B7010008A0
:10006000B7010008B7010008B7010008B701000890
:10007000B7010008B7010008B7010008B701000880
:10008000FD040008B7010008B7010008B701000827
:10009000B7010008B7010008B7010008B701000860
:1000A000B7010008B7010008B7010008B701000850
:1000B000B7010008B7010008B7010008B701000840
:1000C000B7010008B7010008B7010008B701000830
:1000D000B7010008B7010008B7010008B701000820
:1000E000B7010008B7010008B7010008B701000810
:1000F000B7010008B7010008B7010008B701000800
:10010000B7010008B7010008B7010008B7010008EF
:10011000B7010008B7010008B7010008B7010008DF
:10012000B7010008B7010008B7010008B7010008CF
:10013000B70100080000000000000000B70100083F
:10014000B7010008B7010008B7010008B7010008AF
:10015000B7010008B7010008B7010008B70100089F
:10016000B7010008B7010008B7010008B70100088F
:10017000B7010008B70100080000000000000000FF
:10018000B7010008B7010008DFF80CD000F070F9E3
:10019000004800476948000848C0002006488047DA
:1001A00006480047FEE7FEE7FEE7FEE7FEE7FEE75C
:1001B000FEE7FEE7FEE7FEE72516000889010008D6
:1001C0002DE9F05F0546002092469B46884606468C
:1001D000814640241BE0284641464746224600F01F
:1001E000D9F853465A46C01A914110D311461846C1
:1001F000224600F0C0F82D1A67EB01084F46224650
:100200000120002100F0B7F817EB00094E41201E35
:10021000A4F10104DFDC484631462A464346BDE8E6
:10022000F09FD2B201E000F8012B491EFBD27047CB
:100230000022F6E710B513460A4604461946FFF7B2
:10024000F0FF204610BD2DE9FE4F81EA030404F0C3
:10025000004421F0004100944FF0000B23F00043D4
:1002600050EA01045ED052EA03045BD0C3F30A549F
:10027000C1F30A552C44A4F2F3340194A0FB0254B8
:10028000C1F3130141F48011C3F3130343F480134A
:1002900001FB024400FB034E840A970A44EA81549E
:1002A00047EA8357A4FB076802958D0A05FB07857B
:1002B0004FEA932C04FB0C542705029D4FEA065885
:1002C00047EA1637B5EB08056EEB070C870E920E62
:1002D00047EA811742EA8312A7FB0201B6EB0B0142
:1002E00064EB00042B0D43EA0C335E1844EB1C5006
:1002F000DA465146E7FB0201C5F313044FEA0B331C
:1003000043EA14534FEA0432019C43EA0603A4F182
:100310000C040294009CCDE900B400F05AF803B03C
:10032000BDE8F08F00200146F9E70EB540F23341F9
:1003300002910021CDE900110A460B4600F049F870
:1003400003B000BDC1F30A5210B5C1F3130140F26E
:10035000FF3341F480119A4201DA002010BD40F2CF
:1003600033439A42A2F2334203DC524200F012F8C5
:1003700010BD904010BD202A04DB203A00FA02F1A3
:10038000002070479140C2F1200320FA03F3194383
:1003900090407047202A04DB203A21FA02F0002125
:1003A000704721FA02F3D040C2F120029140084385
:1003B0001946704710B5141E73F1000408DA401C8A
:1003C00041F1000192185B411A4301D120F0010074
:1003D00010BD2DE9F04D92469B4611B1B1FA81F264
:1003E00002E0B0FA80F220329046FFF7C4FF0446E4
:1003F0000F4640EA0A0041EA0B0153465A460843B9
:1004000013D0114653EA010019D0C8F140025046FA
:10041000FFF7C0FF05460E46504659464246FFF7D5
:10042000AAFF084305D0012004E020463946BDE874
:10043000F08D0020054346EAE0762C4337430A98C6
:100440006305E40AA0EB08000022FD0A44EA4754D1
:100450000A3002D500200146E9E70105101969417B
:10046000DDE9084500196941BDE8F04DA2E700004B
:10047000064C074D06E0E06840F0010394E80700F1
:1004800098471034AC42F6D3FFF782FEE89100089B
:1004900008920008FEE710B5846B204600F0ACF827
:1004A0000120207110BD10B5846B204600F080F84B
:1004B0000120207110BD10B5846B206940F004004C
:1004C0002061204600F0A4F80120207110BD10B575
:1004D000846B206940F004002061204600F06AF837
:1004E0000120207110BD10B5806B00F08BF810BD9D
:1004F00010B5806B00F05DF810BD0000014800F001
:10050000A3B90000E8BB002001681823CAB2103A62
:10051000B2FBF3F2054B6FF30901032A9B5CC36541
:1005200000D9091D8165084670470000CE9100087A
:1005300010B5014600208B698A6A4FF0C07453B130
:10054000B3F5005F15D072B1012A0CD0022A0AD08F
:10055000032A09D104E01AB1012A06D0022A03D1E4
:10056000C96AC90100D5012010BDC96AA142FAD0EB
:1005700010BD002AF7D0012AF2D0022AF3D0032AB4
:10058000F3D010BD30B50468256825F480252560BA
:10059000046863608368402B036803D09960006837
:1005A000C26030BD9A600068C16030BD704770475E
:1005B00070477047704770B54379012B1AD00126F8
:1005C00046710223037105682C6840F6FE73934060
:1005D0009C43D1E900310B43934023432B600168D6
:1005E0000B68C0249440A3430B6006710021417145
:1005F000084670BD022070BD8021014804F074BB24
:10060000A00100208021014804F06EBBA000002062
:10061000704770B5040003D02079002510B105E0C3
:10062000012070BD6571204600F008F8022020719D
:10063000256101202071002070BD000070B586B0DA
:10064000054614216846FFF7F3FD1F4928688842D4
:1006500037D11E480026016841F000510160006852
:1006600000F00050059019481038016841F0010170
:1006700001600068694600F00100059010200090BC
:100680000320CDE90106124800F050FA124C11483F
:1006900020604FF0606060604020C4E90206000105
:1006A0002061400060618000A0614011C4E907063C
:1006B0002046666200F098F908B1FFF778FFAC6059
:1006C000A56306B070BD00000074004040380240D1
:1006D0000000024088600240E8BB002030B542794B
:1006E000012A16D0012242710223037103681D689A
:1006F00002FA01F425431D60002901680B680AD045
:100700000C6803F4802304F46014B3F5802F0FD039
:1007100015E0022030BD0C6803F0040304F0380437
:10072000042B0CD1382C0AD14B6843F0010305E0AF
:10073000B4F5601F03D14B6843F002034B600271B4
:1007400000214171084630BD2DE9F04104460D46B7
:100750001746617900220698012920D0012666718A
:1007600002212171F5B1D4F80CC03149CCF83C100C
:10077000D4F80CC02F49CCF84010D4F80CC02E4946
:10078000CCF84C102168D1F800C04CF0805CC1F866
:1007900000C090B3042834D0082837D134E00220B8
:1007A000BDE8F081D4F808C02449CCF83C10D4F856
:1007B00008C02349CCF84010D4F808C02149CCF82F
:1007C0004C102168D1F800C04CF4805CC1F800C026
:1007D00020B1042805D0082808D105E02268083295
:1007E00004E022680C3201E02268103220680168BF
:1007F00041F400510160A0680EE0FFE72268143266
:1008000004E02268183201E022681C322068016886
:1008100041F000510160E068394600F04FF920686E
:100820000168AE403143016000206071B8E700000C
:10083000A7040008F1040008CF040008970400088A
:10084000E7040008B70400082DE9F84304464FF018
:100850000009CDF8009063484FF41651A56D00686B
:10086000B0FBF1F72E6894F85C10082000FA01F153
:1008700031420FD021680A6852070BD50A6822F06E
:1008800004020A6094F85C108840A860606D40F033
:100890000100606594F85C104FF0010808FA01F05F
:1008A000304208D021684969090604D5A860606D06
:1008B00040F00200606594F85C10042088403042EB
:1008C00008D021680968890704D5A860606D40F0E8
:1008D0000400606594F85C1010208840304218D005
:1008E00021680968090714D5A860206801684903D0
:1008F00004D50068000308D5A16C07E00168C905AC
:1009000003D4016821F008010160216C09B120467F
:10091000884794F85C1020208840304231D021680C
:100920000968C9062DD5A86094F835000528206807
:10093000016806D0490347D5006800031DD4616CE7
:100940001CE021F0160101602068416921F080015E
:100950004161206C08B9A06C20B12068016821F0C9
:100960000801016094F85C103F208840A86084F87A
:10097000349084F83580216D1FE0E16B09B1204689
:100980008847606D00282BD0606DC00714D005200B
:1009900084F835002068016821F0010101600098A9
:1009A000401C0090B84203D820680068C007F6D108
:1009B00084F8349084F83580E16C002910D001B0BF
:1009C0002046BDE8F04308470168C905D5D4016851
:1009D00021F01001016084F8349084F83580CCE770
:1009E000BDE8F8835C0000202DE9F041044600F0EA
:1009F0008BF906465CB1002584F83450022084F857
:100A000035002068016821F0010101600DE001203E
:100A1000BDE8F08100F078F9801B052805D9202079
:100A20006065032084F83500F2E720680068C0079D
:100A3000F0D12268116820480140D4E9010318432D
:100A4000D4E903363343184363691843A369184351
:100A5000E3691843236A18430843616A042903D1F0
:100A6000D4E90B1319430843106020684069666A93
:100A700020F0070130460E43012704280CD1A06A5C
:100A80000643E06A40B12046FFF752FD20B1402006
:100A9000606584F83570BAE7206846612046FFF744
:100AA00033FD94F85C203F2191408160656584F8B6
:100AB00035700020ACE700003F8010F02DE9F041D8
:100AC0000446866D90F83400002501280DD00120E1
:100AD00084F8340094F835700020012F07D084F892
:100AE000340002252846BDE8F0810220FBE70227FA
:100AF00084F8357060652046FFF744FD94F85C107B
:100B00003F208840B0602068016841F01601016014
:100B1000206C20B12068016841F008010160206864
:100B2000016841F001010160DCE700002DE9F84FA8
:100B300000224FF0010803254FF00F0E0B6808FA52
:100B400002F42340A3426ED14E68012E05D0022E3E
:100B500003D0112E01D0122E12D186684FEA420C1A
:100B600005FA0CF7BE43CF6807FA0CF737438760E6
:100B70004668A6430C79C4F300149440344344609F
:100B8000C668570005FA07FC8C6826EA0C06BC40CC
:100B90003443C4604C68022C01D0122C13D1D40809
:100BA00000EB8404A346D4F8209054074FEAD46A9B
:100BB0000EFA0AF629EA06090E6906FA0AF646EA64
:100BC0000906CBF8206006680C7926EA0C0604F0CA
:100BD0000304BC40344304604C68E40065D5364CE3
:100BE000266846F480462660246822F0030604F452
:100BF00080440094314C3444A446D4F80848960705
:100C0000370F0EFA07F6B4432D4EB04201D100263D
:100C100024E02C4EB04201D101261FE02A4EB04202
:100C200002D102261AE040E0284EB04201D103264C
:100C300014E0274EB04201D104260FE0254EB04209
:100C400001D105260AE0244EB04201D1062605E076
:100C5000224EB04201D1072600E00826BE402643BE
:100C6000CCF808681E4E34684F689C43FF0300D5DB
:100C70001C4334601A4C241D26684F689E43BF03F2
:100C800000D51E432660164E083634684F689C43D4
:100C9000FF0200D51C433460114E0C3634684F6897
:100CA0009C43BF0200D51C433460521C102AFFF441
:100CB00045AFBDE8F88F00004438024000300140E5
:100CC000000002400004024000080240000C024004
:100CD000001002400014024000180240001C0240B4
:100CE000003C01400069084000D001207047426983
:100CF00031EA020200D10904816170470AB18161C1
:100D000070470904FBE70000014880687047000055
:100D100050000020024881680278114481607047C9
:100D2000500000200B4810B5016841F400710160CB
:100D3000016841F480610160016841F480710160E3
:100D4000032000F06FF8002000F006F800F024F80F
:100D5000002010BD003C024070B50D4D04464FF41C
:100D60007A712878B1FBF0F00A490968B1FBF0F01C
:100D700000F0E2FA48B9102C07D200222146501E9A
:100D800000F030F800206C6070BD012070BD0000E4
:100D9000500000205C0000200A4808B5016841F4BA
:100DA00080410160006800F4804000900548001F09
:100DB000016841F080510160006800F080500090AF
:100DC00008BD000044380240002809DB00F01F0283
:100DD000012191404009800000F1E020C0F800119D
:100DE00070470000F0B40E4B1B680C46C3F302239F
:100DF000C3F10705042D00D90425191D072901D2C7
:100E0000002300E0DB1E012606FA05F1491E214001
:100E100099409E40761E16403143F0BC00F096BCCF
:100E20000CED00E0064900F0070208684FF6FF03EA
:100E3000184040EA0220034A10430860704700004F
:100E40000CED00E00000FA052DE9F0470E46050024
:100E500065D0DFF81481D8F80000F7B200F00F0079
:100E6000B04207D288F80070D8F8000000F00F00F8
:100E7000B04254D128683D4C810712D5400703D5B4
:100E8000206840F4E05020602878000703D52068EF
:100E900040F4604020602068A96820F0F00008431A
:100EA00020602878C0072DD03049686808390128AB
:100EB00012D0022813D0032811D00968890700290D
:100EC0002DDA216821F0030101432160FFF71CFFA7
:100ED000814641F2883A0EE009688903EFE7096824
:100EE0008901ECE7FFF710FFA0EB0901514502D99A
:100EF0000320BDE8F0872068696800F00C00B0EBC3
:100F0000810FEFD1D8F80010404601F00F01B14237
:100F100007D90770006800F00F00B04201D001202F
:100F2000E7E72878400705D52068E96820F4E05015
:100F3000084320602878000706D52068296920F436
:100F4000604040EAC100206000F018F82168084ABB
:100F5000C1F30311515CC8400649086006480068A7
:100F6000FFF7FAFE0020C4E7003C024008380240C8
:100F7000D69100085C00002054000020154810B5F0
:100F8000006810F00C02144813D04110042A0FD04E
:100F9000082A0ED10F4C241F2268236802F03F025A
:100FA0005B0207D52068C0F38810A0FB010106E0B2
:100FB000084610BD2168C1F38811A1FB0001002380
:100FC000FFF7FEF82168C1F30141491C4900B0FB5D
:100FD000F1F010BD083802400024F4002DE9F84F6C
:100FE00004006ED02078DFF83C93C007A9F1040517
:100FF0004AD009F104000168C1F38101012908D038
:101000000068C0F3810002280AD1D9F8000040022C
:1010100006D52868800337D560680028E1D033E022
:101020006068B0F5803F10D0B0F5A02F286810D0D0
:1010300020F480302860286820F4802028606068D0
:10104000A8B1FFF761FE06460DE0286840F4803045
:10105000F4E740F480202860F7E700BFFFF754FE74
:10106000801B642873D828688003F7D50CE0FFF74D
:101070004BFE064605E000BFFFF746FE801B6428D6
:10108000F0D828688003F7D42078DFF89C828007A6
:101090004FF0000A3ED5A348001D016811F00C0F67
:1010A00008D00068C0F3810002280BD1D9F80000F5
:1010B000400207D42868800716D5E068012800D1CF
:1010C00012E02BE1E068B8B10120C8F80000FFF79A
:1010D0001BFE064605E000BFFFF716FE801B022838
:1010E000C0D828688007F7D52868216920F0F80063
:1010F00040EAC10028600DE0C8F800A0FFF704FE38
:10110000064604E0FFF700FE801B02281FD828686F
:101110008007F7D42078000722D5824E8348616982
:10112000703671B101210160FFF7EEFD074604E062
:10113000FFF7EAFDC01B022809D830688007F7D501
:101140000EE0C0F800A0FFF7DFFD074605E082E0F3
:10115000FFF7DAFDC01B02287DD830688007F7D47E
:101160002078400768D5DFF8BCB100270BF13C0BB5
:10117000DBF80000C0000BD4DBF8001041F0805118
:10118000CBF80010DBF80000012700F08050009041
:10119000674E3068C00510D4306840F4807030600D
:1011A000FFF7B2FD009005E0FFF7AEFD0099401A91
:1011B000022850D83068C005F6D55A4EA0686C3663
:1011C00001280FD00528306810D020F001003060D1
:1011D000306820F004003060A068B8B1FFF794FDDB
:1011E00000900FE0306840F00100F4E740F00400A8
:1011F0003060F7E7FFF788FD0099411A41F2883027
:10120000814266D830688007F4D50EE0FFF77CFD98
:10121000009007E0FFF778FD0099411A41F288300D
:10122000814256D830688007F4D42FB1DBF8001023
:1012300021F08051CBF80010A069C8B33949091DCD
:101240000968C1F3810102294AD00228504607D01B
:10125000C8F8600000E03CE0FFF756FD04463BE0C4
:101260004746C8F86000FFF74FFD064605E000BF9F
:10127000FFF74AFD801B02282BD828688001F7D48D
:10128000D4E907010843A16A2A4A490802EB01414F
:10129000626A41EA8211084394F82C1040EA016125
:1012A000C9F8001001203866FFF72EFD044606E05D
:1012B00036E000BFFFF728FD001B022809D8286888
:1012C0008001F7D52CE000BFFFF71EFD001B0228B0
:1012D00002D90320BDE8F88F28688001F4D41FE00C
:1012E0000128F7D0D9F80000E26900F480019142AA
:1012F00014D1226A00F03F0191420FD147F6C0712C
:10130000626A0140914209D1A26A00F440319142DF
:1013100004D1E16A00F07060884201D00120D9E771
:101320000020D7E70438024000004742800E4742C1
:10133000007000400000FFFF10B5401EB0F1807F3C
:1013400001D3012010BD4FF0E02460610F21601730
:1013500000F0FCF90020A06107202061002010BDF2
:1013600070B590F83C20012A32D0012480F83C402E
:10137000022280F83D2003685A689D6822F07006BA
:101380000A6832435A60134B02689A4214D0B2F191
:10139000804F11D0104B9A420ED0104B9A420BD076
:1013A0000F4B9A4208D00F4B9A4205D00E4B9A42EF
:1013B00002D00E4B9A4204D1496825F080031943AC
:1013C000916080F83D40002180F83C10084670BDD7
:1013D000022070BD000001400004004000080040F1
:1013E000000C004000040140004001400018004093
:1013F00010B5040003D094F83D0010B107E00120BF
:1014000010BD002084F83C00204600F00DF80220BA
:1014100084F83D00211D206800F012F9012084F8B5
:101420003D00002010BD000008B500680649884254
:1014300008D10648016841F010010160006800F021
:101440001000009008BD000000100040403802402D
:10145000022180F83D1001688A6802F00702062A1E
:1014600003D00A6842F001020A60012180F83D10B1
:1014700000207047FEE700002DE9F04186B01421FE
:101480006846FEF7D5FE27480024016841F00401B4
:101490000160016801F004010591016841F08001DB
:1014A0000160016801F080010591016841F00101CE
:1014B0000160016801F001010591016841F002013C
:1014C00001600068184F00F00200059001223021F1
:1014D0003846FFF713FCDFF8548001220321404611
:1014E000FFF70CFC4FF4004001258DE83100694600
:1014F0003846FFF71BFB30200226CDE90005CDE979
:10150000024669463846FFF711FB0320CDE9000586
:10151000CDE9024669464046FFF708FB06B0BDE844
:10152000F081000030380240000802400004024010
:10153000FEE770477047000A704700000249C0F399
:101540000B00085C70470000EC2A00200249C0F341
:101550000A00085C70470000CC020020044A010B1E
:1015600002EB8101C0F30B0051F8181C085C7047B6
:10157000ECBA00200249C0F30C00085C7047000080
:10158000CC0A0020024900F01F00085C70470000F0
:10159000CC2A00207047FFF7BDBB000030B593B0E8
:1015A00030216846FEF744FE14210CA8FEF740FEE9
:1015B0001A480025016841F080510160006800F080
:1015C000805011901648016841F480410160006824
:1015D000022400F48040119001200090000401904A
:1015E0008001CDE90640082008904FF4A870CDE9AD
:1015F000090404200B906846FFF7F0FC0CA90F20AB
:1016000081E831004FF4A0500F90E00210900521C6
:101610000CA8FFF719FC13B030BD000040380240A1
:10162000007000400548016841F470010160034901
:101630004FF00060803908607047000088ED00E0DE
:10164000F0B50268254C264D264E274F274B4FF00C
:10165000804CA04209D0604507D0A84205D0B042D6
:1016600003D0B84201D0984204D122F0700E4A68EB
:1016700042EA0E02A0421BD0604519D0A84217D002
:10168000B04215D0B84213D0984211D0184DA8429C
:101690000ED0184DA8420BD0174DA84208D0174DB8
:1016A000A84205D0164DA84202D0164DA84203D13B
:1016B00022F44075CA682A434D6922F080022A4309
:1016C00002608A68C2620A688262A04201D09842BF
:1016D00001D10969016301214161F0BD00000140B0
:1016E0000004004000080040000C004000040140DD
:1016F0000040014000440140004801400018004003
:10170000001C004000200040FEE77047024AC0F382
:101710000B00115470470000EC2A0020024AC0F36D
:101720000A00115470470000CC020020024AC0F3A6
:101730000C00115470470000CC0A0020024A00F04F
:101740001F00115470470000CC2A00200907090E21
:10175000002804DB00F1E02080F80014704700F05E
:101760000F0000F1E02080F8141D704702E008C867
:10177000121F08C1002AFAD170477047002001E00B
:1017800001C1121F002AFBD1704700002DE9F14F63
:101790009D4E82B0707A01280DD0B57996F807B0C9
:1017A00096F8038096F8049096F805A0748AB06ABB
:1017B000009002F0F0BE0020BDE8FE8FA4B2934F6F
:1017C000200B57F8201020468847B0730146307030
:1017D0008F4A641CB36A525CA0B21A440446B262D7
:1017E000802902F0AE8502DC8029E2D200E005E12A
:1017F0008A0000BF7A44526897440000580A0000EB
:101800003C140000AC2B0000221C0000462B000002
:101810005E1400000E0900004C1C00004005000092
:101820006E140000F8080000742D00004E2B00001C
:10183000821400002C0900006E1C000056040000F9
:10184000B6140000AC2B0000B01C0000462B0000BA
:10185000F214000078090000061D000020040000BA
:10186000121500009A2D0000441D00005A2B0000A4
:1018700044150000A6090000801D00008A10000029
:10188000B0070000AC2B0000C61D0000F8090000E6
:10189000D2070000AE1500001A1E00004C05000023
:1018A000F407000094150000742D0000140A0000D5
:1018B00002080000DE150000581E00007E04000033
:1018C00036080000AC2B0000B81E0000462B0000BC
:1018D0007008000042160000FC1E000028040000F2
:1018E000820800009A2D0000421F00005A2B0000C1
:1018F000B20800007A160000A61F0000E0170000E2
:10190000A60D0000AC2B00000A200000462B0000B2
:10191000C80D00007A130000342000005C050000B0
:10192000D80D000074130000982A00001010000069
:10193000E80D0000981300006420000096040000E9
:10194000220E0000AC2B0000B8200000462B000047
:10195000620E0000D21300000C21000030040000D1
:101960007E0E00009A2D00004A2100005A2B000034
:10197000B00E0000FE1300008821000004180000D3
:10198000B4050000AC2B0000E0210000462B000055
:10199000DC050000E8160000102200006C050000C5
:1019A00018060000CC160000B42A00003C1000000D
:1019B000360600001417000026220000B4040000C0
:1019C0006A060000AC2B0000A02200009A2D000047
:1019D000CE0600005E1700001A2300003804000045
:1019E000160700009A2D00008A2300005A2B0000E1
:1019F0004607000092170000BA23000081397F29B2
:101A000082F0C98506E000002000002014BB002001
:101A1000644D00088A0000BF7A4452689744000071
:101A200034180000222900000E220000981900003E
:101A3000561800003A19000044220000980A0000DD
:101A40002229000058030000B8280000AC1900004B
:101A50006A1800005019000060220000AC0200006B
:101A6000A218000088290000A62A0000DA19000048
:101A7000C81800007C1900009E22000068030000C6
:101A8000E41800006C0300009E290000F829000003
:101A90000E1900004C2A0000F42A0000A0100000DB
:101AA000AC0E0000F20F0000C6220000AA100000D9
:101AB000CE0E0000FC0F0000EE22000070030000BC
:101AC000E80E00007E030000D4280000C0100000D3
:101AD000F60E00001210000006230000C6020000EF
:101AE000280F0000882900003C230000EE100000B1
:101AF000700F0000401000008A2300001C0200004C
:101B0000820F0000820300009E2B000000110000E5
:101B1000B20F000052100000A6230000360A000099
:101B20008C0800002229000000240000400A000068
:101B3000B80800009E0A00003A240000EC0C0000E7
:101B4000DA080000900A0000F4280000540A00009F
:101B5000E8080000C00A000078240000EA02000043
:101B60001C09000088290000D6240000222900005A
:101B700056090000F60A0000262500002402000095
:101B800068090000762B00006E2500003629000051
:101B900098090000220B0000B2250000E0090000B7
:101BA000021600002229000004260000EA090000B5
:101BB0006A160000000D00003A260000D80C000054
:101BC00084160000762B000084160000FE09000039
:101BD000A2160000260D0000A0260000020300004F
:101BE000D8160000882900002027000022290000C4
:101BF00014170000720D0000542700002C02000092
:101C00006C170000762B0000D0270000362900005A
:101C1000B81700009E0D0000FE27000025F001050A
:101C2000C7E500BF45F00105C3E500BF25F0040589
:101C3000BFE500BF45F00405BBE500BF25F040054A
:101C4000B7E500BF25F00805B3E500BF45F008057E
:101C5000AFE5010B57F821108847641C7073A4B2DC
:101C600044FA80F080B229061FE0022100E0012141
:101C7000B26A1144B16204469BE5010B57F821108A
:101C80008847641C7073A4B244FA80F080B22906BD
:101C900019E0010B57F82110884770730146601C4A
:101CA00084B244FA81F080B269060029B8DB27E0EB
:101CB000010B57F821108847641C7073A4B244FAD2
:101CC00080F080B269060029AADA19E0010B57F802
:101CD00021108847641C7073A4B244FA80F080B26B
:101CE000E9079DD10CE0010B57F82110884770736C
:101CF0000146601C84B244FA81F080B2E9078FD0BB
:101D0000010A220A9142B2D0AFE7010B57F8211025
:101D10008847641C7073A4B244FA80F080B2A907AB
:101D2000C3E7010B57F821108847641C7073A4B2F5
:101D300044FA80F080B2A907C5E700BF726A45F097
:101D4000300102F80B100AE00BF10100716A00F09B
:101D5000FF0B11F80B502CE5726A02F80B80ABF107
:101D6000010000F0FF0B24E50BF10100716A00F0A7
:101D7000FF0B11F80B8000E0C846FB4925F08205F7
:101D800011F8080002F006BCD046F6E7CB4610E595
:101D9000F549C24625F0820511F80A00F2E7C1466E
:101DA00000E0D946F04925F0820511F80900E9E77D
:101DB000010B57F8211088474844EC49C0B2641C15
:101DC0000A5CA4B2401C51FA80F0007842EA00207C
:101DD000010B57F82110D3E0010B57F82110884769
:101DE00081B2E248E04B641C425C05F0010108EB63
:101DF00002000844C0F30721C0B272731B5C88EA7A
:101E00000207194380EA0803BB434022A4B202EA56
:101E1000530278E0010B57F821108847641C707357
:101E2000A4B23EE005F00C0350EA030042EA0005CC
:101E3000F4E3CF49020B51F8221088470746601C93
:101E400081B2C0F30332CA4850F8222008469047B6
:101E500047EA0020C649020B51F822108847A41C0B
:101E60007073A4B28EE0010B57F821108847BF4968
:101E700070730A5C401C51FA80F00078641C42EADE
:101E8000002101EB0A0080B2020A090AA4B28A42C8
:101E900002D0B16A491CB162010B57F82110884782
:101EA000707308EB000105F001021144C1F3072231
:101EB000AD4BC9B281EA08075B5C1A4388EA0003AC
:101EC0009F43402000EA5700ACE7010B57F8211070
:101ED00088474844A549C0B2A34B0A5C05F00101FC
:101EE00008EB02000844C0F30721C0B272731B5C08
:101EF000641C194380EA080788EA02039F434022D2
:101F0000A4B202EA570205F00C031A4341EA0205A3
:101F1000F1E39749020B51F8221088470746601CED
:101F200082B2C0F30331924850F82110104688471E
:101F300047EA002101EB0A0016E0B16A491CB162D0
:101F40001AE08B49020B51F8221088470746601CA3
:101F500082B2C0F30331864850F8211010468847FA
:101F600047EA002101EB090080B2A41CC1F307215C
:101F7000020AA4B29142E0D17D49020B51F822102D
:101F80008847707308EB000105F001021144C1F3AA
:101F90000722754BC9B288EA00075B5C1A4381EAE5
:101FA0000803BB43402000EA53003BE7010B57F80E
:101FB0002110884748446D49C0B2641C0A5CA4B231
:101FC000401C51FA80F0007842EA00204AE0010B00
:101FD00057F82110884781B26448405C0CE000BF8C
:101FE00008EA000102F083B925F0820502F0CFBAB9
:101FF000010B57F8211088477073641C17E05C4987
:10200000020B51F8221088470746601C82B2C0F3C9
:102010000331574850F821101046884747EA0020FE
:102020005349020B51F8221088477073A41CA4B2C4
:10203000D6E7010B57F8211088474C4970730A5CAA
:10204000401C51FA80F00078641C42EA002101EB48
:102050000A0080B2020A090AA4B28A4202D0B16A16
:10206000491CB162010B57F821103FE0010B57F8F2
:102070002110884748443D49C0B2085CBCE73C4950
:10208000020B51F8221088470746601C82B2C0F349
:102090000331374850F821101046884747EA00219D
:1020A00001EB0A0016E0B16A491CB1621AE030493E
:1020B000020B51F8221088470746601C82B2C0F319
:1020C00003312B4850F821101046884747EA002179
:1020D00001EB090080B2A41CC1F30721020AA4B2DB
:1020E0009142E0D12249020B51F8221088477073C7
:1020F00076E700BF4FEA4800C0F307211A4AC0B292
:10210000125C114325F0830200E7010B57F8211000
:102110008847164A0346641CD05CA4B24000070AF4
:10212000C1B21148405CEEE31149020B51F8221094
:1021300088470746601C81B2C0F303320C4850F850
:1021400022200846904747EA0027A41C0848390B7C
:10215000A4B250F82110384688474000C0F3072247
:10216000C1B20148405CEEE3644E0008CC0200209E
:1021700014BB0020010B57F82110884700EB090120
:1021800061F30700FF4A83B2641CD05C25F083052D
:102190004000070AC1B2FC48A4B2405C3843054382
:1021A000EFE3FA49020B51F8221088470746601CFA
:1021B00082B2C0F30331F54850F821101046884729
:1021C00047EA0020484487B2A41CF048390BA4B267
:1021D00050F82110384688474000C0F30722C1B2AA
:1021E000E948405CF0E3E94A030B403252F823200F
:1021F00002F067B9010B57F82110884781B2E14816
:10220000641C405C70731BE00020BBE50220B9E554
:10221000DE49020B51F8221088470746601C82B243
:10222000C0F30331D94850F821101046884747EAD7
:102230000020D649020B51F8221088477073A41C65
:1022400025F0C20500F0C0010D43A4B218EA000F4A
:10225000DCD0D9E7B17A002942F09D81726A601C16
:10226000ABF10101030AC9B202F80B305054491E08
:10227000C8B245F030011154401E00F0FF0BF96B5D
:1022800045F004054FF6FE7088470446F96B4FF69B
:10229000FF70884744EA0020010B044657F82110DC
:1022A00088470028D8D1012002F087B8010B57F8E1
:1022B000211088474844B349C0B2641C0A5CA4B2E8
:1022C000401C51FA80F0007842EA00204FE00D43B4
:1022D000C1B2AD48405C55E5010B57F82110884765
:1022E00081B2A848405C0CE0A8EB000080B225F069
:1022F0008305010A7ED00021E9E7010B57F8211080
:1023000088477073641C17E0A049020B51F8221033
:1023100088470746601C82B2C0F303319B4850F8DF
:1023200021101046884747EA00209849020B51F8CF
:10233000221088477073A41CA4B2D5E7010B57F88C
:10234000211088478F4970730A5C401C51FA80F055
:102350000078641C42EA002101EB0A0080B2020A04
:10236000090AA4B28A4202D0B16A491CB162010BC7
:1023700057F8211041E0010B57F8211088474844D5
:102380008049C0B2085CBCE78049020B51F82210BA
:1023900088470746601C82B2C0F303317B4850F87F
:1023A00021101046884747EA002101EB0A0016E099
:1023B000B16A491CB1621AE07449020B51F822104B
:1023C00088470746601C82B2C0F303316F4850F85B
:1023D00021101046884747EA002101EB090080B22E
:1023E000A41CC1F30721020AA4B29142E0D1020B5E
:1023F000664900E05AE051F822108847707373E78D
:10240000010B57F82110884706E0010B57F82110FF
:10241000884781B25B48405C7073641C17E05B497D
:10242000020B51F8221088470746601C82B2C0F3A5
:102430000331564850F821101046884747EA0020DB
:102440005249020B51F8221088477073A41CA4B2A1
:10245000A9EB00004AE7010B57F82110884706E076
:10246000010B57F82110884781B24648405C7073D1
:10247000641C17E04549020B51F8221088470746B3
:10248000601C82B2C0F30331404850F8211010465E
:10249000884747EA00203D49020B51F8221088473F
:1024A0007073A41CA4B2AAEB00001FE701210EE781
:1024B000A9F1010022E100BFAAF1010028E1010B0E
:1024C00057F8211088472F4A641C2F4B115CA4B287
:1024D000491EC9B2717325F082055B5C01F0D7BC5F
:1024E0002A49020B51F8221088470746601C82B225
:1024F000C0F30331254850F821101046884747EAB9
:102500000027A41C2148390BA4B250F821103846EA
:102510008847401E34E1010B57F82110884700EB33
:10252000090161F3070082B21648641C164B815CF6
:1025300025F08205491EC9B271735B5CA4B21D43CC
:10254000F9E31249020B51F8221088470746601C34
:1025500082B2C0F303310D4850F82110104688476D
:1025600047EA0020484487B2A41C0848390BA4B2AB
:1025700050F8211038468847401EC1B2717325F0CB
:10258000820505E0CC020020644E000814BB002048
:10259000FC48405C0543FC483A0B50F82220384682
:1025A00026E6010B57F8211088474844C1B2F74886
:1025B000641CA4B2425C491C50FA81F0007842EAE3
:1025C000002045E0010B57F82110884781B2EF4801
:1025D000405C03E0010B57F8211088477073641CBE
:1025E000A4B239E0E849020B403951F8221088477B
:1025F0000746601C82B2C0F30331E348403850F80C
:1026000021101046884747EA0020DF49020B403975
:1026100051F8221088477073A41CE1E7FDE3010B19
:1026200057F821108847D94970730A5C401C51FA49
:1026300080F00078641C42EA002101EB0A0080B2BD
:10264000020A090AA4B28A4202D0B16A491CB162E4
:10265000010B57F821104BE088EA0001C2E4010B9E
:1026600057F8211088474844C849C0B2641C095C27
:102670007173A4B288EA010046E3C349020B4039F2
:1026800051F822108847611C074688B2C1F3033213
:10269000BD49403951F82210884747EA002101EB33
:1026A0000A0018E0B16A491CB1621CE0B649020B8D
:1026B000403951F8221088470746601C81B2C0F3A8
:1026C0000332B148403850F822200846904747EA84
:1026D000002101EB090080B2A41CC1F30721020A0A
:1026E000A4B29142DED1A849020B403951F8221020
:1026F00088477073B0E7F4E309F1010000F0FF09C7
:1027000025F082059F4810F809007EE50AF10100D6
:1027100000F0FF0A9B4825F0820510F80A0074E5D6
:10272000010B57F8211088479849641C954B0A5CA7
:1027300025F08205521CD2B272739B5CA4B21D4379
:102740000A5401F028BF9049020B403951F8221079
:1027500088470746601C82B2C0F303318A4840387C
:1027600050F821101046884747EA00208649A41CEB
:10277000020B4039074651F82210A4B28847401C8A
:10278000C1B28048717325F08205405C054301F0B9
:10279000D3BC010B57F82110884700EB090161F306
:1027A00007007A4982B2641C885C764B401CC0B238
:1027B0007073A4B225F082051B5C01F0E3BB724983
:1027C000020B403951F8221088470746601C81B23D
:1027D000C0F303326C48403850F822200846904736
:1027E00047EA0020484487B26748A41C390B4038A8
:1027F000A4B250F8211038468847401CC1B2614845
:10280000717325F08205405C01F0E0BB5E49020B6C
:10281000403951F822108847641C5B49C4F30332E5
:102820004039074651F82210A0B2884747EA0020F5
:1028300084B2002001F0B6BD5349020B403951F873
:10284000221088470746601C82B2C0F303314E480D
:10285000403850F821101046884747EA00274A4878
:10286000390B403850F821103846884760F3070488
:10287000781C60F30707B8B24349020B403951F89E
:1028800022108847B9E3002171733F49020B403998
:1028900051F8221088470746601C82B2C0F303310A
:1028A0003948403850F8211010468847726A641C35
:1028B000ABF10101230AC9B202F80B305454491E8E
:1028C00047EA002001F0FF0BFFF7D5B9010B57F8DD
:1028D0002110884748442D49C0B2641C0A5CA4B248
:1028E000401C51FA80F0007842EA002045E0010BDC
:1028F00057F82110884781B22448405C08E08046A0
:10290000F9E3085C81E4AEE2010B57F82110884737
:102910007073641C15E0020BB84657F82210884704
:102920000746601CC0F3033182B258F821101046EC
:10293000884747EA0020020B58F822108847707336
:10294000A41CA4B2DBE7F4E3010B57F8211088477D
:102950000E4970730A5C401C51FA80F00078641CC8
:1029600042EA002101EB0A0080B2020A090AA4B27D
:102970008A4202D0B16A491CB162010B57F821109A
:1029800044E075E2644E000854BB0020CC020020F5
:10299000010B57F8211088474844FA49C0B2085C37
:1029A000B6E7020BB84657F8221088470746601C66
:1029B000C0F3033182B258F821101046884747EA25
:1029C000002101EB0A0016E0FEE3B16A491CB16286
:1029D00019E0020BB84657F8221088470746601CDA
:1029E000C0F3033182B258F821101046884747EAF5
:1029F000002101EB090080B2A41CC1F30721020AE7
:102A0000A4B29142E1D1020B58F8221088477073AA
:102A100075E7010B57F82110884706E0010B57F8BE
:102A20002110884781B2D748405C7073641CA4B2FF
:102A300041E0020BB94657F8221088470746601C50
:102A4000C0F3033182B259F821101046884747EA93
:102A50000020020B59F8221088477073A41CE6E787
:102A6000010B57F8211088475044C649C0B2085C92
:102A7000DBE7020BB94657F8221088470746601C6F
:102A8000C0F3033182B259F821101046884747EA53
:102A9000002101EB0A0080B2A41CC1F30721020A45
:102AA000A4B2914202D0B16A491CB162020B59F83A
:102AB000221088477073814625F08205B24920E7CD
:102AC000010B57F82110884706E0010B57F8211039
:102AD000884781B2AB48405C7073641CA4B241E08B
:102AE000020BBA4657F8221088470746601CC0F30D
:102AF000033182B25AF821101046884747EA002075
:102B0000020B5AF8221088477073A41CE6E7010BE9
:102B100057F82110884748449A49C0B2085CDBE75F
:102B2000020BBA4657F8221088470746601CC0F3CC
:102B3000033182B25AF821101046884747EA002133
:102B400001EB090080B2A41CC1F30721020AA4B260
:102B5000914202D0B16A491CB162020B5AF82210AC
:102B600088477073824625F082058749C9E600BF11
:102B70004FEA5800ACE1010B57F821108847814A11
:102B8000641C25F08305135CA4B2590803F001030B
:102B90001D43B8E17D49020B51F8221088470746D2
:102BA000601C82B2C0F30331784850F821101046FF
:102BB000884747EA0027A41C7448390BA4B250F890
:102BC0002110384688474108BEE17173DFE5010BEB
:102BD00057F82110884700EB090161F307006949A4
:102BE00083B2641CCA5C25F08305500802F0010220
:102BF0001543654AA4B2125CFEE36449020B51F826
:102C0000221088470746601C81B2C0F303325F4838
:102C100050F822200846904747EA0020484487B2EF
:102C2000A41C5A48390BA4B250F8211038468847E2
:102C30004108CAE17173F1E3010B57F8211088478D
:102C400048445049C0B2641C0A5CA4B2401C51FA0A
:102C500080F0007842EA002045E0010B57F821108F
:102C6000884781B24748415C49E0010B57F8211081
:102C700088477073641C1AE048EA0001EEE4434997
:102C8000020B51F8221088470746601C82B2C0F33D
:102C900003313E4850F821101046884747EA00208B
:102CA0003A49020B51F8221088477073A41CA4B251
:102CB000E2E7010B57F8211088470146707331484D
:102CC000425C491C50FA81F00078641C42EA002101
:102CD00001EB0A0080B2020A090AA4B28A4202D0B9
:102CE000B16A491CB162010B57F8211047E0010B92
:102CF00057F82110884748442249C0B2095C641C37
:102D00007173A4B248EA01008046FFF76DB91F490C
:102D1000020B51F8221088470746601C82B2C0F3AC
:102D200003311A4850F821101046884747EA00211D
:102D300001EB0A0017E06FE3B16A491CB1621AE0C7
:102D40001249020B51F8221088470746601C82B2D4
:102D5000C0F303310D4850F821101046884747EA68
:102D6000002101EB090080B2A41CC1F30721020A73
:102D7000A4B29142E0D10549020B51F822108847D4
:102D8000707379E7CC020020644E000814BB002069
:102D9000284668F35F00F94AC1B2C0F30720525CCD
:102DA000024325F08300FFF741B8010B57F82110CB
:102DB0008847F34B014628465A5CF04F62F35F00A8
:102DC000C2B2641CBF5C727347EA102725F083000F
:102DD000A4B247EA00055A54B3E4EA49020B51F899
:102DE000221088470746601C82B2C0F30331E548D1
:102DF00050F821101046884747EA0020A41CE149FA
:102E0000020B074651F82210A4B28847294660F306
:102E10005F01DA48CAB2805C00E050E1C1F30721EB
:102E2000084325F0830140EA0105B8B2D549030BF8
:102E30004031727351F823301146984781E4010BF9
:102E400057F82110884700EB090161F30700CC4ACD
:102E500083B22846D15CC94F61F35F00C1B2641CE4
:102E60007F5CA4B2000A074325F0830047EA00050F
:102E70007173D15465E4C349020B51F8221088479D
:102E80000746601C82B2C0F30331BE4850F82110DF
:102E90001046884747EA0020484487B2A41CB94836
:102EA000390BA4B250F82110384688472A4660F3FF
:102EB0005F02B248D1B2C2F30722405C104325F052
:102EC000830240EA0205B5E64FEA580040EAC51021
:102ED00025F0830508F001010D43A849C0B2095C43
:102EE0000D43DDE0010B57F821108847A44A641C0C
:102EF000A4B2115C4B0843EAC51325F0830501F029
:102F000001010D43D9B29D4B5B5C1D4371732EE2F1
:102F10009C49020B51F8221088470746601C82B278
:102F2000C0F30331974850F821101046884747EA0C
:102F30000027A41C9348390BA4B250F8211038463E
:102F40008847410841EAC51125F0830500F00100DA
:102F500005438A48C9B2405CF0E3010B57F82110E1
:102F6000884700EB090161F30700854982B2641CC0
:102F7000885CA4B2430843EAC51325F0830500F03A
:102F800001000543D8B27D4B1B5C1D43D6E27D4951
:102F9000020B51F8221088470746601C82B2C0F32A
:102FA0000331784850F821101046884747EA00203E
:102FB000484487B2A41C7348390BA4B250F82110BE
:102FC00038468847410841EAC51125F0830500F0DD
:102FD000010005436948C9B2405CFDE30BF1010003
:102FE000716AC0B20D5C401CC0B20A5C401C00F0AB
:102FF000FF0B62F3070411F80B0060F30F24EBE6FC
:103000000BF10100716AC0B20A5C401C00F0FF0BBA
:1030100062F3070411F80B0060F30F24641CA4B2E0
:10302000DAE6010B57F82110884748445449C0B2EA
:10303000641C0A5CA4B2401C51FA80F0007842EA99
:103040000020010B57F82110884770730246A8EB47
:10305000000045F30001401A401E83B24749D8B230
:103060000F5C05F00C010F4388EA020180EA0802B8
:103070001140402202EA51011A0A04D000221143F1
:1030800047EA01050CE00122F9E7010B57F821108E
:10309000884781B23A48415C54E0114343EA010554
:1030A000804699E6010B57F8211088477073641C1D
:1030B0001FE0012200E00022104343EA0005884699
:1030C0008AE63049020B51F8221088470746601CF7
:1030D00082B2C0F303312B4850F8211010468847C4
:1030E00047EA00202749020B51F8221088477073E5
:1030F000A41CA4B295E0FCE3010B57F8211088470B
:103100001F4970730A5C401C51FA80F00078641CFF
:1031100042EA002101EB0A0080B2020A090AA4B2C5
:103120008A4202D0B16A491CB162010B57F82110E2
:1031300050E0B8E2010B57F8211088474844104985
:10314000C0B2095C45F30002A8EB0100641C801AC0
:10315000401E82B2094BD0B271731B5C05F00C05A6
:103160002B4388EA010580EA08010D404021A4B202
:1031700001EA5501120A07D000228EE7644E0008CA
:10318000CC02002014BB0020012286E7F849020B84
:1031900051F8221088470746601C82B2C0F3033101
:1031A000F34850F821101046884747EA002101EB08
:1031B0000A0080B2A41CC1F30721020AA4B2914202
:1031C00004D0B16A491C00E0E4E2B162E849020BB4
:1031D00051F82210884723E0E549020B51F82210EC
:1031E00088470746601C82B2C0F30331E04850F8BC
:1031F00021101046884747EA002000EB090189B2F8
:10320000A41CC0F307200A0AA4B2904202D0B06AFC
:10321000401CB062D6480A0B50F82220084690475E
:103220007073A8EB000145F30002891A491E8AB2A7
:10323000D04BD1B205F00C055B5C2B4388EA00054E
:1032400081EA08000540402000EA5500120A7FF498
:1032500032AF2EE7010B57F8211088474844C64982
:10326000C0B2641C0A5CA4B2401C51FA80F0007821
:1032700042EA00201CE0010B57F821108847641C2B
:10328000A4B286F80D80414670E0B949020B51F8AE
:10329000221088470746601C82B2C0F30331B4484D
:1032A00050F821101046884747EA0020A41C19E076
:1032B000AF49020B403186F80D8051F8222041467B
:1032C000FDE3010B57F821108847AB4982B2401C3F
:1032D0008A5C51FA80F00078641C42EA002101EB1C
:1032E0000A0080B2A4B2E3E7010B57F82110884727
:1032F00000EB090161F30700641CA4B286F80D809D
:10330000414687E09A49020B51F822108847074648
:10331000601C82B2C0F30331954850F8211010466A
:10332000884747EA0020A41CA4B2504413E0904907
:10333000020B51F8221088470746601C82B2C0F386
:1033400003318B4850F821101046884747EA002087
:10335000A41CA4B2484480B2AAE7010B57F821107C
:103360008847641CA4B286F80D904946824AFCE363
:103370007F49020B51F8221088470746601C82B231
:10338000C0F303317A4850F8211010468847A41C36
:1033900047EA0020A4B286F80D90E7E3010B57F846
:1033A0002110884700EB0A0161F30700641CA4B2F6
:1033B00086F80D9049462DE0010B57F821108847FB
:1033C000641CA4B286F80DA05146CFE76849020BF1
:1033D00051F8221088470746601C82B2C0F30331BF
:1033E000634850F8211010468847A41C47EA002083
:1033F000A4B286F80DA0FDE3A1E2010B57F821105D
:10340000884700EB090161F30700641CA4B286F849
:103410000DA0514682B258488154DDE4EBE3F17AC5
:103420000029FAD1010B57F8211088474844524926
:10343000C0B2641C0A5CA4B2401C51FA80F000784F
:1034400042EA0020019047E0F17A0029E5D1010B22
:1034500057F821108847484B0246641C985CA4B278
:103460004000C1B241EA0807E7E0F17A0029D4D16F
:103470003F49020B51F8221088470746601C82B270
:10348000C0F303313A4850F821101046884747EA04
:103490000020A41C3649020B074651F82210A4B2A2
:1034A00088474000C1B241EA0802F6E0F17A0029FB
:1034B000B3D1010B57F8211088472F4982B2401C25
:1034C0008A5C51FA80F00078641C42EA002101EB2A
:1034D0000A0080B2A4B20190010B57F8211088476E
:1034E0004000C1B241EA08029046224AC0F30720D8
:1034F00012F80820024325F0830042EA00057173A8
:1035000008E3F17A002988D1010B57F82110884788
:1035100000EB090161F30700174982B2641C885C63
:10352000144F4300D8B240EA0808A4B217F8087054
:1035300047EA132725F0830347EA03057073F1E395
:10354000F17A002993D10A49020B51F822108847D9
:103550000746601C82B2C0F30331054850F82110C1
:103560001046884747EA0020A41CA4B250441CE03F
:1035700014BB0020644E0008CC020020F17A002920
:1035800096D1FD49020B51F8221088470746601C6E
:1035900082B2C0F30331F84850F821101046884732
:1035A00047EA0020A41CA4B2484480B2F249020BAE
:1035B000074651F8221088474000C1B241EA08028C
:1035C000E2E0F17A00299ED1010B57F821108847DB
:1035D0004844EA49C0B2641C0A5CA4B2401C51FAD7
:1035E00080F0007842EA0020010B019057F821108A
:1035F0008847294660F35F010846C9B2E04A01EAFC
:103600000808C0F3072012F80820024325F08300C1
:1036100042EA000573E7F17A002993D1010B57F8CC
:1036200021108847D54B02462846995C641C61F3FB
:103630005F00C1B2A4B201EA0807B846D04F17F83C
:103640000870717347EA102725F0830047EA0005E8
:1036500099540FE4F17A0029FBD1C749020B51F8C4
:10366000221088470746601C82B2C0F30331C2486B
:1036700050F821101046884747EA0020A41CBE4994
:10368000020B074651F82210A4B28847294660F37E
:103690005F010846C9B201EA08029046B84AC0F381
:1036A000072012F80820024325F0830042EA0005B3
:1036B000FFF78BBAF17A0029CBD1010B57F8211013
:1036C0008847AE4982B2401C8A5C51FA80F000788B
:1036D000641C42EA002101EB0A0080B2010B019058
:1036E00057F82110A4B28847294660F35F010846C5
:1036F000C9B201EA0802F7E6F17A0029A9D1010B63
:1037000057F82110884700EB090161F307009B4A35
:1037100083B22946D05C9A4F60F35F01C8B200EAD9
:103720000808641C17F80870707347EA112725F021
:103730008301A4B247EA0105D05460E4B8E0F17A0D
:10374000002986D18C49020B51F822108847074680
:10375000601C82B2C0F30331874850F82110104634
:10376000884747EA00205044A41C80B28249020BDB
:10377000A4B251F8221007468847294660F35F013A
:103780000846C9B201EA080290467D4AC0F3072004
:1037900012F80820024325F0830042EA0005FFF7F3
:1037A00049BAF17A0029C8D17349020B51F82210A5
:1037B00088470746601C82B2C0F303316E4850F858
:1037C00021101046884747EA00204844A41C80B2D4
:1037D000A4B20746020B00E0FEE0674951F8221050
:1037E0008847294660F35F010A46C9B2644801EA86
:1037F0000808C2F3072210F80800104325F08302DE
:1038000040EA0205CBE7F17A002996D1010B57F87F
:103810002110884748445949C0B2641C0A5CA4B2CC
:10382000401C51FA80F0007842EA0020019057E0F5
:10383000F17A002985D1010B57F8211088474F4AAA
:10384000641C25F08305135CA4B2590803F001033E
:103850001D434B4B81EA080813F80830FFF755BBAE
:10386000F17A00299FD14449020B51F82210884770
:103870000746601C82B2C0F303313F4850F8211064
:103880001046884747EA0027A41C3B48390BA4B2DE
:1038900050F8211038468847C0F3470125F08305CA
:1038A00000F001000543364881EA080810F80800D6
:1038B0000543FDE6F17A0029A7D1010B57F8211045
:1038C00088472E4982B2401C8A5C51FA80F0007809
:1038D000641C42EA002101EB0A0080B2A4B201900C
:1038E000010B57F821108847C0F3470181EA080807
:1038F00000E08FE225F0830500F001000543204839
:1039000010F808000543FAE5F17A002992D1010B7D
:1039100057F82110884700EB090161F307001749A8
:1039200083B2641CCA5C25F08305500802F00102D2
:103930001543134A80EA0808A4B212F808207073ED
:103940001543C854A5E2F17A0029FBD10A49020BBC
:1039500051F8221088470746601C82B2C0F3033139
:10396000054850F821101046884747EA0020A41C5B
:10397000A4B250441DE0000014BB0020CC02002083
:10398000644E0008F17A0029DCD1FF49020B51F89E
:10399000221088470746601C82B2C0F30331FA4800
:1039A00050F821101046884747EA0020A41CA4B212
:1039B000484480B2F449020B074651F82210884768
:1039C000C0F3470125F0830500F001000543EF48EF
:1039D00081EA080810F808000543E0E6F17A0029BA
:1039E000B0D1010B57F8211088474844E849C0B2CC
:1039F000641C0A5CA4B2401C51FA80F0007842EAD0
:103A00000020010B019057F82110F1E0F17A002914
:103A100098D1010B57F821108847641C0746A4B2BF
:103A200087E0F17A00298DD1D749020B51F8221095
:103A300088470746601C81B2C0F30332D24850F871
:103A400022200846904747EA0020A41CCE49020BDA
:103A5000074651F82210A4B28847410841EAC5112F
:103A600060F30005C9B208EB010005F00102104443
:103A7000C0F30722C54BC0B271731B5C80EA080C0F
:103A80001A4388EA01032CEA030C402303EA5C038F
:103A900005F00C052B4342EA03054CE3F17A0029BB
:103AA0009ED1010B57F821108847B94982B2401CBA
:103AB0008A5C51FA80F0007842EA002100E0F6E3E7
:103AC00001EB0A0080B2641C010B019057F8211031
:103AD000A4B28847410841EAC51160F30005C9B2A4
:103AE00008EB010005F001021044C0F30722A74BC8
:103AF000C0B271731B5C88EA01071A4380EA0803AD
:103B0000BB43402707EA530305F00C052B4342EA69
:103B1000030580469EE1F17A002984D1010B57F814
:103B20002110884700EB090161F30700641CA4B26F
:103B300087B2974BD85D410841EAC51160F3000593
:103B4000CAB208EB020005F001010844C0F3072CDB
:103B5000C1B28E487273405C4CEA000C81EA0800E6
:103B600088EA020820EA080001E091E1F2E34FF060
:103B7000400808EA500005F00C0528434CEA00050F
:103B80008846DA5585E1F17A0029FBD17E49020B9E
:103B900051F8221088470746601C82B2C0F30331F7
:103BA000794850F821101046884747EA0020A41CA5
:103BB000A4B2504416E0F17A0029E3D17249020B15
:103BC00051F8221088470746601C82B2C0F30331C7
:103BD0006D4850F821101046884747EA0020A41C81
:103BE000A4B2484480B26849020B019051F82210F7
:103BF000884701E0FEE3EAE1410841EAC51160F3CC
:103C00000005C9B208EB010005F001021044C0F341
:103C100007225E4BC0B271731B5C80EA08071A432F
:103C200088EA01039F43402303EA57036CE7F17AD4
:103C30000029A7D1010B57F821108847484454495F
:103C4000C0B2641C0A5CA4B2401C51FA80F0007837
:103C500042EA0020010B019057F82110884708EA3A
:103C600009014CE4F17A00298CD1010B57F821109D
:103C70008847641CA4B2464A08EA0901FFF746B91E
:103C8000F17A002999D14049020B51F82210884756
:103C90000746601C82B2C0F303313B4850F8211044
:103CA0001046884747EA0027A41C3748390BA4B2BE
:103CB00050F821103846884708EA0901F8E4F17AFB
:103CC0000029B6D1010B57F82110884700EB0A01F3
:103CD00061F3070081B22E4A08EA0900641C707380
:103CE000A4B25054D5E0F17A0029FBD1010B57F86A
:103CF0002110884748442649C0B2641C0A5CA4B21B
:103D0000401C51FA80F0007842EA002049E0F17A44
:103D10000029E7D1010B57F82110884781B21C48D0
:103D2000405C4DE02FE1F17A0029DBD1020BB8466F
:103D300057F8221088470746601CC0F3033281B24F
:103D400058F822200846904747EA0020020B58F80E
:103D5000221088477073A41CA4B259E0F17A00299C
:103D6000C0D1010B57F821108847094970730A5CCC
:103D7000401C51FA80F00078641C42EA002101EBFB
:103D80000A00A4B280B205E014BB0020644E000813
:103D9000CC020020020A090A8A4202D0B16A491CF8
:103DA000B162010B57F8211030E0F17A002999D166
:103DB000010B57F8211088475044FF49C0B2085CF6
:103DC0007073641CC8E7F17A00298BD1020BB846E6
:103DD00057F8221088470746601CC0F3033182B2AF
:103DE00058F821101046884747EA002101EB0A00E5
:103DF00080B2A41CC1F30721020AA4B2914202D0EE
:103E0000B16A491CB162020B58F8221088477073DE
:103E10008046814625F08205E8494046FEF771BD9F
:103E2000F17A00299CD1010B57F8211088474844AA
:103E3000C1B2E148641CA4B2425C491C50FA81F052
:103E4000007842EA002001906BE01543C2B2DB48E3
:103E5000805C05430198FEF7C6B9F17A0029A6D126
:103E6000010B57F821108847D34A641CA4B2115C97
:103E700025F08305491EC9B2A8EB01039BB27173FB
:103E80001F0A07D000273D43DFB2CC4BDB5D1D434B
:103E9000115480E30127F6E7F17A0029F9D1C849E6
:103EA000020B51F8221088470746601C82B2C0F30B
:103EB0000331C34850F821101046884747EA0020D4
:103EC000A41CBF49020B074651F82210A4B2884730
:103ED000401EC1B2A8EB010080B2717325F08305CA
:103EE000020A06D000221543C2B2B448805CFEF735
:103EF0004DBC0122F7E7F17A0029CAD1010B57F82E
:103F000021108847AC4982B2401C8A5C51FA80F08B
:103F10000078641C42EA002101EB0A0080B2A4B2DE
:103F20000190010B57F821108847401EC1B2A8EB41
:103F3000010080B2717325F08305020A01D00022CE
:103F400083E7012281E7F17A0029A2D1010B57F81A
:103F50002110884700EB090161F30700964982B2FE
:103F6000641C885CA4B2401EC0B2A8EB00039BB2E4
:103F7000707325F083051F0A07D000273D43DFB289
:103F80008E4BDB5D1D43885405E30127F6E7F17A8C
:103F90000029F9D18A49020B51F8221088470746B7
:103FA000601C82B2C0F30331854850F821101046DE
:103FB000884747EA0020A41CA4B2504420E0012214
:103FC00000E000221543C2B27C48805C05433846BD
:103FD00041E7F17A0029D7D17949020B51F8221033
:103FE00088470746601C82B2C0F30331744850F81A
:103FF00021101046884747EA0020A41CA4B2484478
:1040000080B26F49020B074651F822108847401EC4
:10401000C1B2A8EB010080B2717325F08305020ADA
:10402000CFD1CCE7F17A0029AED1010B57F821109E
:10403000884748446049C0B2641C0A5CA4B2401C72
:1040400051FA80F0007842EA002001908EE00122CF
:1040500000E0002215431D435BE5F17A002993D16E
:10406000010B57F821108847DFF84CC1014645F392
:1040700000031CF80100641C401CC2B2A8EB020043
:10408000C01A401E83B24D4FD8B272733F5C05F028
:104090000C053D4388EA020780EA080807EA08079A
:1040A0004FF04008A4B208EA57071B0A06D00023C5
:1040B0001F433D4380460CF801206CE20123F7E7E3
:1040C000F17A0029F9D13E49020B51F822108847B4
:1040D0000746601C82B2C0F30331394850F8211002
:1040E0001046884747EA0020A41C3549020B0746C2
:1040F00051F82210A4B28847401CC1B2A8EB0100BD
:1041000045F30002801A401E82B22C4BD0B271736C
:104110001B5C05F00C052B4388EA010580EA080CBE
:1041200005EA0C054FF0400C0CEA5505120A05D0C3
:10413000002215431D438046B8B28CE60122F8E701
:10414000F17A00293ED1010B57F8211088471A490E
:1041500082B2401C8A5C51FA80F00078641C42EA0A
:10416000002101EB0A0080B2A4B20190010B57F8C4
:10417000211070E0F17A29BB010B57F82110884714
:1041800000EB090161F30700DFF82CC083B245F3AF
:1041900000021CF80300641C401CC1B2A8EB010023
:1041A000801A401E82B2054FD0B271733F5C05F099
:1041B0000C05A4B23D4306E0CC020020644E00088A
:1041C00014BB002054E088EA010780EA080807EAE7
:1041D00008074FF0400808EA5707120A06D00022E5
:1041E00017433D4380460CF80310D4E10122F7E762
:1041F000F17AE9BBFE49020B51F8221088470746C5
:10420000601C81B2C0F30332F94850F822200846FE
:10421000904747EA0020A41CA4B2504415E0F17A6C
:1042200031BBF349020B51F8221088470746601C46
:1042300082B2C0F30331EE4850F82110104688478F
:1042400047EA0020A41CA4B2484480B2E849020B0B
:10425000019051F822108847401CC1B2A8EB010020
:1042600045F30002801A401E82B27173D0B200E0A2
:104270004FE0E04B05F00C0580EA08071B5C2B4380
:1042800088EA01053D40402707EA5505120A7FF4F8
:10429000E0AEDCE6F17AE1BB010B57F8211088476C
:1042A000641C707308EA0001A4B248080EE008E13B
:1042B000F17A71BB010B57F821108847641C7073A9
:1042C00008EA00014808A4B240EAC51025F08305B9
:1042D00001F00101FEF700BEF17AD1B9010B57F8E8
:1042E00021108847641C7073A4B209EA0001884653
:1042F000FDF77ABEF17A61B9010B57F821108847B2
:104300007073641C40F0EE00A4B200EA0808FDF7E8
:1043100046BD3FE0F17AE9BB010B57F82110884711
:10432000641C707309EA0801081A80B200F0FF09E2
:10433000A4B225F08305000A00D001200543FEF752
:10434000E1B9F17A31BB601C02E0F17A11BBA01C2B
:1043500084B220E1AFE0F17AE1B9A549020B51F84E
:10436000221088470746601C82B2C0F30331A04880
:1043700050F821101046884747EA002101EB090058
:1043800080B2A41CC1F30721020AA4B2914204D056
:10439000B16A00E03FE0491CB1629549020B51F857
:1043A000221088477073F6E0A4F5A041043903D0C9
:1043B000F07A80BBFDF777BF02207072F0E0F17AEF
:1043C00049BB020BBB4657F8221088470746601CC2
:1043D000C0F3033182B25BF8211010468847A41C59
:1043E00047EA0020A4B25044611E87B288B2C1F3EC
:1043F000033200E033E05BF82210884708EA090145
:10440000401C00EA010B7A493A0B4031384651F81A
:104410002220594655E03FE0F17AE9BB7449020B8E
:1044200051F8221088470746601C82B2C0F303315E
:104430006F4850F8211010468847A41C47EA002016
:10444000A4B24844611E87B288B2C1F303326849FE
:1044500051F822108847401C00EA0A0A384664498D
:10446000020B403151F8222051462AE0F17A99B9E5
:104470005F49020B51F8221088470746601C82B240
:10448000C0F303315A4850F8211010468847A41C45
:1044900047EA0020A4B200E056E05044611E87B213
:1044A00088B2C1F30332524951F822108847401CA8
:1044B00000EA090938464E49020B403151F82220E2
:1044C0004946904767E0F17AF1BB010B57F821109C
:1044D0008847494982B2401C8A5C51FA80F00078D2
:1044E000641C42EA002101EB0A0080B2010B01903A
:1044F00057F82110A4B288477073611E88B2C1F3C7
:10450000033157F821108847411C08EA090001408F
:10451000FEF7F5BFF17AB9B93549020B51F822100F
:1045200088470746601C82B2C0F30331304850F818
:1045300021101046884747EA00205044A41C87B247
:10454000A4B2390B2A4800E025E050F82110384683
:104550008847611E707388B2C1F30332244951F851
:1045600022108847411C08EA09000140FEF762BB9F
:10457000F17A81B9010B57F821108847641C08EAC9
:10458000000825F083017073A4B241EAD8151948D8
:1045900010F808000543B16A02988142FDF40EA9A3
:1045A000748286F8038086F8049086F805A086F861
:1045B00007B0B571B16A0098081ABDE8FE8FF17AAC
:1045C0000029E8D1020BB84657F822108847074661
:1045D000601CC0F3033182B258F82110104688479E
:1045E00047EA002101EB0A00A41C80B2A4B205E056
:1045F00014BB0020644E0008CC020020C1F3072148
:10460000020A914202D0B16A491CB162020B58F809
:10461000221088470BEA000BD8467073C14667E644
:10462000244810B54FF4A04141820221C170017AA3
:104630000171017B002902D04FF0000101E04FF031
:10464000CD0141714FF0FF01C17102D04FF0040163
:1046500081714FF000014172C162816216494FF4CD
:10466000804044F20F0300BF00F01F044FF000022F
:1046700000F101000A559842F6DB002008748874A6
:10468000C87408750F2048750020C8750B490C4B7D
:10469000A1F5004206E0022804DB02EB0034A4F599
:1046A000005401E003EB003441F82040401C0A288C
:1046B000F1DB10BD20000020CC2A0020ECBA002045
:1046C000CC0A0020F8B54FF400613B48FBF7B0FD81
:1046D0004FF400513948FBF7ABFD20213848FBF778
:1046E000A7FD37484FF480512030FBF7A1FD4FF470
:1046F00000413448FBF79CFD34493348314B486254
:10470000334C4BF6C452002044F23C251618275C6B
:104710001E44A6F50046401C3770A842F6D3692017
:1047200018702748202220304BF634630270ADF811
:104730000030A0F14C03BDF8004023F84D4FF224A7
:10474000C47002714FF2D022ADF800209A804C2242
:10475000C271032202725022427200204871087115
:10476000C87004208871FF20C8711B4819491F4A6E
:10477000416001601949C1608160194901611949AD
:1047800041611949C161816100F14001184B4A60E2
:10479000CB608B600A60174A0A61174A4A61174A60
:1047A000CA618A61164C082240F8224041F8223042
:1047B000521C102AF8DBF8BDCC020020CC0A0020E5
:1047C000CC2A0020EC3A0020CC030020200000205E
:1047D000644F00084D15000814BB00203715000871
:1047E000851500083D150008751500081D170008FF
:1047F0000B1700083D1700080D1700082D170008BB
:104800005D15000870B5174D00242DED048B9FED4C
:10481000118B9FED129B102C02D2C4F10F0001E00E
:10482000A4F11000C0B2C0EB0030FBF77EFD53ECEA
:10483000182BFBF708FD53EC192BFBF704FDFBF7D6
:1048400081FD25F81400641CE4B2202CE3D3BDECF8
:10485000048B70BD76FD82DDB06D813F00000000ED
:104860000000E03F600000200EB5FCF75BFAFCF7AB
:1048700095FEFCF701FEAD480025016841F40011EA
:10488000016000682A4600F40010009029461020BC
:10489000FCF7A8FA1020FCF797FAA6490095A4485F
:1048A000019508600846FBF7B4FE0420CDE9000539
:1048B000002269469F48FBF77EFE9E480095143013
:1048C0009D490195C0E900155D21C0E9025185614E
:1048D000FCF78EFD2020CDE900059648694614308E
:1048E000FCF73EFDFFF7EEFEFFF79AFEFFF78AFFAB
:1048F00090481430FCF7ACFD00218E48FBF7EEFE2B
:104900004FF480738D4A00218A480095FBF71CFF05
:104910008B4BDFF8309245F2030753F83E1F4846B1
:104920005A689C6816C0D9681A695C6916C00295F5
:1049300099690091D9690191198CADF80810009915
:1049400040F818190199C161BDF808100184029559
:10495000D3F822100091D3F826100191598DADF8AB
:1049600008100099C0F822100199C0F82610BDF86F
:10497000081041854FF4A04B4FF0FF3A4FF400462A
:10498000DFF8C481714C10E0A06A401CFCF7FEFE09
:10499000608A584506D3A0F5A04042F6F6710A3861
:1049A000884202D2A4F810A002E0608AB842EBD19B
:1049B000FCF7AAF96169401A10286CD3FCF7A4F936
:1049C0006061B4F91000A0B3401C33D04FF4C0476D
:1049D000608AB84212D2A06A401CFCF7D7FE608AF7
:1049E000584509D3A0F5A04042F6F6710A3888422E
:1049F00002D3607A0128EBD1A4F810A045F2070792
:104A0000608AB84212D0A06A401CFCF7BFFE608AE0
:104A1000584509D3A0F5A04042F6F6710A388842FD
:104A200002D3607A0128EBD1A4F810A00120A07075
:104A300002E0FFE7A07870B345484249027889F860
:104A40000020427889F80120827889F80220C27813
:104A500089F803200C3102790A7042794A70827910
:104A60008A70C279CA700C31027A0A70827A8A70AE
:104A7000C27ACA700A31027B8A70807BC870314862
:104A800000F0F4F82F480C3000F0F0F82D48183002
:104A900000F018F9A570FCF737F9A169401A32281F
:104AA00002D3FCF731F9A061FCF72EF9E169411A54
:104AB000B4F91000421C23D0C21700EB927222F00E
:104AC0000302801AC0F1040064225043814206D3DD
:104AD000FCF71AF9E06102211E48FCF708F9FCF71F
:104AE00013F9216A401A3228FFF45EAFFCF70CF983
:104AF0002062314647464046FCF7F4F810B103E027
:104B00003220E3E7607858B131463846FCF7EAF8DE
:104B100000283FF449AF60780028FAD0657047E775
:104B200001206070208A401C208241E7303802401A
:104B30000074004094BB002000100040A000002042
:104B400064910008A002002000080240200000201C
:104B5000CC2A00200004024070B5D388002B2DD051
:104B60009388002B2AD0002326E01478E40705D090
:104B700030F8134095882C4420F813401489D588C8
:104B8000641CB4FBF5F605FB16442404240C1481C4
:104B900010D1D57814882D0601D5062500E0012511
:104BA00024FA05F5654005F00105C4F34D0444EA17
:104BB000853414805B1C9BB28B42D6D370BD000041
:104BC000F0B5D388002B26D09388002B23D0002368
:104BD000114D1EE016785489B60905EBC606A45D92
:104BE0002CB130F813409688344420F813401489CF
:104BF000D688641CB4FBF6F706FB17442404240C87
:104C0000148104D1947A641C04F0070454815B1C61
:104C10009BB28B42DED3F0BD00000020F0B593883C
:104C2000002B20D0012B1ED000230F4D19E014893A
:104C300030F8136035F81440344420F81340D48819
:104C40009688A41CB4FBF6F706FB1744A4B2D480E4
:104C5000022C04D2147A641C04F01F0414815B1C1F
:104C60009BB28B42E3D3F0BD6000002010B5044638
:104C7000007800F00F00C0EB0030FBF756FB9FED13
:104C80000F1B53EC112BFBF7DEFAFBF75BFBA0804D
:104C9000E178A07801F00701012202EB012108442C
:104CA000E080092801D20021A1802189814204D31A
:104CB000B1FBF0F200FB1210208110BD21020EA109
:104CC0004ACD7E3FC278817802F00702012303EBD0
:104CD000022211448180C2888A4204D3B2FBF1F3DC
:104CE00001FB1321C180704770B50C460546490091
:104CF000FBF79EFA1A4A21462846FFF761FF184A39
:104D000021460C322846FFF75BFF154A2146183230
:104D10002846FFF783FF124A214622322846FFF732
:104D20001BFF00224FF48053B7EE080A591E14E00F
:104D300035F8120000EE900AF8EE600A60EE800A84
:104D4000FCEEE00A10EE900A80B225F812009842BC
:104D500001D325F81210521C92B2A242E8D370BDC2
:104D6000A002002007060008030305050302020253
:104D700004040606020500080404060602040207ED
:104D800004040707060600080303050504020202DF
:104D900004040606020500080404060602040207CD
:104DA00004040707060600080303050503020202C0
:104DB00003040606020500080404060602040207AE
:104DC000040407070606000803030505040202029F
:104DD000050406060205000804040606020402078C
:104DE0000404070702060206030303030202020289
:104DF0000404040402060006040404040205020577
:104E0000050505050206020603030303020202026A
:104E1000040404040205000504040404020402045A
:104E20000404040402060208030305050202020248
:104E3000040406060205000804040606020402072C
:104E40000404070702060208030305050202020222
:104E5000040406060205000804040606020402070C
:104E6000040407070200000000000000000000002A
:104E70000000000000000000000000000000000032
:104E80000000000000000000000000000000000022
:104E90000000000000000000000000000000000012
:104EA0000000000000000000000000000000000002
:104EB00000000000000000000000000000000000F2
:104EC00000000000000000000000000000000000E2
:104ED00000000000000000000000000000000000D2
:104EE00000000000808080808080808080808080C2
:104EF00080808080808080808080808080808080B2
:104F000080808080808080808080808080808080A1
:104F10008080808080808080808080808080808091
:104F20008080808080808080808080808080808081
:104F30008080808080808080808080808080808071
:104F40008080808080808080808080808080808061
:104F50008080808080808080808080808080808051
:104F60008080808048A200BD00BE9500E8D0F8BDDA
:104F700000BF9D0007E8D0F768A007C90D90093869
:104F8000E90DA000A24086FCC9079004C838E907D3
:104F9000AAA901E000F0050ACA4CF3BD99F400602B
:104FA000004FD0010028200005EB000000000800A1
:104FB00000000000000000000000000000000000F1
:104FC00000000000000000000000000000000000E1
:104FD00000000001AABD44BEA2004CC4BD000000F8
:104FE0000000000000020103040C0A07080B050979
:104FF0000D0F0E101112131400000000000000002D
:10500000000000000000000000000000000001019E
:10501000010101000000000000000000000000008D
:105020000000000000002860606060600000000078
:105030000000000000000000000000000000000070
:105040000000000000000000000000000000000060
:10505000000000000001010000000000000000004E
:105060000000000000000000000000000000B0E0B0
:105070000000000000000000000000000000000030
:105080000000000000000090A6019F130000000037
:10509000180000000801FA11273E0000000000007F
:1050A00000013000000000000000280007000000A0
:1050B00002000000000100000000000000FFFF00EF
:1050C0002490010000010801000001000A0008020C
:1050D000FFFF000000000000000301000C000000C2
:1050E0000000020000000000000000800000010538
:1050F000C2000000012800000000020000010000C2
:10510000000200000100000000000000000000009C
:105110000100030000000000101E00000000000A53
:10512000000000000000000900180000000000005E
:10513000000000000000000000000000000000006F
:1051400000000000000000A1185A6ADE0BB7000042
:10515000BD01000905030E0309050E000000000053
:1051600030B8000000000012000000000000000045
:10517000000000000000000000000000000000002F
:10518000000000000000000000000000000000001F
:10519000000000000000000003080700000000A558
:1051A0006900959FC5023010BD3304C9809009A5E0
:1051B00002959FA9009D330468F02BA50249FFA822
:1051C000C88407BD330438E5019D3304B59FE90069
:1051D000959FC5071010BD3304C980B009A5079578
:1051E0009FA9FF9D330460B50F480AB01268F00311
:1051F0004C82C8AD1F072907C907F00E4CCCC06808
:10520000290FA8B90F00D002950F60030306060608
:10521000060606070707050904050608090A060B1E
:105220001040B0B08040408040F0F0F0A56D38E90B
:1052300004856DAD250738E9048D2507AD1A0738BB
:10524000E9048D1A07AD1B0738E9048D1B07AD2A49
:105250000738E9048D2A07A9008D3B078D2B078DA0
:1052600039078D3A07B9F89B8D2C0760AD4507F0DB
:105270005EAD2607D059A00B883054AD5F07D96BBF
:10528000C0D0F5AD2507D976C0D0EDA5CED981C067
:10529000D023A51DC900D01DAD5F07C906D023EEE0
:1052A000D906EEDA06ADDA06C903D01EADD906C9B5
:1052B00003F00FD007AD5F07C906F0E6208CC020D1
:1052C00071D0A9008DDA068DD906A9008D4507ADEC
:1052D000CD06F0109516A901950FA900951E8DCD4C
:1052E000064C26C2AC3907B1E9C9FFD0034C16C23F
:1052F000290FC90EF00EE005900AC8B1E9293FC98F
:105300002EF00160AD1D0718693029F08507AD1B2F
:105310000769008506AC3907C8B1E90A900BAD3BB7
:1053200007D006EE3B07EE3A0788B1E9290FC90F0F
:10533000D019AD3B07D014C8B1E9293F8D3A07EE2B
:105340003907EE3907EE3B074CCCC0AD3A07956EF6
:10535000B1E929F09587CD1D07B56EED1B07B00BA0
:10536000B1E9290FC90EF0694C50C2A507D587A530
:1053700006F56E9041A90195B6B1E90A0A0A0A95A7
:10538000CFC9E0F04CC8B1E92940F005ADCC06F03A
:105390006DB1E9293FC9379004C93F9031C906D0A2
:1053A00007AC6A07F002A9029516A901950F2026FD
:1053B000C2B50FD04960ADCB06D009AD9803C90185
:1053C000D00BA92F9516A900951E206CC2604C1B0E
:1053D000C7C8C8B1E94A4A4A4A4ACD5F07D00E88D1
:1053E000B1E98D5007C8B1E9291F8D51074C5BC247
:1053F000AC3907B1E9290FC90ED003EE3907EE39F0
:1054000007EE3907A9008D3B07A60860B516C91538
:10541000B00DA8B5CF690895CFA9019DD8039820F4
:10542000048E0EC30EC30EC31EC3F0C228C3F1C246
:1054300042C36BC3F0C275C375C3F7C287C7D1C778
:105440004AC33DC385C3A0C7F0C2A0C7A0C7A0C7B9
:10545000A0C7B8C7F0C2F0C25CC45CC45CC45CC482
:1054600059C4F0C2F0C2F0C2F0C2DFC712C83FC8D0
:1054700045C80BC803C80BC84BC857C849C560BC52
:105480001EB9F0C2F0C2F0C2F0C2F0C207C381C8B8
:1054900060200EC34C46C3A90295B695CF4A9D968F
:1054A000074A951E4C46C3A9B895CF60F8F4A001F1
:1054B000AD6A07D00188B90CC395584C5AC3200E69
:1054C000C3A901951E608050A9009DA2039558AC08
:1054D000CC06B926C39D9607A90B4C5CC3A9004C0A
:1054E00019C3A9009558A909D012A030B5CF9D01C4
:1054F000041002A0E09875CF9558A9039D9A04A9BD
:10550000029546A90095A09D340460A9029546A97C
:10551000099D9A04602046C3BDA70729109558B578
:10552000CF9D340460ADCB06D00BA9008DD10620F1
:105530003DC34CD9C74C98C9262C3238202224268A
:1055400013141516AD8F07D03CE005B038A9808D37
:105550008F07A004B91600C911F02B8810F6EED100
:1055600006ADD106C907901DA204B50FF005CA10FB
:10557000F93010A900951EA9119516208AC3A920FB
:1055800020D8C5A60860A5CEC92C90F9B91E00D0B8
:10559000F4B96E00956EB987009587A90195B6B9E3
:1055A000CF0038E90895CFBDA7072903A8A202B903
:1055B00098C39501C8C8C8C8CA10F4A608206CCF03
:1055C000A457C008B00EA8BDA8072903F005984944
:1055D000FFA8C8982046C3A0029558C9003001888A
:1055E0009446A9FD95A0A901950FA905951E6028CF
:1055F0003828382800001010002075C5A9009558DB
:10560000B51638E91BA8B94FC49D8803B954C49591
:1056100034B5CF18690495CFB5871869049587B557
:105620006E6900956E4CD9C7803040803050507004
:10563000204080A0704090680E05060E1C20100CC3
:105640001E22181410602048AD8F07D0A12046C339
:10565000BDA8072903A8B9A4C48D8F07A003ADCCAA
:1056600006F001C88400E400B084BDA707290385C3
:10567000008501A9FB95A0A900A457F007A904C0C3
:105680001990010A481865008500BDA8072903F094
:1056900007BDA907290F850068186501A8B998C436
:1056A0009558A9019546A557D012A400982902F053
:1056B0000BB55849FF1869019558F646982902F02C
:1056C0000FA586187988C49587A56D69004C3CC5DF
:1056D000A58638F988C49587A56DE900956EA9015E
:1056E000950F95B6A9F895CF602075C58E6803A96A
:1056F000008D63038D6903B5878D6603A9DF8D90E7
:10570000079546A9208D64039D8A07A9058D83040A
:105710004A8D650360A0FFC8B90F00D0FA8CCF0690
:105720008A0980990F00B56E996E00B58799870038
:10573000A901950F99B600B5CF99CF006090807000
:1057400090FF01AD8F07D0F49D3404A5FD090285BB
:10575000FDAC6803B91600C92DF03120D9D1186904
:1057600020ACCC06F00338E9108D8F07BDA70729C0
:10577000039D1704A8B99DC595CFAD1D07186920D5
:105780009587AD1B076900956E4C1FC6B987003819
:10579000E90E9587B96E00956EB9CF001869089526
:1057A000CFBDA70729039D1704A8B99DC5A000D5A3
:1057B000CF9001C8B9A1C59D3404A9008DCB06A91D
:1057C000089D9A04A90195B6950F4A9D0104951E5E
:1057D00060003060600020604070406030AD8F0736
:1057E000D047A9208D8F07CED706A00688B916000E
:1057F000C931D0F8B9870038E93048B96E00E900FE
:105800008500ADD70618791E00A868187931C695AD
:1058100087A5006900956EB937C695CFA90195B6E1
:10582000950F4A9558A90895A06001020408102018
:105830004080403090502060A0700A0BAD8F07D0A0
:105840006FAD4E07D057E003B066A000BDA707C9F3
:10585000AA9001C8AD5F07C901F001C8982901A845
:10586000B99AC69516ADDD06C9FFD005A9008DDD34
:1058700006BDA7072907A8B98AC62CDD06F007C808
:105880009829074CD6C60DDD068DDD06B992C620D7
:10589000D8C59D1704A9208D8F074C6CC2A0FFC8E6
:1058A000C005B00DB90F00F0F6B91600C908D0EF69
:1058B00060A5FE090885FEA908D0A8A00038E93730
:1058C00048C904B00B48A006AD6A07F002A0026800
:1058D0008401A0B02902F002A0708400AD1B0785EE
:1058E00002AD1D078503A002684A9001C88CD3064B
:1058F000A2FFE8E005B02DB50FD0F7A5019516A5DC
:1059000002956EA50395871869188503A50269009D
:105910008502A50095CFA90195B6950F206CC2CE42
:10592000D306D0CC4C5EC2A90195584A951E95A0CD
:10593000B5CF9D340438E9189D1704A9094CDBC77D
:10594000B5168DCB0638E91220048EA4C3B7C7A8BC
:10595000C4A3C53DC69CC660A005B91600C911D038
:1059600005A901991E008810F1A9008DCB06950F9D
:1059700060A9029546A9F89558A9039D9A0460D696
:10598000CFD6CFACCC06D005A0022071C8A0FFAD09
:10599000A003951E10028AA88CA003A9009546A812
:1059A0002071C8A9FF9DA2034C28C8A90095584C96
:1059B00028C8A040B5CF100749FF186901A0C09DB5
:1059C0000104981875CF95582063C3A905AC4E07FC
:1059D000C003F007ACCC06D002A9069D9A04602053
:1059E0004BC84C48C82057C84C2BC8A9109D34043C
:1059F000A9FF95A04C60C8A9F09D3404A90095A00A
:105A0000A0012071C8A9049D9A0460080CF8000048
:105A1000FFB58718796BC89587B56E796EC8956E96
:105A20006060A608A900B416C015900398E9142078
:105A3000048EE0C835C995D2D6C8D6C8D6C8D6C84F
:105A400047C947C947C947C947C947C947C947C9D6
:105A5000D6C865C965C965C965C965C965C965C966
:105A60004DC94DC965D085BC4BB9D6C8D9D2BAB8D5
:105A7000D6C8A4B7D7C86020AFF12052F14C7DE85A
:105A8000A9009DC50320AFF12052F1207DE82043FD
:105A9000E220C1DF2033DA2053D8AC4707D00320FF
:105AA00005C94C7AD6B51620048E77CA77CA77CA4C
:105AB00077CA77CAD8C977CA89CB36CC34C94ACC19
:105AC0004ACCB0C9B0D3F9CAFFCA25CB28CF77CA10
:105AD00034C9DFCE6020EBD120AFF12052F120435A
